S01800006275696C642F6D696361322F6D61696E2E737265632D
S11300000C94A5010C9457070C9461070C946B078E
S11300100C9475070C947F070C9489070C94930730
S11300200C949D070C94C4010C94C4010C942607F1
S11300300C9405070C9410070C9437070C94A7072D
S11300400C94F4060C94930A0C94C4010C94C4010B
S11300500C94C4010C940A0E0C94C4010C94C401B5
S11300600C941B070C94C4010C94C4010C94C4019B
S11300700C94C4010C94C4010C94C4010C94C401E8
S11300800C94C4010C94480F0C94C40118141E144D
S113009031147F14FB141E15C915F015C017F3177E
S11300A04B185A186C186F1871189718A218B318AF
S11300B0B518B918BD18C318D518E6183C19501945
S11300C05319101487190000211042206330844012
S11300D0A550C660E770088129914AA16BB18CC113
S11300E0ADD1CEE1EFF13112100273325222B5528A
S11300F09442F772D662399318837BB35AA3BDD363
S11301009CC3FFF3DEE36224433420040114E66459
S1130110C774A44485546AA54BB528850995EEE5B2
S1130120CFF5ACC58DD55336722611163006D77669
S1130130F6669556B4465BB77AA719973887DFF702
S1130140FEE79DD7BCC7C448E5588668A778400831
S1130150611802282338CCC9EDD98EE9AFF9488952
S113016069990AA92BB9F55AD44AB77A966A711AC9
S1130170500A333A122AFDDBDCCBBFFB9EEB799BA2
S1130180588B3BBB1AABA66C877CE44CC55C222C19
S1130190033C600C411CAEED8FFDECCDCDDD2AADF2
S11301A00BBD688D499D977EB66ED55EF44E133EA9
S11301B0322E511E700E9FFFBEEFDDDFFCCF1BBF42
S11301C03AAF599F788F8891A981CAB1EBA10CD11C
S11301D02DC14EF16FE18010A100C230E320045024
S11301E0254046706760B9839893FBA3DAB33DC397
S11301F01CD37FE35EF3B1029012F322D232354274
S1130200145277625672EAB5CBA5A89589856EF526
S11302104FE52CD50DC5E234C324A01481046674C3
S1130220476424540544DBA7FAB79987B8975FE776
S11302307EF71DC73CD7D326F2369106B016576613
S11302407676154634564CD96DC90EF92FE9C899FE
S1130250E9898AB9ABA94458654806782768C01863
S1130260E1088238A3287DCB5CDB3FEB1EFBF98BD6
S1130270D89BBBAB9ABB754A545A376A167AF10AB3
S1130280D01AB32A923A2EFD0FED6CDD4DCDAABDE6
S11302908BADE89DC98D267C076C645C454CA23C03
S11302A0832CE01CC10C1FEF3EFF5DCF7CDF9BAFB6
S11302B0BABFD98FF89F176E367E554E745E932E53
S11302C0B23ED10EF01E00081C181410ABBA83AA5B
S11302D0AA3158000057F685035544020F60E02602
S11302E01C6B557081317C00007BF9AE02388C3276
S11302F080401026A16B5510F33151000050F74F88
S1130300030E44020F58E026A16B557081315CE066
S1130310005CDB4201AA8C3280301026A16B5510A0
S1130320F3314560004555BB039C80020F68E0260D
S1130330A16B5470813158000057F6850355900223
S11303400F60E026A16B5570810011241FBECFEF12
S1130350D0E1DEBFCDBF11E0A0E0B1E0EAE8FBE30D
S113036000E00BBF02C007900D92AC31B107D9F782
S113037012E0ACE1B1E001C01D92A239B107E1F78E
S11303800E94F1190C94C41D0C9400008FB7F894CA
S1130390992708958FBF08956091E7017091E8014E
S11303A02CB53DB506B602FE04C06F5F7F4F2CB579
S11303B03DB588279927CB017727662744275527FA
S11303C0622B732B842B952B0895E6ECF0E06927C0
S11303D0660FF11DE60FF11DC895982F802D3196FB
S11303E0C89590250895880F949890E087FF02C0DF
S11303F0979A01C097989698969A9F5F973011F0B4
S1130400880FF4CF979A9698969A949A80E067FF0B
S113041002C0979A01C097989698969A8F5F8830F1
S113042011F0660FF4CF949A979A969A0895609172
S1130430660289E00E94F30160E08BE00E94F30110
S113044061E180E00E94F3018DE790E0019701965D
S11304500197E1F70895282F9FB7F894E82FFF2715
S1130460E15BFE4F80818F3F81F4E0917C02E217D3
S113047071F40BC02093710204C0FF27E15BFE4FAF
S1130480208320937C0220E007C025E005C08091F2
S113049071028F3F91F7EECF892F99278FBF822F5B
S11304A0992708952F923F924F925F926F927F9275
S11304B08F929F92AF92BF92CF92DF92EF92FF9270
S11304C00F931F93CF93DF93CDB7DEB728970FB663
S11304D0F894DEBF0FBECDBF2090DD013090DE0169
S11304E04090DF015090E0016624772488247EE464
S11304F0A72E63E8B62ECC24DD24EE24FF2400E0EE
S113050010E0222D332D442D552D662D772D882D69
S113051090E00E94C41B29833A834B835C836D83E0
S11305207E838F839887822E932EA42EB52E24014A
S1130530350100E20E94C21CA22EB32EC42ED52E79
S1130540C301B20196958795779567956A0D7B1DD2
S11305508C1D9D1D97FF05C09F776F5F7F4F8F4F49
S11305609F4F6093DD017093DE018093DF019093D0
S1130570E00128960FB6F894DEBF0FBECDBFDF9121
S1130580CF911F910F91FF90EF90DF90CF90BF908C
S1130590AF909F908F907F906F905F904F903F901F
S11305A02F9008958FB7F8949927379A8FBF80E0DA
S11305B090E0089580917402813051F0813050F0C0
S11305C0823021F0833041F478E01BC078E016C01B
S11305D078E011C078E00CC0813061F0813038F0EF
S11305E0823059F0833061F02FE170E00BC070E08D
S11305F020E008C070E023E005C070E021E002C004
S113060070E022E0622FEFB7F89480916E018E7F44
S113061080936E0187B1982F9F71829586958695F8
S1130620837019F080E090E012C0822F88508631E8
S113063018F081E090E00BC040E050E03327892FB0
S113064099272817390711F441E050E0CA01982F7F
S11306509170990F80916E018178262F2F71422F0E
S1130660440F440F892B842B80936E01332727B9C1
S1130670783059F5809172029091730221E08638A6
S1130680920718F087E090E01FC0833C910518F0B2
S113069086E090E019C08136910518F085E090E07D
S11306A013C08033910518F084E090E00DC08831C8
S11306B0910518F083E090E007C00C9718F082E0F1
S11306C090E002C080E090E0782F7770887D872BDF
S11306D0886D992786B98E2F99278FBF0895982FF3
S11306E0969596959695EAEEF1E0E90FF11D8770DF
S11306F021E030E002C0220F331F8A95E2F78081A7
S113070082239927089561EE80E00E94F3016091AD
S1130710A80189E00E94F3018AEF90E00197019615
S11307200197E1F76091E3018BE00E94F30184E11A
S113073090E0019701960197E1F70895E091020195
S1130740F091030185A19927982F882726A13327A3
S1130750822B932BCC96209105013091060147A161
S11307608217930710F4426001C04D7F47A385E0D0
S11307700E942B0285E080933B0108958FB7F89483
S113078099272BB334E023272BBB8FBF08958FB752
S1130790F89499272091740020933E028FBF089506
S11307A0EF920F931F93AE2D99E0899FF0011124CE
S11307B0E551FE4F40835183628373830483158321
S11307C026833783A17080858E7F8A2B8260808701
S11307D089E00E942B021F910F91EF9008957FB73B
S11307E0F89462B720913F0130914001409141015A
S11307F05091420106B601FE0FC081B792B7280F8F
S1130800311D411D511D2F5F3F4F4F4F5F4F290F2A
S1130810311D411D511D04C0260F311D411D511DA7
S1130820872F99278FBFCA01B90108950E94C70372
S113083080913E028E7F806980933E028093740093
S11308400895982F969596959695EFE6F1E0E90F21
S1130850F11D877021E030E002C0220F331F8A951A
S1130860E2F780818223992708950F931F93CF93F2
S1130870DF93182F8FB7F894282F3327022F8091F6
S11308802A01882331F581E080932A0110936C01B9
S11308902FBF8FB7F894C82FDD279C2F80910B01B1
S11308A08230A9F480912A01813021F48EE00E94E3
S11308B02B0209C0823059F480916C0180930B01A2
S11308C083E080932A01CFBF80E090E025C09FBFE2
S11308D0FBCF80916C01811711F42FBFF5CF812FCD
S11308E00E942104882319F085E090E014C0E12FD0
S11308F0E695E695E695FF27E159FE4F177081E0EE
S113090090E002C0880F991F1A95E2F72081282BE6
S1130910208380E090E00FBFDF91CF911F910F9172
S113092008959FB7F894292F3327422F90910B01F4
S1130930981741F480912A01833021F42FBF81E07C
S113094090E008954FBF80E090E00895982F969529
S113095096959695E9E7F2E0E90FF11D877021E09D
S113096030E002C0220F331F8A95E2F78081822390
S1130970992708950F931F93182F8FB7F894282F52
S11309803327022F80913701882399F491E09093C3
S11309903701109363022FBF80913801882321F41B
S11309A089E10E942B0202C09093390180E090E01B
S11309B023C080916302811711F42FBFF7CF812FD9
S11309C00E94A604882319F085E090E014C0E12F6A
S11309D0E695E695E695FF27E758FD4F177081E009
S11309E090E002C0880F991F1A95E2F72081282B06
S11309F0208380E090E00FBF1F910F9108958FB77F
S1130A00F89499272BB331E023272BBB8FBF08958C
S1130A10982F969596959695E9E6F2E0E90FF11DE3
S1130A20877021E030E002C0220F331F8A95E2F77D
S1130A3080818223992708950F931F93182F8FB7CE
S1130A40F894282F3327022F80912E01882399F4BC
S1130A5091E090932E01109347012FBF80913101B3
S1130A60882321F483E10E942B0202C09093320177
S1130A7080E090E023C080914701811711F42FBFDB
S1130A80F7CF812F0E940805882319F085E090E0B4
S1130A9014C0E12FE695E695E695FF27E759FD4F4B
S1130AA0177081E090E002C0880F991F1A95E2F751
S1130AB02081282B208380E090E00FBF1F910F91AD
S1130AC00895982F969596959695EEE4F1E0E90FA2
S1130AD0F11D877021E030E002C0220F331F8A9598
S1130AE0E2F78081822399270895DF92EF92FF92A3
S1130AF00F931F938FB7F894282F3327D22E91B7D3
S1130B0082B746B7981711F041FF02C02FBF6AC0E1
S1130B108091E4018823E1F10E94EF03E090410217
S1130B20F0904202009143021091440220914A0144
S1130B3030914B0140914C0150914D016E197F0948
S1130B40800B910B621773078407950720F01092AE
S1130B50E40171E01EC02E0D3F1D401F511F809106
S1130B603F0190914001A0914101B0914201281BA5
S1130B70390B4A0B5B0B273E31054105510540F407
S1130B80822F223010F070E005C070E082E002C0D5
S1130B9070E086EE682F615000B601FCFDCF82B78D
S1130BA0681709F46F5F20913F0130914001409133
S1130BB0410150914201DA01C9010196A11DB11D03
S1130BC0860F911DA11DB11D82179307A407B507B8
S1130BD010F4622F609561BFDFBE772319F088E0BF
S1130BE00E942B021F910F91FF90EF90DF900895C8
S1130BF0AFB7F894BB27E1E0E093E40160934102CE
S1130C0070934202809343029093440220934A01DA
S1130C1030934B0140934C0150934D01AFBF0E9460
S1130C2075050895EF92FF920F931F93CF93DF936F
S1130C30982F8FB7F894E82E80912401833009F01F
S1130C4045C080910701891709F040C08091EA01ED
S1130C50882309F046C03EC0EF2DE695E695E6955B
S1130C60FF274F2D5527E651FE4F9A01277030700C
S1130C7081E090E002C0880F991F2A95E2F78095E1
S1130C80208128232083C093230111C02196C430DE
S1130C90D10511F4C0E0D0E0FC2E8C2F0E946F032C
S1130CA08823D1F6C017D10789F74FEF50E040935E
S1130CB064028FEF8093070181E08093240186E032
S1130CC00E942B02EFBE80E090E011C0EFBE81E0F5
S1130CD090E00DC084E080930701109224013798BE
S1130CE0F1CF80912301082F1127E801CFCFDF91A5
S1130CF0CF911F910F91FF90EF90089591E0909301
S1130D00E201809374020E94DA0280E090E0089588
S1130D10AF92BF92CF92DF92EF92FF920F931F9305
S1130D20F82E5A016B010E94EF03AB01BC01EE24C3
S1130D30960185018F2D0E94D0031F910F91FF9082
S1130D40EF90DF90CF90BF90AF9008956FE380E075
S1130D500E94F30160E08BE00E94F301089582E0B9
S1130D6080933B0110923D0210923C020E941702B4
S1130D70BB98BA9880EC8DB9B898089566EA8EE06D
S1130D800E94F30194988CE120E030E087FF02C0D8
S1130D90979A01C097989698969A2F5F3F4F27305D
S1130DA0310511F0880FF2CF97989698969A8F98FC
S1130DB0949A80E096989927879B04C0880F991F7E
S1130DC0816001C0880F969A215030409FEF2F3FD9
S1130DD0390781F7949A8F9A979A83FFD3CF66E263
S1130DE08EE00E94F30108951F920F920FB60F92A6
S1130DF011248F9383B783BF00B600FCFDCF8F917E
S1130E000F900FBE0F901F90189578941F920F9219
S1130E100FB60F9211240F900FBE0F901F901895CC
S1130E2078941F920F920FB60F9211240F900FBE59
S1130E300F901F90189578941F920F920FB60F92EF
S1130E4011240F900FBE0F901F90189578941F9245
S1130E500F920FB60F9211248F939F9386B597B577
S1130E609F918F910F900FBE0F901F9018957894BB
S1130E701F920F920FB60F9211242F933F938F93CB
S1130E809F932FB7F89433278091E7019091E8015D
S1130E9001969093E8018093E7012FBF9F918F9172
S1130EA03F912F910F900FBE0F901F9018951F9296
S1130EB00F920FB60F9211240F900FBE0F901F9038
S1130EC018951F920F920FB60F9211240F900FBE18
S1130ED00F901F9018951F920F920FB60F92112426
S1130EE00F900FBE0F901F9018951F920F920FB680
S1130EF00F9211240F900FBE0F901F9018951F9200
S1130F000F920FB60F9211240F900FBE0F901F90E7
S1130F1018951F920F920FB60F9211240F900FBEC7
S1130F200F901F9018951F920F920FB60F921124D5
S1130F300F900FBE0F901F9018951F920F920FB62F
S1130F400F9211240F900FBE0F901F9018951F92AF
S1130F500F920FB60F9211242F933F934F935F93E9
S1130F606F937F938F939F93AF93BF93EF93FF936D
S1130F7083B783BF00B600FCFDCF81B799270196E4
S1130F80AA27BB2720913F013091400140914101A4
S1130F9050914201280F391F4A1F5B1F20933F01C4
S1130FA030934001409341015093420178940E9450
S1130FB07505FF91EF91BF91AF919F918F917F91B3
S1130FC06F915F914F913F912F910F900FBE0F90B2
S1130FD01F901895CF93DF938FB7F894C82FDD2710
S1130FE09C2F809107018430A9F4809124018130E1
S1130FF021F486E00E942B0209C0823059F48091CA
S113100064028093070183E080932401CFBF80E0D2
S113101090E003C09FBF81E090E0DF91CF910895FD
S11310200F931F93182F8FB7F894282F3327022F6D
S113103080912401882359F481E080932401109342
S113104064022FBF0E94D2020E94EA0705C0809169
S11310506402811721F42FBF80E090E01DC0812F2E
S11310600E946F03882319F085E090E014C0E12FFB
S1131070E695E695E695FF27E651FE4F177081E069
S113108090E002C0880F991F1A95E2F72081282B5F
S1131090208380E090E00FBF1F910F910895982F57
S11310A080913301833009F047C080911001891782
S11310B009F042C080910E0120E030E08F3F11F42E
S11310C021E030E0232BF9F48F3F19F42FEF30E0C7
S11310D00EC0282F3327F901EC58FE4F80818093EE
S11310E00E018F3F11F480930F018FEF80832093C3
S11310F03C018FEF8093100181E08093330187E1FD
S11311000E942B0216C081E08093100110923301DB
S113111080913401813069F40E94C70380913E02BA
S11311208A7680933E0280937400909891981092EE
S1131130340180E090E0089581E090E00895EF921A
S1131140FF920F931F93CF93DF93982F8FB7F89449
S1131150E82E80912A01833009F045C080910B016B
S1131160891709F040C080916F01882309F045C0B8
S11311703EC0EF2DE695E695E695FF274F2D5527C2
S1131180E159FE4F9A012770307081E090E002C06F
S1131190880F991F2A95E2F78095208128232083C0
S11311A0C093290111C02196C230D10511F4C0E0C9
S11311B0D0E0FC2E8C2F0E9421048823D1F6C01786
S11311C0D10789F74FEF50E040936C018FEF809384
S11311D00B0181E080932A018EE00E942B02EFBE76
S11311E080E090E010C0EFBE81E090E00CC082E0AF
S11311F080930B0110922A01F2CF80912901082FCC
S11312001127E801D0CFDF91CF911F910F91FF906B
S1131210EF9008951F93CF93DF93FA01422F8683B3
S11312206183672F772760832FB7F89433278091E2
S11312300801909109012FBF8383892F9927828305
S113124082E285838FB7F894282F332790913A014F
S113125091FD04C080913B01882321F42FBF81E0DC
S113126090E068C0EF01A596926090933A014483A0
S1131270F0937F02E0937E0210A614A613A612A692
S113128080E881A72FBF1FB7F89480916502826020
S11312908093650280912201843019F482E00E94D7
S11312A02B028091650280FD0BC00E9452026F7177
S11312B070706F5F7F4F709346026093450206C063
S11312C081E090E0909346028093450288812981D1
S11312D09927782F66273327622B732B77FD05C058
S11312E0609148017091490102C06095709519821E
S11312F018826115710529F466E070E080E090E0E1
S113130010C08827992726E632E040E050E00E948A
S1131310451D672F782F892F99276A5E7F4F8F4F3E
S11313209F4F7093700260936F02812F99278FBF34
S113133080E090E0DF91CF911F910895FB018183BC
S1131340892F9927808383E986838091E501909191
S1131350E601892B19F085E090E008957093E60189
S11313606093E501448380911301882319F480E09C
S113137090E00895868160817727762F6627218102
S11313803327622B732B10921301242FAF010E9479
S11313900A099927282F882339F081E080931301C3
S11313A01092E6011092E501822F992708950F9378
S11313B01F93182F042FE82FFF27EE0FFF1FEB5169
S11313C0FE4F1182108210921301E091E501F09119
S11313D0E601309721F08091750280FF10C081E012
S11313E08093130103C08CE10E942B021123C1F4EA
S11313F0002311F00E94BE031092D80111C0248171
S1131400332760817727762F662781819927682B78
S1131410792BAF0186810E940A09882339F3E3CF2F
S11314201F910F9108950E94C70380913E028A7F05
S113143080933E02809374000E94C70380913E0211
S1131440846080933E028093740081E08093340131
S113145080913501882349F480911101882329F46E
S11314600E94160480E00E944F0808951F93982F4D
S1131470809104018430C9F4909304018091240183
S1131480882379F412E010932401109264020E94DC
S1131490D2020E94EA0780910701882349F0109242
S11314A0240180E00E94100809C09093760206C0CF
S11314B01093E201109274020E94DA0280E090E03C
S11314C01F9108950F931F936BE380E00E94F30133
S11314D080ED97E0019701960197E1F769E380E0D9
S11314E00E94F30188EC90E0019701960197E1F7DF
S11314F00FB7F89411270E94AF060FBF1F910F91E9
S1131500089580912201823069F48091040184302D
S113151019F085E08093040181E08093220180E04A
S11315200E942B0208951F920F920FB60F9211245E
S11315306F927F928F929F92AF92BF92CF92DF92DF
S1131540EF92FF920F931F932F933F934F935F93C9
S11315506F937F938F939F93AF93BF93CF93DF93B7
S1131560EF93FF931FB1809178028FB960913A0194
S113157062FD109580913B01883009F444C08930A4
S113158098F4843009F456C2853038F4823009F472
S113159070C1833009F01FC3B7C1863009F4EBC2B0
S11315A0873009F018C315C08B3009F4DBC08C30C8
S11315B030F48930A9F18A3009F00DC3C5C08D30EB
S11315C009F40FC18D3008F4ECC08E3009F003C368
S11315D03AC1809143018093780280913C029091BA
S11315E03D02019690933D0280933C0220916F024C
S11315F0309170028217930708F4EDC283E380935D
S1131600430188E0E6C280914301809378028CEC28
S11316108093430189E080933B018FEF9FEF57C292
S1131620C0917E02D0917F022091430120937802E1
S113163080913C0290913D02019690933D028093EB
S11316403C022C3C09F05CC00E94CC013B014C01E3
S1131650E0917E02F0917F0264A7BB27A92D982D0B
S1131660872D83A7C401AA27BB2782A7892D992781
S1131670AA27BB2781A7E0917E02F0917F0280A573
S11316808823F1F184818D5FE80FF11D2081E180D1
S11316908281A3809927AA27BB27BA2FA92F982F25
S11316A08827332744275527522F442733272227B7
S11316B0FF24002711278701FF24EE242E293F2928
S11316C0402B512BBB24CC24DD242A293B294C2933
S11316D05D29822B932BA42BB52B86199709A80976
S11316E0B9098383292F3A2F4B2F552722839D0134
S11316F04427552721838B2F9927AA27BB2780832B
S1131700E0913C02F0913D028C8199270796E817FD
S1131710F907A0F480917E0290917F02E80FF91FEF
S113172060816093430180914501909146010E943C
S1131730E50190934601809345014DC28091450196
S1131740809343018AE045C28091430180937802EB
S11317508091450190914601892F992780934301F7
S11317608BE013C0809143018093780280913C0206
S113177090913D02019690933D0280933C02049720
S113178008F429C260FF08C08CE080933B011092EA
S11317903D0210923C021FC2BB98BA980E941702E5
S11317A017C2809143018093780280913C0290910A
S11317B03D02019690933D0280933C028130910555
S11317C029F4BB98BA980E94170205C2049708F43A
S11317D002C28DE080933B0110927B0210927A0248
S11317E0D6CF809143018093780280913C029091FE
S11317F03D02019690933D0280933C0280917A02CF
S113180090917B0220E0880F991F17FD81603AEBCD
S11318108338930709F4D1C12F5F283011F0110FD9
S1131820F2CF90937B0280937A0280913C02909154
S11318303D02429708F4CFC1E0917E02F0917F020D
S113184087A18E7FC4C184E00E942B02809165022F
S11318508D7F8093650280910401843019F085E0C6
S11318608093040181E08093220180E00E942B0296
S1131870B2C11A3A19F0153509F099C180913C02A8
S113188090913D02019690933D0280933C02039710
S113189058F083E080933B0110923D0210923C0289
S11318A010927B0210927A0291E08091650281FF8E
S11318B092C180FD0DC0992359F00E9452026F70AD
S11318C070706F5F7F4F709346026093450283C1CF
S11318D08091450290914602009709F47CC10197DA
S11318E09093460280934502892B09F074C180913C
S11318F00401843019F085E08093040110926E0293
S113190082E00E94360A67C11A3A11F0153529F4AB
S1131910812F9927982F882714C080913C02909199
S11319203D02019690933D0280933C0281309105E3
S113193069F4212F332780917A0290917B02822BC4
S1131940932B90937B0280937A0245C1079708F00A
S11319506FC00E94CC013B014C01C0917A02D0912E
S11319607B029C2F8827212F3327822B932B909344
S11319707B0280937A0207E0CC0FDD1F17FDC16064
S113198083E3CC3CD80709F04DC0E0910201F0910B
S1131990030184E080933B018CE1848310923D0237
S11319A010923C021092460110924501809104016C
S11319B0843019F085E08093040182E08093220151
S11319C0802F8770880F880F880FE0913A01E77C99
S11319D0E82BE0933A01E695E695E695E770FF2754
S11319E0EC5EFE4F8081992787FD9095A92FB92F32
S11319F0681A790A8A0A9B0AE0910201F0910301AC
S1131A0064A6BB27A92D982D872D83A7C401AA27D7
S1131A10BB2782A7892D9927AA27BB2781A780E006
S1131A200E94360A01500F3F09F4D5C0110FA4CF0C
S1131A3082E0ABCEE0910201F091030144814D318B
S1131A4050F082E080933B0110923D0210923C02E0
S1131A500E94810AC0C080917A0290917B02982FE3
S1131A608827212F3327822B932B90937B028093FB
S1131A707A02669566956695677002C09695879515
S1131A806A95E2F7BC0180913C0290913D02E80F17
S1131A90F91F60834C010894811C911C90923D02B3
S1131AA080923C02495F642E77246814790450F0D4
S1131AB080914501909146010E94E5019093460171
S1131AC0809345018614970439F483E290E090935F
S1131AD03D0280933C027FC035E28316910409F0F5
S1131AE07AC0E0910201F091030184A123A140E0B6
S1131AF050E09927982F88273327822B932B209106
S1131B004501309146018217930711F441E050E0FA
S1131B10242F43A3852F9927482F84A380913A012A
S1131B2080FF39C0842F9927982F88273327822B49
S1131B30932B892B81F1808141812FB7F89433272E
S1131B4060910801709109012FBF9927982F882768
S1131B505527842B952B86179707E9F486E0809305
S1131B603B0110923D0210923C020E948303BB9AF7
S1131B70BA9A8AEA19C0E0913C02F0913D0231968A
S1131B80F0933D02E0933C02E031F10538F00E940D
S1131B901702BB98BA980E949E031DC0EB30F10552
S1131BA0D0F0EF53FD4F84918093780214C01092CB
S1131BB03D0210923C0290E078CE90937B02809399
S1131BC07A02E0917E02F0917F0287A1816087A36F
S1131BD08EE080933B01FF91EF91DF91CF91BF9114
S1131BE0AF919F918F917F916F915F914F913F91B1
S1131BF02F911F910F91FF90EF90DF90CF90BF90A6
S1131C00AF909F908F907F906F900F900FBE0F902A
S1131C101F9018951F920F920FB60F9211241F93C5
S1131C202F933F934F935F936F937F938F939F93E0
S1131C30AF93BF93CF93DF93EF93FF93C4B1D5B129
S1131C4078948FB7F894992720916E01322F3695A6
S1131C50317021708FBF222309F0E0C03398809146
S1131C60E201813021F0823009F0FEC00AC0332342
S1131C7051F0D0934002C0933F0287E00E942B02B0
S1131C80F3C0332319F40E94DA02EEC01092E20189
S1131C9080917402882309F0E7C01FB7F8948091FB
S1131CA00401813089F0813030F08230B1F083302A
S1131CB009F09CC056C0E0910201F0910301C6A353
S1131CC08D2F992785A392C0D0937701C093760175
S1131CD083E00E942B0282E069C020916E022F5F94
S1131CE020936E0280910501909106010C968C1749
S1131CF09D0740F4809175018F5F8093750188235F
S1131D0039F402C0109275018091650280FF18C0F9
S1131D1083E08093220187E080933B0110923D028F
S1131D2010923C0210924601109245018AEA809377
S1131D304301809378020E948303BB9ABA9A56C0E7
S1131D40253059F40E9452026F7070706F5F7F4F9C
S1131D50709346026093450249C082E00E94360AAD
S1131D6045C080910501909106019C013695279507
S1131D7036952795821B930B8C179D07D0F482E030
S1131D800E942B0280910501909106019C0143E081
S1131D90369527954A95E1F7820F931FC817D907FF
S1131DA028F5D0937701C093760183E00E942B023B
S1131DB01DC080916E028F5F80936E0281508630C9
S1131DC060F085E08093040181E08093220180E04B
S1131DD00E942B020E94AF0609C083E00E94360ACB
S1131DE080E590E0019701960197E1F780917602F2
S1131DF080930401843059F084E08093760282E079
S1131E008093E201109274020E94DA0203C080E01F
S1131E100E941206812F99278FBF26C08FB7F8948E
S1131E2099278FBF2FB7F894332786B1582F57704F
S1131E30482F4072987D942B952B8074977B982B18
S1131E4090619F77892F992786B9887D842B852B6C
S1131E5087738061992786B9887D842B852B877B3E
S1131E608069992786B92FBFFF91EF91DF91CF91B8
S1131E70BF91AF919F918F917F916F915F914F919E
S1131E803F912F911F910F900FBE0F901F901895A7
S1131E901F920F920FB60F9211242F933F934F93DB
S1131EA05F936F937F938F939F93AF93BF93EF93BE
S1131EB0FF930E94C70380913401843009F4C7C0A2
S1131EC0863021F0833009F0EFC03EC0909171005C
S1131ED0987F80913501813041F4903499F583E005
S1131EE0809334012091680244C0983159F583E00D
S1131EF0809334019091680280913E0120913E02CA
S1131F00981708F472C0922F9E7F90933E0280919E
S1131F107D0281FF07C08D7F80937D029061909345
S1131F203E0203C02E7720933E0280913E028093AE
S1131F30740081E08093340180911101882309F0B9
S1131F40B3C07FC084E098C080913501909168024D
S1131F50813009F044C0E0917201F0917301E90FFE
S1131F60F11D809173008083209168022F5F20937C
S1131F70680280913E012817A0F43327992701971E
S1131F802817390749F480917D0282FD05C08091AC
S1131F903E028F7B80933E0280913E0280937400C8
S1131FA083C090913E02292F2E7F20933E02809180
S1131FB07D0281FF09C08D7F80937D022061209383
S1131FC03E028091710003C09E7790933E028091FF
S1131FD03E028093740081E08093340165C0809157
S1131FE03E0120913E02981778F4E0917201F0913D
S1131FF07301E90FF11D8081809373009F5F9093BB
S113200068022093740050C0922F9E7F90933E02EA
S113201080917D0281FF07C08D7F80937D02906156
S113202090933E0203C02E7720933E0280913E029D
S11320308093740081E0809334018091110188239E
S113204099F50E94160480E00E944F082DC08091EB
S11320507D028E7F80937D0290913E029F7D9093BE
S11320603E0280917100887F883049F08091710030
S1132070887F803121F081E00E94130A15C0392F36
S1132080306430933E029091DA01990F20E0809100
S11320903501813009F421E0922B9093730086E09E
S11320A08093340130937400FF91EF91BF91AF910D
S11320B09F918F917F916F915F914F913F912F915C
S11320C00F900FBE0F901F901895EF920F931F93D0
S11320D0A49AAC9A0E94EF03AB01BC01E1E0EE2E9E
S11320E001E110E020E030E085E00E94D00380E0D0
S11320F090E01F910F91EF900895EF920F931F932B
S113210089B78F7789BFA39AAB9AA69AAE98AE9AED
S113211080910D0110927001809371018FB7F89432
S1132120282F3327922F80913301882309F045C04B
S1132130A1E0EA2EE092330110923C012FBF8FB749
S1132140F894082F1127809134018823C9F4909AB8
S1132150919A889889981092710081E48093700014
S113216010927200109274000E94C70380913E0284
S113217084608E7F80933E0280937400E0923401E9
S11321800FBF8FB7F894082F1127902F809110015B
S1132190813059F580913301813021F487E10E9427
S11321A02B0209C0823009F580913C018093100113
S11321B083E0809333010FBF1FC080913C018823CB
S11321C011F42FBF19C0809174018F3F71F4E09115
S11321D00F01EE2351F00BC010920E0104C0FF2733
S11321E0EC58FE4F108210920F019FBF05C08091E2
S11321F00E018F3FA1F7F0CF0E94EF03AB01BC01AA
S1132200F1E0EF2E00EB14E020E030E087E00E94E4
S1132210D00380E090E01F910F91EF900895AF926A
S1132220BF92CF92DF92EF920F931F935B016C01E9
S11322300E94EF03AB01BC01B1E0EB2E96018501D6
S113224080E00E94D0031F910F91EF90DF90CF9018
S1132250BF90AF90089580912201843061F1853060
S113226019F1813081F58091F30181FD2CC090E05A
S1132270809144018F3108F091E0992381F080919D
S1132280480190914901892B29F460E07AE080E0CB
S113229090E00EC06EE170E080E090E009C060E87C
S11322A070E080E090E004C061E070E080E090E0E5
S11322B00E940F1108956091480170914901882787
S11322C099270E940F110895AF92BF92CF92DF9287
S11322D0EF92FF920F931F93CF93DF935B016C01F7
S11322E0C0E0D0E0EBEEF1E0608561FF64C22081E4
S11322F0318142815381E480F58006811781D601C2
S1132300C501821B930BA40BB50B8E159F05A0076B
S1132310B10708F450C260FF03C06D7F608708C036
S11323202E0D3F1D401F511F208331834283538351
S1132330C43009F403C1C53048F4C23009F44DC0B7
S1132340C33008F0BAC0CC2371F03BC2C63009F4E4
S113235079C1C63008F43AC1C73009F4F2C1C830B3
S113236009F02FC226C28FB7F894C82FDD271C2F7F
S1132370809122018430B9F08530F9F0813049F53B
S113238090E080913B01833009F491E0992309F5B1
S113239080910401843019F085E08093040181E088
S11323A00E94360A16C085E08093220110926E02C4
S11323B069E380E00E94F3010CC00E94170283E0ED
S11323C00E94360A80E590E0019701960197E1F7B3
S11323D02CC10E942B111FBFF4C18091DC018A30F3
S11323E009F03FC080912101882311F18091D80127
S11323F08823E1F4A0E8B1E0E7E4F2E08CE10190A5
S11324000D928150E1F74CE169E771E08FEF9FEFA6
S11324100E949E09882321F481E08093D80106C09C
S11324208091D801882311F40E94BE0310922101E7
S11324301092DC0180917702882389F480914D0207
S11324409927982F882720914E023327822B932B8C
S1132450019680934E02892F992780934D02109202
S113246077028FB7F894282F3327122F80912601F3
S1132470882389F491E0909326011092D9012FBF0B
S113248080912701882321F48CE00E942B0298C0BC
S11324909093280195C08091D901882311F42FBF0E
S11324A08FC080E00E946105882329F480914E0149
S11324B0816080934E011FBF83C08091DC018A300C
S11324C0C9F58091D8018823E1F4A0E8B1E0E7E4FC
S11324D0F2E08CE101900D928150E1F74CE169E763
S11324E071E08FEF9FEF0E949E09882321F481E021
S11324F08093D80106C08091D801882311F40E94EA
S1132500BE031092DC0180917702882389F48091C4
S11325104D029927982F882720914E023327822B2A
S1132520932B019680934E02892F992780934D0215
S11325301092770280E00E941C0540C08091DC016B
S11325408A30C9F58091D8018823E1F4A0E8B1E08C
S1132550E7E4F2E08CE101900D928150E1F74CE167
S113256069E771E08FEF9FEF0E949E09882321F4B1
S113257081E08093D80106C08091D801882311F4AA
S11325800E94BE031092DC0180917702882389F4B3
S113259080914D029927982F882720914E02332746
S11325A0822B932B019680934E02892F9927809337
S11325B04D021092770280E00E94BA04882319F039
S11325C00E94BE03FEC00E94FF04FBC09FB7F894A4
S11325D020912601222319F421E030E00FC08091DC
S11325E00A01813019F020E030E008C040E050E0FA
S11325F02150223010F441E050E09A01892F9927AC
S11326008FBF222309F4DDC08FB7F894C82FDD27CC
S11326109C2F80910A01813009F0C9C08091260164
S1132620813029F48BE00E942B02CFBFCAC08230D4
S113263009F0BDC08091D90180930A0183E08093A1
S11326402601F3CF80E00E949104882309F43AC064
S11326509FB7F89420912B01222319F421E030E054
S11326600FC080912C01882319F020E030E008C0CD
S113267040E050E02150223010F441E050E09A0153
S1132680892F99278FBF2223E9F08FB7F894C82F99
S1132690DD279C2F80912C01882399F480912B01B4
S11326A0813021F48FE00E942B0209C0823049F46A
S11326B08091E90180932C0183E080932B01CFBFAB
S11326C001C09FBF81E00E949104882309F479C06E
S11326D09FB7F89420912E01222319F421E030E0D1
S11326E00FC080910C01813019F020E030E008C067
S11326F040E050E02150223010F441E050E09A01D3
S1132700892F99278FBF222309F45BC08FB7F894D0
S1132710C82FDD279C2F80910C01813009F047C020
S113272080912E01813011F480E17DCF823009F057
S11327303EC08091470180930C0183E080932E0179
S113274074CF9FB7F89420913701222319F421E024
S113275030E00FC080911201813019F020E030E0A8
S113276008C040E050E02150223010F441E050E035
S11327709A01892F99278FBF222319F18FB7F894D3
S1132780C82FDD279C2F80911201813081F4809124
S11327903701813011F488E146CF823041F48091D1
S11327A063028093120183E0809337013ECF9FBF81
S11327B008C0AA9806C021963996C930D10509F0F7
S11327C093CD89E00E942B02DF91CF911F910F914D
S11327D0FF90EF90DF90CF90BF90AF9008959F92BD
S11327E0AF92BF92CF92DF92EF92FF920F931F931B
S11327F0CF93DF93CDB7DEB762970FB6F894DEBF01
S11328000FBECDBFE82FFF27ED31F10508F0BAC5A3
S1132810EA5BFF4FEE0FFF1F0590F491E02D099442
S113282080917502882309F4ADC520E011E050C5FC
S11328300FB7F89411270E942B11DBC08FB7F894BF
S11328409927209122018FBF222309F49BC548EECA
S113285053E060E070E082E00E9488061092DC01A0
S113286091C51FB7F8948091650281FD06C08091DF
S1132870480190914901892BA1F48091220184504F
S1132880823098F580910401843019F085E08093BA
S1132890040181E08093220180E00E942B0221E068
S11328A025C090E0809144018F3108F091E0992394
S11328B0E1F090E080913B01833009F491E09923A9
S11328C0A1F40E94A60681E080933B016F98B89A18
S11328D0C09880910401843019F085E0809304014C
S11328E084E0809322010E942B1120E0812F9927FC
S11328F08FBF222309F446C50E94620A43C58FB7DD
S1132900F894992720917601309177018FBF8091B7
S11329103D01E82FFF27EE0FFF1FE058FD4F3183E5
S113292020838F5F80933D01893010F010923D0128
S1132930809144018F3118F48F5F80934401DE014C
S11329401196E0E8F2E082E101900D928150E1F706
S113295060E08E010F5F1F4F41E050E0DE011396EF
S1132960E52FFF27EE0FFF1FE00FF11F2D913C9184
S11329701197808191818217930708F4542F4F5F38
S11329801296493069F7E52FFF27633041F0EE0FC7
S1132990FF1FE00FF11F118210826F5FDDCF609186
S11329A005017091060188279927B5E0660F771F06
S11329B0881F991FBA95D1F7EE0FFF1FE00FF11F83
S11329C02081318144275527220F331F441F551F6F
S11329D0620F731F841F951F0FB7F894112722E20B
S11329E030E040E050E00E94641D309306012093E3
S11329F005010FBFC7C42FB7F894332740917E0257
S1132A0050917F0280913A018D7F80933A0182E058
S1132A1080933B0110923D0210923C022FBF8091A3
S1132A201301882309F0AEC46091E5017091E601B9
S1132A306417750709F0A6C440E074C48FB7F8940E
S1132A40282F332780913B01853009F013C400916E
S1132A500201109103012FBFF80184A123A199273A
S1132A60982F88273327822B932B019709F078C05E
S1132A70808141812FB7F8943327609108017091C8
S1132A8009012FBF9927982F88275527842B952B29
S1132A908617970761F0808121819927982F8827CD
S1132AA03327822B932B8F5F9F4F09F059C0F80176
S1132AB08681833909F054C00E94FF04F80187819C
S1132AC020859927582F44273327422B532B809155
S1132AD047029927982F8827209148023327822B71
S1132AE0932B84179507E8F440934802852F992780
S1132AF080934702818522859927982F8827332739
S1132B00822B932B80934A02892F99278093490221
S1132B1048EE53E060E070E082E00E948806109284
S1132B20DC01F801858526859927582F442733270A
S1132B30422B532B80914D029927982F882720915F
S1132B404E023327822B932B8417950748F4409326
S1132B504E02852F992780934D0281E0809377025E
S1132B60FFB6F8940115110521F0109303010093A9
S1132B70020180913B01853039F482E080933B016E
S1132B8010923D0210923C020E94810A8F2D9927D7
S1132B909CC38FB7F894992720916402209307016E
S1132BA023E0209324018FBF80910701813081F0BD
S1132BB0813030F0823071F0833009F0E3C30EC00D
S1132BC082E08093E201109274020E94DA02DAC376
S1132BD081E001C082E00E947E06D4C383E0FBCF83
S1132BE01092E201A0903F02B090400280917402E2
S1132BF0823039F0833049F0813059F40E94120652
S1132C0011C082E00E941206BEC083E00E94120638
S1132C1021C1823009F4B7C0833009F41BC181306B
S1132C2009F0B0C38FB7F894C82E80912601833081
S1132C3009F041C080910A018823E9F580914E0191
S1132C40882309F07BC371C3ED2DE695E695E695DF
S1132C50FF274D2D5527E25BFE4F9A0127703070F8
S1132C6081E090E002C0880F991F2A95E2F78095D1
S1132C702081282320830093250112C00F5F1F4F5A
S1132C800130110511F400E010E0D02E802F0E94D5
S1132C9061058823C9F60E151F0581F74FEF50E033
S1132CA04093D9018FEF80930A0181E0809326013C
S1132CB08BE00E942B02CFBEE091DC01EA3050F59C
S1132CC08E2F8F5F8093DC01FF27EE0FFF1FE15BE8
S1132CD0FD4FA1822B2D33272083950144275527AF
S1132CE0823080F080911D0190911E01A0911F01FE
S1132CF0B0912001280F391F4A1F5B1F5695479535
S1132D003795279520931D0130931E0140931F0191
S1132D10509320018091DC018A3011F580911D01CE
S1132D2090911E01A0911F01B0912001815B9140FF
S1132D30A040B0400A97A105B10540F480911C0160
S1132D408F3F31F08F5F80931C0102C010921C01F1
S1132D5010921D0110921E0110921F011092200169
S1132D6080911C01833008F40DC380E00E941C058F
S1132D70882309F06CC08FB7F89499272BB332E0FD
S1132D8023272BBBA2C280E00E94910481E00E9411
S1132D909104882309F4F6C29090E1018FB7F89466
S1132DA0C82E80912E01833009F041C080910C011E
S1132DB08915E9F580916902882309F0CEC2C4C25D
S1132DC0ED2DE695E695E695FF274D2D5527E75918
S1132DD0FD4F9A012770307081E090E002C0880FA7
S1132DE0991F2A95E2F78095208128232083009358
S1132DF02D0112C00F5F1F4F0130110511F400E0C7
S1132E0010E0D02E802F0E9408058823C9F60E15E5
S1132E101F0581F74FEF50E0409347018FEF8093F8
S1132E200C0181E080932E0180E10E942B02CFBE31
S1132E30992009F0A7C2F3E0AF16F2E0BF0608F448
S1132E40A1C280E00E94BA04882309F49BC20E94B4
S1132E50BE0398C28FB7F894C82E8091370183308F
S1132E6009F041C0809112018823E9F5809179022B
S1132E70882309F081C277C2ED2DE695E695E695A3
S1132E80FF274D2D5527E758FD4F9A0127703070C5
S1132E9081E090E002C0880F991F2A95E2F780959F
S1132EA02081282320830093360112C00F5F1F4F17
S1132EB00130110511F400E010E0D02E802F0E94A3
S1132EC0A6048823C9F60E151F0581F74FEF50E0BD
S1132ED0409363028FEF8093120181E08093370166
S1132EE088E10E942B02CFBE2EE33EEFA20EB31E5A
S1132EF035E6A316B10408F445C20E94FF0480918C
S1132F003B0281FF2AC0E0903702F0903802009122
S1132F10390210913A020E94EF039B01AC018091A7
S1132F20330290913402A0913502B0913602281BED
S1132F30390B4A0B5B0B2E153F054007510768F40C
S1132F40E21AF30A040B150B45EFE41641E0F4060C
S1132F5040E0040740E0140778F40E94EF03AB015B
S1132F60BC01A1E0EA2E04EF11E020E030E088E0AB
S1132F700E94D003A29AAA9A81E08093210102C2FE
S1132F8080916D01882361F520916A0230916B0272
S1132F9040916C0250916D02EFB7F894FF27609155
S1132FA04102709142028091430290914402E09068
S1132FB04A01F0904B0100914C0110914D016E0DAE
S1132FC07F1D801F911FEFBF20936A0230936B0215
S1132FD040936C0250936D0210926D010E94F805AB
S1132FE00E94EF0343C00E94EF035B016C018FB7A3
S1132FF0F89499271092E4018FBFFFEFEF2EFFEFB3
S1133000FF2EFFEF0F2FFFE71F2F60E0EBEEF1E045
S1133010808581FF1CC080819181A281B381A6013A
S11330209501281B390B4A0B5B0BDA01C90124817A
S1133030358146815781281B390B4A0B5B0B2E15B2
S11330403F05400751071CF479018A0161E0399674
S113305032E0EC33F307E1F6662309F493C11E145E
S11330601F04100611062CF0C601B5010E9464115C
S113307089C1E0926A02F0926B0200936C02109391
S11330806D0281E080936D01A8019701C601B5012D
S11330900E94F80577C1AC9880912801813011F421
S11330A00E9465108FB7F894992710922801109206
S11330B027010BC12FB7F89433278091D90180934E
S11330C00A0183E0809326012FBF80910A0188239F
S11330D009F058C181E0E1C00E94651053C18AE043
S11330E04FC08FB7F894992720916C0120930B015E
S11330F023E020932A018FBF80910B01882321F0C4
S1133100813009F03FC103C0159A1D9A02C0A09AEC
S1133110A89A0E94EF03AB01BC01E1E0EE2E0AE0A5
S113312010E020E030E086E00E94D0032BC18FB78E
S1133130F89499272091E90120932C0123E020930E
S11331402B01C3C02FB7F894332780914701809394
S11331500C0183E080932E012FBF80910C0180939A
S1133160E10182E09AC080E005C01D98159885E1D0
S113317007C081E00E94350405C1A898A09886E1A3
S11331800E942B02FFC080E00E949F0880913001C2
S1133190813019F480E00E9435048FB7F8949927A0
S11331A01092300110922F0190C081E00E949F087C
S11331B080913201813011F40E9435048FB7F89464
S11331C0992710923201109231017FC02FB7F894E1
S11331D0332780913C018093100153E050933301D5
S11331E02FBF209110018FB7F894992720931101D4
S11331F08FBF222309F0C6C08FB7F894282F332736
S113320080911101882309F035C02FBF8FB7F8943E
S1133210992720913401213009F057C042E04093AE
S113322034018FBF2FB7F89433278DE290E0909349
S1133230DB018093DA0180E791E09093730180933E
S1133240720140933E0150937D02109268021092E5
S113325035012FBF0E94C7032FB7F89433278091FD
S11332603E028F7E816E80933E0294E090933401FF
S1133270809374002FBF86C02FB7F89433278091B2
S113328063028093120183E0809337012FBF809102
S11332901201882309F076C083E00E94100872C0EE
S11332A00E947D106FC089B78F7789BFAB98A398B0
S11332B080913901813011F40E947D108FB7F89408
S11332C0992710923901109238018FBF5BC0110FFA
S11332D090917502812F8923B1F0E22FFF27EE0F21
S11332E0FF1FEB51FE4F11821082812F809598238E
S11332F090937502222339F40E94BE031092D801E0
S1133300110F21E0E5CF2F5F283008F33BC08091F7
S11333101301E82FFF27EE0FFF1FEB51FE4F6081D3
S1133320718141E00E94D7092DC081E080930A0198
S113333010922601809327018DE0BBCC809125015A
S1133340E82EFF2487019ACC81E080930C0110922F
S11333502E018093310184E168CD80912D01E82E06
S1133360FF24870147CD81E0809312011092370139
S1133370809338018AE1B5CD80913601E82EFF248F
S1133380870194CD62960FB6F894DEBF0FBECDBF11
S1133390DF91CF911F910F91FF90EF90DF90CF902D
S11333A0BF90AF909F900895809171028F3FB1F0CC
S11333B0282F3327F901E15BFE4F8081809371024E
S11333C08F3F11F480937C028FEF80832F3F31F085
S11333D0822F0E94EF1381E090E0089580E090E056
S11333E00895FF920F931F93CF93DF93FFB6F89442
S11333F04DE150E06FEF70E08FE491E00E94BD1D5D
S11334008FEF8093710280937C0281E08EBD88E00F
S113341080BF83E083BF8CB59DB54AE72CB53DB52D
S11334202817390708F44150442311F0C901F6CF95
S113343092B782B78917E9F32CB53DB592B782B735
S11334408917E9F38CB59DB5821B930B409665E013
S1133450969587956A95E1F790937302809372022B
S113346013BE83B78EBD8EB580BF12BE1DBC1CBCFF
S11334708FEF86BF86B780937C0080B799278770CB
S11334809070892BD1F7D29AD19AD09ADA9AD99A94
S1133490D89A15BA8FEF84BBD498DC981DBC1CBC99
S11334A087B7846087BF8EB5887F84608EBD16B869
S11334B0D6988C9A8E9A8F9A949A979A969A6FE342
S11334C080E00E94F30160E08BE00E94F301B99870
S11334D0BF98BB98BA980E94D4198823E1F7109238
S11334E079028FEF809374011092690210926F0138
S11334F010924E0180B7886080BF8BE083BF86EE58
S113350081BF87B7826087BF0E94750580910001E3
S1133510909101010196AA27BB278093DD01909326
S1133520DE01A093DF01B093E0011092EA018091E3
S11335303A01816080933A016B986A986F9A6E9A07
S11335406AE380E00E94F3016BE380E00E94F301F0
S113355080ED97E0019701960197E1F780E8809369
S1133560E30160E88BE00E94F30160E984E00E94DB
S1133570F30160E08FE00E94F3016FE680E10E94B6
S1133580F30165E581E10E94F30161E083E10E94BA
S1133590F30101E010E0CAEFD2E0FE016491802F54
S11335A00E94F3010F5F1F4F21960D301105A9F7FB
S11335B0CBE0D3E0FE01649182E10E94F3012997FC
S11335C0FE018491809366022A96FE018491809381
S11335D0A8012897FE0184918093E30160E08BE0C9
S11335E00E94F3016FE382E40E94F30161E180E051
S11335F00E94F3010E94BE0661EE80E00E94F30186
S11336006091A80189E00E94F30160E08BE00E94D0
S1133610F3010E94BE060E9417020E94A606E0E87B
S1133620F2E080E291E08193919322E0E239F207A3
S1133630D1F70E94D4198823E1F78F2D99278FBFE2
S1133640789410924A0221E020934902809100016B
S11336509091010180934C02892F992780934B020A
S11336608FB7F894C82FDD2780912201882301F5B4
S113367020933B0180913A018D7F846080933A01CD
S113368080910401843019F085E080930401209333
S1133690220180E00E942B02809165028D7F80933D
S11336A06502CFBF0E94620A81E00E942B0201C022
S11336B0CFBF8FB7F894482F55274BC087B79927AA
S11336C083709070892B19F4E5E0F0E013C080B7A3
S11336D0992787709070892BD1F781B792B7891B8E
S11336E08C3030F082B7853F18F4E3E0F0E002C09C
S11336F0E2E0F0E087B7887BC1F480917D008B7FA6
S1133700A1F46E9912C08AB190919A00892B8871A4
S113371061F48091740082FD08C0379B03C081E08E
S113372090E005C085E090E002C080E090E025B71D
S11337308E1708F4E82FFF27EA53FD4FE491237E08
S11337402062E22BE5BF78948895F89485B78F7D45
S113375085BF809171028F3F09F4B0CF282F3327A2
S1133760F901E15BFE4F8081809371028F3F11F478
S113377080937C028FEF80832F3F09F49FCF4FBF4C
S1133780822F0E94EF1395CFACE2B0E0EAECFBE1AC
S11337900C94861D222E332E442E552E662E772E03
S11337A0882E992EFE013196A8E01192AA95E9F788
S11337B029823A824B825C826D827E828F829886D5
S11337C0FE013996B8E01192BA95E9F7A986BA864E
S11337D0CB86DC86ED86FE860F87188B89819A81DD
S11337E0AB81BC8189A79AA7ABA7BCA77C018D013B
S11337F08FEF9FEFA0E0B0E0E822F9220A231B2319
S113380089A59AA5ABA5BCA51D0144245524898589
S11338109A85AB85BC858DA39EA3AFA3B8A75C0195
S11338206D018FEF9FEFA0E0B0E0A822B922CA2279
S1133830DB228DA19EA1AFA1B8A53D0188249924C6
S1133840C801B701A60195010E94451D69A37AA389
S11338508BA39CA3C801B701A40193010E94451D39
S11338607B018C01C201B101A60195010E94451D95
S11338705B016C01C201B101A40193010E94451DC9
S11338803B014C01EA0CFB1C0C1D1D1D89A19AA1D6
S1133890ABA1BCA19D01442755272E0D3F1D401F00
S11338A0511F2A153B054C055D0540F480E090E06E
S11338B0A1E0B0E0680E791E8A1E9B1ECA01AA27E9
S11338C0BB27860D971DA81DB91D8D8F9E8FAF8FA9
S11338D0B8A3A9013327222789A19AA1ABA1BCA12E
S11338E0A070B070280F391F4A1F5B1F298F3A8FB1
S11338F04B8F5C8FA98CBA8CCB8CDC8CED8CFE8CC2
S11339000F8D18A1FE01719698E011929A95E9F72E
S1133910ED8AFE8A0F8B188F2D813E814F81588549
S11339206DA17EA18FA198A50E94451D3B014C016C
S11339302D853E854F85588969A57AA58BA59CA5BB
S11339400E94451D2D893E894F89588D260F371FAA
S1133950481F591F260D371D481D591D2D8B3E8BA1
S11339604F8B588F6D887E888F88988C2A2D3B2D9D
S11339704C2D5D2D662D772D882D992DE2E1AC9689
S11339800C94A21DA0E1B0E0E8ECFCE10C94861DCF
S1133990222E332E442E552E662E772E882E992EC7
S11339A0002309F466C088E0FE01319611928A95DD
S11339B0E9F729833A834B835C836D837E838F820B
S11339C09887E0E2E01B1E16CCF52D813E814F81E5
S11339D05885602F772767FD7095DA01C901062E97
S11339E004C0B695A795979587950A94D2F78D87C5
S11339F09E87AF87B88B04C0220F331F441F551F07
S1133A00EA95D2F789819A81AB81BC8104C0B695CD
S1133A10A795979587956A95D2F7282B392B4A2B2A
S1133A205B2B29873A874B875C8729843A844B84AC
S1133A305C846D847E848F8498881BC01D861E865A
S1133A401F86188A2E2F332727FD30953095219510
S1133A503F4F8D819E81AF81B88504C0B695A795EF
S1133A60979587952A95D2F789879A87AB87BC87DC
S1133A70DCCF222D332D442D552D662D772D882D09
S1133A80992DE2E160960C94A21D629FD001739F70
S1133A90F001829FE00DF11D649FE00DF11D929FE6
S1133AA0F00D839FF00D749FF00D659FF00D992725
S1133AB0729FB00DE11DF91F639FB00DE11DF91F49
S1133AC0BD01CF0111240895A1E21A2EAA1BBB1B2C
S1133AD0FD010DC0AA1FBB1FEE1FFF1FA217B307D6
S1133AE0E407F50720F0A21BB30BE40BF50B661FEC
S1133AF0771F881F991F1A9469F7609570958095B0
S1133B0090959B01AC01BD01CF0108952F923F9286
S1133B104F925F926F927F928F929F92AF92BF92D9
S1133B20CF92DF92EF92FF920F931F93CF93DF9385
S1133B30CDB7DEB7CA1BDB0B0FB6F894DEBF0FBEE2
S1133B40CDBF09942A88398848885F846E847D842F
S1133B508C849B84AA84B984C884DF80EE80FD8031
S1133B600C811B81AA81B981CE0FD11D0FB6F894A7
S1133B70DEBF0FBECDBFED010895DC0101C06D9322
S10D3B8041505040E0F70895FFCFD4
S1133B8A0100A90104200104010001020140FFFF10
S10F3B9A01FF01011B1C1E202224262810
S9030000FC
