:100000000C949A010C94B9010C94B9010C94B901A7
:100010000C94B9010C94B9010C94B9010C94B90178
:100020000C94B9010C94B9010C94B9010C947D05A0
:100030000C945C050C9467050C948E050C9459097E
:100040000C944B050C943D0B0C9457070C94B90180
:100050000C94D3070C942A140C94B9010C94B90194
:100060000C9472050C9426090C9405090C94100943
:100070000C941B090C9439090C94E8080C94B901F0
:100080000C94FA080C94B9010C94B901D40E750FB4
:10009000431049105510A3101F1155119511AD11A2
:1000A000B011E31166124A135E1360136313A313B6
:1000B00000002110422063308440A550C660E770E4
:1000C000088129914AA16BB18CC1ADD1CEE1EFF18C
:1000D0003112100273325222B5529442F772D66234
:1000E000399318837BB35AA3BDD39CC3FFF3DEE3DC
:1000F0006224433420040114E664C774A444855484
:100100006AA54BB528850995EEE5CFF5ACC58DD52B
:100110005336722611163006D776F6669556B446D3
:100120005BB77AA719973887DFF7FEE79DD7BCC77B
:10013000C448E5588668A778400861180228233823
:10014000CCC9EDD98EE9AFF9488969990AA92BB9CB
:10015000F55AD44AB77A966A711A500A333A122A73
:10016000FDDBDCCBBFFB9EEB799B588B3BBB1AAB1B
:10017000A66C877CE44CC55C222C033C600C411CC3
:10018000AEED8FFDECCDCDDD2AAD0BBD688D499D6B
:10019000977EB66ED55EF44E133E322E511E700E13
:1001A0009FFFBEEFDDDFFCCF1BBF3AAF599F788FBB
:1001B0008891A981CAB1EBA10CD12DC14EF16FE19B
:1001C0008010A100C230E3200450254046706760D3
:1001D000B9839893FBA3DAB33DC31CD37FE35EF3EB
:1001E000B1029012F322D232354214527762567223
:1001F000EAB5CBA5A89589856EF54FE52CD50DC53B
:10020000E234C324A0148104667447642454054472
:10021000DBA7FAB79987B8975FE77EF71DC73CD78A
:10022000D326F2369106B0165766767615463456C2
:100230004CD96DC90EF92FE9C899E9898AB9ABA9DA
:100240004458654806782768C018E1088238A32812
:100250007DCB5CDB3FEB1EFBF98BD89BBBAB9ABB2A
:10026000754A545A376A167AF10AD01AB32A923A62
:100270002EFD0FED6CDD4DCDAABD8BADE89DC98D7A
:10028000267C076C645C454CA23C832CE01CC10CB2
:100290001FEF3EFF5DCF7CDF9BAFBABFD98FF89FCA
:1002A000176E367E554E745E932EB23ED10EF01E02
:1002B00000081C181410ABBA83AAAA3158000057C2
:1002C000F685035544020F60E0261C6B55708131A2
:1002D0007C00007BF9AE02388C3280401026A16B86
:1002E0005510F33151000050F74F030E44020F58E0
:1002F000E026A16B557081315CE0005CDB4201AA15
:100300008C3280301026A16B5510F33145600045CA
:1003100055BB039C80020F68E026A16B54708131AD
:1003200058000057F685035590020F60E026A16B38
:100330005570810011241FBECFEFD0E1DEBFCDBFCD
:1003400011E0A0E0B1E0E0E9F4E300E00BBF02C09F
:1003500007900D92AA31B107D9F717E0AAE1B1E0F1
:1003600001C01D92A830B107E1F70E94BE150C94A0
:10037000471A0C9400008FB7F894992708958FBFFF
:1003800008956091DD017091DE012CB53DB506B692
:1003900002FE04C06F5F7F4F2CB53DB588279927BB
:1003A000CB017727662744275527622B732B842B95
:1003B000952B0895E0EBF0E06927660FF11DE60F3D
:1003C000F11DC895982F802D3196C89590250895D8
:1003D000880F949890E087FF02C0979A01C0979881
:1003E0009698969A9F5F973011F0880FF4CF979A5E
:1003F0009698969A949A80E067FF02C0979A01C0F7
:1004000097989698969A8F5F883011F0660FF4CF80
:10041000949A979A969A089560919B0489E00E9415
:10042000E80160E08BE00E94E80161E180E00E9469
:10043000E8018DE790E0019701960197E1F70895B3
:10044000282F9FB7F894E82FFF27EB5BFE4F8081A2
:100450008F3F81F4E091EE06E21771F40BC0209318
:10046000E10604C0FF27EB5BFE4F20832093EE06DE
:1004700020E007C025E005C08091E1068F3F91F79D
:10048000EECF892F99278FBF822F992708952F921A
:100490003F924F925F926F927F928F929F92AF9214
:1004A000BF92CF92DF92EF92FF920F931F93CF9361
:1004B000DF93CDB7DEB728970FB6F894DEBF0FBE37
:1004C000CDBF2090AB013090AC014090AD01509079
:1004D000AE016624772488247EE4A72E63E8B62E36
:1004E000CC24DD24EE24FF2400E010E0222D332D67
:1004F000442D552D662D772D882D90E00E942018D3
:1005000029833A834B835C836D837E838F839887B3
:10051000822E932EA42EB52E2401350100E20E94D6
:100520001E19A22EB32EC42ED52EC301B20196954C
:100530008795779567956A0D7B1D8C1D9D1D97FF8F
:1005400005C09F776F5F7F4F8F4F9F4F6093AB01C9
:100550007093AC018093AD019093AE0128960FB6D5
:10056000F894DEBF0FBECDBFDF91CF911F910F91E9
:10057000FF90EF90DF90CF90BF90AF909F908F90C3
:100580007F906F905F904F903F902F900895809153
:1005900007018130A1F480911C01813021F488E0B1
:1005A0000E94200209C0823051F480919904809306
:1005B000070183E080931C0180E090E0089581E0D2
:1005C00090E008958091E506882319F02FE170E00E
:1005D00002C078E020E0622FEFB7F89480915901D3
:1005E0008E7F8093590187B1982F9F718295869550
:1005F0008695837019F080E090E012C0822F8850B9
:10060000863118F081E090E00BC040E050E03327E5
:10061000892F99272817390711F441E050E0CA01C2
:10062000982F9170990F809159018178262F2F7101
:10063000422F440F440F892B842B80935901332779
:1006400027B9783059F58091E2069091E30621E0D0
:100650008638920718F087E090E01FC0833C910530
:1006600018F086E090E019C08136910518F085E019
:1006700090E013C08033910518F084E090E00DC045
:100680008831910518F083E090E007C00C9718F0CE
:1006900082E090E002C080E090E0782F7770887D63
:1006A000872B886D992786B98E2F99278FBF08953C
:1006B000982F969596959695E5EEF1E0E90FF11D48
:1006C000877021E030E002C0220F331F8A95E2F7E5
:1006D000808182239927089580911A01823069F4DC
:1006E00080910401843019F085E08093040181E059
:1006F00080931A0182E00E942002089561EE80E05A
:100700000E94E8016091790189E00E94E8018AEF86
:1007100090E0019701960197E1F76091BB018BE0B2
:100720000E94E80184E190E0019701960197E1F7CA
:100730000895E0910201F091030185A19927982F76
:10074000882726A13327822B932BCC962091050155
:100750003091060147A18217930710F4426001C04F
:100760004D7F47A387E00E94200285E080933001FF
:1007700008958FB7F89499272BB331E023272BBB2B
:100780008FBF089580915B028A3021F480917601B9
:10079000843021F081E080931D0108958EE00E9455
:1007A000200210921D0108952FB7F89433278CB9B9
:1007B0005E9A2FBF0895FC016115710519F481E05F
:1007C00090E008958091B4019091B501892B19F0C2
:1007D00085E090E008957093D8066093D706F09373
:1007E000B501E093B401109278011092770181E095
:1007F00080937A015E9A569A808121E030E03093AE
:100800007801209377010E94D40380E090E008955E
:100810008FB7F894992720912E012E7F20932E01D7
:100820002EE7209357018FBF61E070E087E591E0EC
:100830000E94DB03992708951F931FB7F8948091B6
:10084000EA06882341F48CE00E942002882319F4F0
:1008500081E08093EA06812F99278FBF1F91089529
:100860007FB7F89462B72091330130913401409101
:1008700035015091360106B601FE0FC081B792B71F
:10088000280F311D411D511D2F5F3F4F4F4F5F4FAF
:10089000290F311D411D511D04C0260F311D411D61
:1008A000511D872F99278FBFCA01B9010895DF9283
:1008B000EF92FF920F931F938FB7F894282F33274F
:1008C000D22E91B782B746B7981711F041FF02C0F8
:1008D0002FBF6AC08091D4018823E1F10E943004C7
:1008E000E0905F02F090600200916102109162025C
:1008F00020914001309141014091420150914301CA
:100900006E197F09800B910B621773078407950797
:1009100020F01092D40171E01EC02E0D3F1D401F2B
:10092000511F8091330190913401A0913501B09114
:100930003601281B390B4A0B5B0B273E310541055D
:10094000510540F4822F223010F070E005C070E0B5
:1009500082E002C070E086EE682F615000B601FCB4
:10096000FDCF82B7681709F46F5F20913301309192
:1009700034014091350150913601DA01C9010196E7
:10098000A11DB11D860F911DA11DB11D82179307D9
:10099000A407B50710F4622F609561BFDFBE77230F
:1009A00019F08AE00E9420021F910F91FF90EF90B2
:1009B000DF900895AFB7F894BB27E1E0E093D4014E
:1009C00060935F0270936002809361029093620271
:1009D00020934001309341014093420150934301E1
:1009E000AFBF0E94570408958FB7F89499272BB38F
:1009F00034E023272BBB8FBF08956FE380E00E9474
:100A0000E80160E08BE00E94E801089582E08093B5
:100A1000300110925702109256020E940C02BB98AD
:100A2000BA9880EC8DB9B898089566EA8EE00E9475
:100A3000E80194988CE120E030E087FF02C0979AAB
:100A400001C097989698969A2F5F3F4F27303105AF
:100A500011F0880FF2CF97989698969A8F98949A5B
:100A600080E096989927879B04C0880F991F816022
:100A700001C0880F969A215030409FEF2F3F3907D1
:100A800081F7949A8F9A979A83FFD3CF66E28EE08C
:100A90000E94E80108951F920F920FB60F92112441
:100AA0008F9383B783BF00B600FCFDCF8F910F906B
:100AB0000FBE0F901F90189578941F920F920FB64B
:100AC0000F9211240F900FBE0F901F9018957894DD
:100AD0001F920F920FB60F9211240F900FBE0F901E
:100AE0001F90189578941F920F920FB60F921124B1
:100AF0000F900FBE0F901F90189578941F920F9231
:100B00000FB60F9211248F939F9386B597B59F913F
:100B10008F910F900FBE0F901F90189578941F9291
:100B20000F920FB60F9211242F933F938F939F93A1
:100B30002FB7F89433278091DD019091DE01019663
:100B40009093DE018093DD012FBF9F918F913F91A4
:100B50002F910F900FBE0F901F901895982F809196
:100B60002901882389F5992379F531E0309329010A
:100B700080910A0180932A0120911E01822F8170A9
:100B80008093440180910F019091100190932C016A
:100B900080932B0180911F0180932D0132273170AA
:100BA000267EE32FFF27EE0FFF1FE55FFE4F8081BC
:100BB00091819093100180930F01232B20931E01AC
:100BC00081E10E942002089580911E0180FF02C0F1
:100BD0008B7F01C08D7F80931E0108950F931F931B
:100BE000082F162F809176018130D9F0813038F0AE
:100BF000823009F44AC0833009F022C159C0002371
:100C000009F452C11092D1061092D00610925E02E1
:100C10001092D9061092AA011092E0011092DF0101
:100C200033C1002309F040C18091DF019091E001C0
:100C30000E94DA019093E0018093DF0182E08093CB
:100C400076011093D906143409F0FAC01FC18695B5
:100C5000869503C080911E018695817009F0F0C0D1
:100C600080911E01992311F0846001C082608093FD
:100C70001E0180911E01877E886080931E01109264
:100C80001F018FEF80930A010FC1002309F0D8C024
:100C90006093AA018091DF019091E0010E94DA0146
:100CA0009093E0018093DF0183E080937601FCC0A4
:100CB00080915E028F3F09F4C3C0002309F461C034
:100CC000823008F4BDC0E091D006EE2309F4E5C0FF
:100CD0004E2F4150E42FFF27E053F94F828199278F
:100CE000382F2227442311F4E2E002C0E42FE15020
:100CF000FF27E053F94F82819927282B392B8091C8
:100D0000DF019091E0012817390709F099C080E0D0
:100D10000E94AE053091AA018091D5012091D601A3
:100D2000982F9F5F963008F090E0921771F0E82FAF
:100D3000FF27EB52FE4F32838F5F8093D5018630C1
:100D400010F01092D5010E941C041092D10610924E
:100D5000D00694E09093760110925E021092D9062C
:100D60001092AA011092E0011092DF0180912E01F1
:100D70008D7F80932E0180911D01882309F494C0FA
:100D80007EC0823008F448C0E091D106FF27E053CE
:100D9000F94F8281482F552720911E01822F869579
:100DA00086958695837099278130910519F0029771
:100DB000D1F409C0277E206120931E0110921F01EB
:100DC00040930A0110C080911F018F3260F4E091BE
:100DD0000F01F0911001E80FF11D408380911F0178
:100DE0008F5F80931F018091D106E82FFF27E0538A
:100DF000F94F62818F5F8093D106833010F010929B
:100E0000D10677278091DF019091E0010E94DA01FD
:100E10009093E0018093DF018091D006E82FFF27B7
:100E2000E053F94F12838F5F8093D006833010F028
:100E30001092D00680915E028F5F80935E0234C074
:100E40001092D1061092D00614E010937601109201
:100E50005E021092D9061092AA011092E00110923F
:100E6000DF0180912E018D7F80932E0181E00E9411
:100E7000AE0580911D01882329F0109376010E9410
:100E8000C20312C0002381F081E00FCF80911E01C8
:100E9000982F917080FDDBCEDDCE8091D40699270E
:100EA000382F222742E022CF1F910F9108951F92E1
:100EB0000F920FB60F9211242F933F934F935F938E
:100EC0006F937F938F939F93AF93BF93EF93FF9312
:100ED0005F9B3DC06CB1E091E101F091E201309780
:100EE000F9F08091E8069091E906E80FF91F608318
:100EF00001969093E9068093E8062091F3063091DD
:100F0000F4068217930718F11092E2011092E101A2
:100F1000809158028330D9F057981092580217C028
:100F20006E3719F460E081E010C080912E016D37BA
:100F300021F4826080932E010AC081FF05C08D7F5D
:100F400080932E0180E2682780E00E94EE05FF91E9
:100F5000EF91BF91AF919F918F917F916F915F9131
:100F60004F913F912F910F900FBE0F901F901895AA
:100F7000982F8D57823068F480912E018160809384
:100F80002E0180E2892780935D028DE780935701CF
:100F900002C09093570161E070E087E591E00E9404
:100FA000DB039927089578941F920F920FB60F9242
:100FB0001124FF920F931F932F933F934F935F93AF
:100FC0006F937F938F939F93AF93BF93CF93DF9351
:100FD000EF93FF9320917701309178018091D706AC
:100FE0009091D8062817390780F4E091B401F09168
:100FF000B501E20FF31F80812F5F3F4F30937801DF
:10100000209377010E94D403CDC01092B5011092B5
:10101000B40110927A015698FFB6F89480912E018F
:1010200080FF0EC08E7F80932E0180915D028093A1
:10103000570161E070E087E591E00E94DB03AFC0FB
:1010400080915B02843009F48CC0853040F482309A
:1010500021F18330B8F5813009F09CC00DC0863095
:1010600009F48DC0863008F483C0873009F48EC03F
:10107000883009F08FC091C08091B3010E94B807F9
:10108000082F83E080935B026091B3018091EF06AB
:101090009091F0060E94DA0110C08091E4060E944F
:1010A000B807082F83E080935B026091E40680918B
:1010B000EF069091F0060E94DA019093F00680937B
:1010C000EF0666C0E091E401FF27EE0FFF1FE95431
:1010D000FE4F80810E94B807082F1091E401C12FB4
:1010E000DD27FE01EE0FFF1FE954FE4F6081809166
:1010F000EF069091F0060E94DA019093F00680933B
:10110000EF062091B2012F5F2093B201113039F523
:1011100080912501E0912001F0912101E80FF11D5E
:10112000E0818F5F8093250190912401981730F41E
:1011300082E08093B80140E050E002C04E2F552776
:10114000DE01AA0FBB1FFD01EA54FE4F80818230F1
:1011500031F02F3F21F0A954BE4F4C9319C084E0C9
:1011600012C08091EF060E94B807082F85E00BC0DF
:101170008091F0060E94B807082F86E004C00E9404
:101180000804082F87E080935B0202C088E003C058
:10119000002329F089E080935B020E941C048F2DBC
:1011A00099278FBFFF91EF91DF91CF91BF91AF91C1
:1011B0009F918F917F916F915F914F913F912F916F
:1011C0001F910F91FF900F900FBE0F901F901895D9
:1011D0001F920F920FB60F9211248F9380919B0054
:1011E00087FF02C080919C008F910F900FBE0F90DF
:1011F0001F90189578941F920F920FB60F9211249A
:101200000F900FBE0F901F90189578941F920F9219
:101210000FB60F9211240F900FBE0F901F901895CC
:1012200078941F920F920FB60F9211240F900FBE59
:101230000F901F90189578941F920F920FB60F92EF
:1012400011240F900FBE0F901F90189578941F9245
:101250000F920FB60F9211248F939F93809180006D
:10126000909181009F918F910F900FBE0F901F90D2
:10127000189578941F920F920FB60F9211242F9306
:101280003F938F939F932FB7F89433278091B001AA
:101290009091B10101969093B1018093B0012FBF5D
:1012A0009F918F913F912F910F900FBE0F901F90A4
:1012B00018951F920F920FB60F9211242F933F9300
:1012C0004F935F936F937F938F939F93AF93BF934E
:1012D000EF93FF9383B783BF00B600FCFDCF81B7C8
:1012E00099270196AA27BB27209133013091340119
:1012F0004091350150913601280F391F4A1F5B1F5D
:1013000020933301309334014093350150933601DB
:1013100078940E945704FF91EF91BF91AF919F91F4
:101320008F917F916F915F914F913F912F910F908E
:101330000FBE0F901F901895DF92EF92FF920F93C0
:101340001F93D82E7A018B010E94300429E0D29E8F
:10135000F0011124EA51FE4F6083718382839383ED
:10136000E482F582068317838085836080878BE023
:101370000E9420021F910F91FF90EF90DF9008953F
:101380001F93982F80910401843051F590930401AC
:1013900080911C018823A9F412E010931C01109283
:1013A0009904379A0E94C702809107018823D9F0D7
:1013B00081E080931C0110929904379A0E94C70221
:1013C00018C0809199048823A1F080E00E945803FE
:1013D000882379F48091E50181608093E50109C05B
:1013E0009093E70606C01093BA011092E5060E949A
:1013F000E20280E090E01F9108950F931F936BE34A
:1014000080E00E94E80180ED97E001970196019746
:10141000E1F769E380E00E94E80188EC90E0019741
:1014200001960197E1F70FB7F89411270E9406057E
:101430000FBF1F910F910895FF920F931F93CF93AA
:10144000DF93EC01FFB6F8948091AF01882321F57A
:1014500080913D019927FC01EE0FFF1FE65AFE4FD8
:1014600000811181D183C08301966CE070E00E94FD
:10147000C01980933D0120915C02281719F481E086
:101480008093AF018091E606882349F40E942002F0
:1014900081E08093E60603C00E94B9038E018F2D80
:1014A00099278FBF0E94F404C801DF91CF911F914B
:1014B0000F91FF90089580911A01843069F1853071
:1014C00019F1813091F58091EE0181FD2EC090E0FF
:1014D000809139018F3108F091E0992381F080915A
:1014E0003E0190913F01892B29F440E05AE060E0F1
:1014F00070E00EC04EE150E060E070E009C040E8EE
:1015000050E060E070E004C041E050E060E070E076
:1015100080E00E949C09089540913E0150913F0156
:101520006627772780E00E949C090895AF92BF92BA
:10153000CF92DF92EF92FF920F931F935B016C01AA
:101540006091EE0161FF20C02091E6013091E7013A
:101550004091E8015091E901E090EA01F090EB013F
:101560000091EC011091ED01D601C501821B930B96
:10157000A40BB50B8E159F05A007B10728F0E6EE6A
:10158000F1E0A0E0B0E022C0EFEEF1E06091F70101
:1015900061FF67C02091EF013091F0014091F101AE
:1015A0005091F201E090F301F090F4010091F50107
:1015B0001091F601A21AB30AC40AD50AAE14BF04E8
:1015C000C006D10608F44DC0A1E0B0E060FF04C041
:1015D00080858D7F808708C02E0D3F1D401F511FC5
:1015E0002083318342835383AA2309F03AC08FB703
:1015F000F894082F1127F02E80911A018430B9F049
:101600008530F9F0813051F590E0809130018330E0
:1016100009F491E0992311F580910401843019F0C7
:1016200085E08093040181E00E94C00917C085E035
:1016300080931A011092DE0669E380E00E94E801BF
:101640000DC00E940C0283E00E94C00980E590E07A
:10165000019701960197E1F70FBF03C00E945B0A53
:10166000FFBE8BE00E9420021F910F91FF90EF9030
:10167000DF90CF90BF90AF9008951F920F920FB65A
:101680000F9211246F927F928F929F92AF92BF928E
:10169000CF92DF92EF92FF920F931F932F933F937E
:1016A0004F935F936F937F938F939F93AF93BF936A
:1016B000CF93DF93EF93FF931FB18091EB068FB928
:1016C00060912F0162FD109580913001883009F4FE
:1016D00044C0893098F4843009F456C2853038F417
:1016E000823009F470C1833009F01FC3B7C186305E
:1016F00009F4EBC2873009F018C315C08B3009F428
:10170000DBC08C3030F48930A9F18A3009F00DC388
:10171000C5C08D3009F40FC18D3008F4ECC08E3097
:1017200009F003C33AC1809138018093EB068091A0
:101730005602909157020196909357028093560259
:101740002091DF063091E0068217930708F4EDC27E
:1017500083E38093380188E0E6C28091380180936A
:10176000EB068CEC8093380189E0809330018FEF99
:101770009FEF57C2C091F106D091F2062091380137
:101780002093EB0680915602909157020196909318
:101790005702809356022C3C09F05CC00E94C101A4
:1017A0003B014C01E091F106F091F20664A7BB27E2
:1017B000A92D982D872D83A7C401AA27BB2782A70F
:1017C000892D9927AA27BB2781A7E091F106F091DF
:1017D000F20680A58823F1F184818D5FE80FF11D69
:1017E0002081E1808281A3809927AA27BB27BA2F75
:1017F000A92F982F8827332744275527522F44276E
:1018000033272227FF24002711278701FF24EE24F6
:101810002E293F29402B512BBB24CC24DD242A29FF
:101820003B294C295D29822B932BA42BB52B8619A0
:101830009709A809B9098383292F3A2F4B2F5527D8
:1018400022839D014427552721838B2F9927AA277F
:10185000BB278083E0915602F09157028C81992733
:101860000796E817F907A0F48091F1069091F20627
:10187000E80FF91F60816093380180913A019091DF
:101880003B010E94DA0190933B0180933A014DC2E3
:1018900080913A01809338018AE045C280913801F5
:1018A0008093EB0680913A0190913B01892F992713
:1018B000809338018BE013C0809138018093EB0650
:1018C000809156029091570201969093570280930F
:1018D0005602049708F429C260FF08C08CE0809388
:1018E000300110925702109256021FC2BB98BA984C
:1018F0000E940C0217C2809138018093EB06809100
:101900005602909157020196909357028093560287
:101910008130910529F4BB98BA980E940C0205C247
:10192000049708F402C28DE0809330011092ED0616
:101930001092EC06D6CF809138018093EB0680910F
:101940005602909157020196909357028093560247
:101950008091EC069091ED0620E0880F991F17FD0D
:1019600081603AEB8338930709F4D1C12F5F2830A7
:1019700011F0110FF2CF9093ED068093EC06809159
:10198000560290915702429708F4CFC1E091F106B8
:10199000F091F20687A18E7FC4C186E00E942002EA
:1019A00080919A048D7F80939A0480910401843001
:1019B00019F085E08093040181E080931A0182E0B0
:1019C0000E942002B2C11A3A19F0153509F099C1E6
:1019D00080915602909157020196909357028093FE
:1019E0005602039758F083E080933001109257021B
:1019F000109256021092ED061092EC0691E0809142
:101A00009A0481FF92C180FD0DC0992359F00E9474
:101A100047026F7070706F5F7F4F709364026093C6
:101A2000630283C18091630290916402009709F47C
:101A30007CC101979093640280936302892B09F023
:101A400074C180910401843019F085E08093040111
:101A50001092DE0682E00E94C00967C11A3A11F0B6
:101A6000153529F4812F9927982F882714C0809144
:101A70005602909157020196909357028093560216
:101A80008130910569F4212F33278091EC069091E4
:101A9000ED06822B932B9093ED068093EC0645C1C7
:101AA000079708F06FC00E94C1013B014C01C09133
:101AB000EC06D091ED069C2F8827212F3327822B0F
:101AC000932B9093ED068093EC0607E0CC0FDD1F7F
:101AD00017FDC16083E3CC3CD80709F04DC0E0910D
:101AE0000201F091030184E0809330018CE1848352
:101AF000109257021092560210923B0110923A0136
:101B000080910401843019F085E08093040182E023
:101B100080931A01802F8770880F880F880FE091BB
:101B20002F01E77CE82BE0932F01E695E695E695FB
:101B3000E770FF27EF5EFE4F8081992787FD909524
:101B4000A92FB92F681A790A8A0A9B0AE091020123
:101B5000F091030164A6BB27A92D982D872D83A79B
:101B6000C401AA27BB2782A7892D9927AA27BB27AB
:101B700081A780E00E94C00901500F3F09F4D5C041
:101B8000110FA4CF82E0ABCEE0910201F0910301EE
:101B900044814D3150F082E0809330011092570221
:101BA000109256020E946C03C0C08091EC06909186
:101BB000ED06982F8827212F3327822B932B909384
:101BC000ED068093EC06669566956695677002C093
:101BD000969587956A95E2F7BC018091560290919F
:101BE0005702E80FF91F60834C010894811C911C77
:101BF0009092570280925602495F642E77246814AF
:101C0000790450F080913A0190913B010E94DA01F1
:101C100090933B0180933A018614970439F483E250
:101C200090E090935702809356027FC035E283166E
:101C3000910409F07AC0E0910201F091030184A1BE
:101C400023A140E050E09927982F88273327822B43
:101C5000932B20913A0130913B018217930711F4A5
:101C600041E050E0242F43A3852F9927482F84A3D8
:101C700080912F0180FF39C0842F9927982F8827C2
:101C80003327822B932B892B81F1808141812FB7C0
:101C9000F894332760910801709109012FBF9927AB
:101CA000982F88275527842B952B86179707E9F4BB
:101CB00086E08093300110925702109256020E94E3
:101CC0007E03BB9ABA9A8AEA19C0E0915602F09153
:101CD00057023196F0935702E0935602E031F10536
:101CE00038F00E940C02BB98BA980E9499031DC05C
:101CF000EB30F105D0F0E555FD4F84918093EB0674
:101D000014C0109257021092560290E078CE909331
:101D1000ED068093EC06E091F106F091F20687A1C2
:101D2000816087A38EE080933001FF91EF91DF9176
:101D3000CF91BF91AF919F918F917F916F915F9163
:101D40004F913F912F911F910F91FF90EF90DF9056
:101D5000CF90BF90AF909F908F907F906F900F909B
:101D60000FBE0F901F901895AF92BF92CF92DF9247
:101D7000EF92FF920F931F93CF93DF93CDB7DEB710
:101D800062970FB6F894DEBF0FBECDBFE82FFF27D6
:101D9000E231F10508F030C5EA5BFF4FEE0FFF1F9F
:101DA0000590F491E02D09948FB7F894282F3327EC
:101DB000422F90913D0180915C02981739F48091F7
:101DC000AF01882319F41092E606A0C04FBFE0913E
:101DD0005C02FF27EE0FFF1FE65AFE4F0190F081D5
:101DE000E02D8481482F5527642F4093E30116810D
:101DF00070810181828123819927982F8827332739
:101E0000822B932B358127E0DF011D922A95E9F77C
:101E10008383892F992782833583E0915C02FF2792
:101E2000EE0FFF1FE65AFE4F0190F081E02D6D315D
:101E300008F062C4872F9927982F8827202F3327EF
:101E4000822B932B8183892F992780831683448348
:101E50008091220190912301892B09F04DC42FB765
:101E6000F89433271092250110922601F093210156
:101E7000E093200182E090E090932301809322017F
:101E80001092280110922701695F609324012FBFEF
:101E90008FB7F894282F332780915B028A3011F492
:101EA0002FBF1EC02FBF9FB7F8948091B801882321
:101EB00011F020E006C081E08093B8011092B901D2
:101EC00021E0892F99278FBF222351F00E941C0403
:101ED0008FB7F89499272BB332E023272BBB8BC401
:101EE000109223011092220107C48FB7F894282F73
:101EF0003327422F9091310180910707981741F4C1
:101F000080913C01882321F4109237012FBF74C4C3
:101F10004FBFE0910707FF27EE0FFF1FE454FE4F6E
:101F20000190F081E02D6481408181815527542FFB
:101F300044279927482B592B828123819927982F51
:101F400088273327822B932B368127E0DF011D92D0
:101F50002A95E9F714A213A28F010B5D1F4F2AE007
:101F6000D8011D922A95E9F78383892F99278283C7
:101F700036834183452F552740832FB7F894332765
:101F800080910801909109012FBF8383892F9927A0
:101F9000828382E285838FB7F894282F332790912C
:101FA0002F0191FD04C080913001882321F42FBFBF
:101FB0000E94B90378C1926090932F016483F093DB
:101FC000F206E093F10610A614A613A612A680E866
:101FD00081A72FBFFFB6F89480919A048260809306
:101FE0009A0480911A01843011F40E942002809199
:101FF0009A0480FD0BC00E9447026F7170706F5F82
:102000007F4F709364026093630206C081E090E0AA
:102010009093640280936302F80180812181992763
:10202000782F66273327622B732B77FD05C06091CD
:102030003E0170913F0102C060957095F8011182D8
:1020400010826115710529F466E070E080E090E08F
:1020500010C08827992726E632E040E050E00E9431
:10206000A119672F782F892F99276A5E7F4F8F4F8D
:102070009F4F7093E0066093DF068F2D99278FBFE7
:102080000E94F404B9C30FB7F89411270E945B0AA9
:10209000D4C08FB7F894992720911A018FBF2223BB
:1020A00009F4AAC310923C01A7C31FB7F89480910A
:1020B0009A0481FD06C080913E0190913F01892BD9
:1020C000A1F480911A018450823098F58091040126
:1020D000843019F085E08093040181E080931A0137
:1020E00082E00E94200221E025C090E08091390129
:1020F0008F3108F091E09923E1F090E08091300178
:10210000833009F491E09923A1F40E94FD0481E059
:10211000809330016F98B89AC09880910401843000
:1021200019F085E08093040184E080931A010E94F5
:102130005B0A20E0812F99278FBF222309F45CC31B
:102140000E94FD0959C38FB7F89499272091730114
:10215000309174018FBF80913201E82FFF27EE0F7D
:10216000FF1FEB50F94F318320838F5F8093320143
:10217000893010F010923201809139018F3118F4BA
:102180008F5F80933901DE011196E5EFF6E082E181
:1021900001900D928150E1F760E08E010F5F1F4FBB
:1021A00041E050E0DE011396E52FFF27EE0FFF1F01
:1021B000E00FF11F2D913C91119780819181821741
:1021C000930708F4542F4F5F1296493069F7E52FB3
:1021D000FF27633041F0EE0FFF1FE00FF11F118268
:1021E00010826F5FDDCF6091050170910601882735
:1021F0009927B5E0660F771F881F991FBA95D1F709
:10220000EE0FFF1FE00FF11F20813181442755277A
:10221000220F331F441F551F620F731F841F951F0A
:102220000FB7F894112722E230E040E050E00E941E
:10223000D31930930601209305010FBFDDC22FB7DC
:10224000F89433274091F1065091F20680912F01C6
:102250008D7F80932F0182E080933001109257028E
:10226000109256022FBF3FB7F89420910707E22F34
:10227000FF27EE0FFF1FE454FE4F80819181481726
:10228000590771F4822F8F5F809307078C3010F00D
:102290001092070780913C01882311F010923C01B5
:1022A000832F99278FBF81E04BC28FB7F894282FD7
:1022B000332780913001853009F028CEE09102016A
:1022C000F09103012FBF448184A123A19927982F66
:1022D00088273327822B932B019779F4A42FBB27D0
:1022E0008F01095F1F4F2FB7F89433272FBF4A2F55
:1022F000B801CF010E941C0AFC011FB7F894309767
:1023000021F0F0930301E0930201809130018530C8
:1023100039F482E0809330011092570210925602F5
:102320000E946C03812F992766C22FB7F894332738
:10233000809199048093070183E080931C012FBF53
:1023400080910701882309F057C282E08093BA0187
:102350001092E5060E94E2024FC21092BA014CC2EE
:1023600080915801882361F52091DA063091DB06CF
:102370004091DC065091DD06EFB7F894FF2760919D
:102380005F02709160028091610290916202E09020
:102390004001F090410100914201109143016E0D06
:1023A0007F1D801F911FEFBF2093DA063093DB065D
:1023B0004093DC065093DD06109258010E94DA0427
:1023C0000E9430046EC00E9430045B016C018FB724
:1023D000F89499271092D4018FBF8091EE0181FF6C
:1023E00025C08091E6019091E701A091E801B091AC
:1023F000E901A6019501281B390B4A0B5B0BE09004
:10240000EA01F090EB010091EC011091ED01E21A6C
:10241000F30A040B150B3FEFE3163FEFF3063FEF14
:1024200003073FE7130711F061E009C0BFEFEB2E90
:10243000BFEFFB2EBFEF0B2FBFE71B2F60E080919C
:10244000F70181FF24C08091EF019091F001A091EC
:10245000F101B091F201A6019501281B390B4A0B3D
:102460005B0BDA01C9012091F3013091F401409135
:10247000F5015091F601281B390B4A0B5B0B2E1509
:102480003F05400751071CF479018A0103C0662308
:1024900009F4B2C11E141F04100611062CF0C60167
:1024A000B5010E94960AA8C1E092DA06F092DB0616
:1024B0000093DC061093DD0681E080935801A801AB
:1024C0009701C601B5010E94DA0496C18FB7F8944E
:1024D0001092EA0620915B0240E0283009F441E0C6
:1024E00030E0293009F431E0442311F4332351F072
:1024F00010925B02E091E401FF27EE0FFF1FEA5408
:10250000FE4F108299278FBF442311F4332331F1FA
:102510009FB7F8948091E4068F5F8093E4068091E2
:10252000B301833479F42091D6018091D5018217CB
:1025300079F0822F8F5F8093D601863048F0109219
:10254000D60106C0A0E0442309F4A1E071E002C076
:10255000A0E070E0892F99278FBF06C0222311F0D9
:10256000FF246DC0A0E070E08FB7F8949927209108
:102570001D018FBF222341F08FB7F89499272AE0DD
:1025800020935B028FBF42C08FB7F8949927609168
:10259000B6014091B8018FBF8FB7F894282F332729
:1025A00050E09091D5018091D601981709F451E03F
:1025B0002FBF552341F5662331F55FB7F89482E0CC
:1025C0008093B6018FB7F894282F332740E090917D
:1025D000D5018091D601981709F441E02FBF44231B
:1025E00011F080E006C0E091D601FF27EB52FE4FCC
:1025F00082818093B70183E48093B3011092E40158
:10260000852F99270EC04150423010F0FF240CC096
:102610008FB7F894992725E42093B30121E0209304
:10262000E4018FBFE1E0FE2E772349F08FB7F894E5
:102630009927A09326018FBF80E10E9420028FB7C7
:10264000F894082F112780915B028A3019F40E94B8
:10265000C203F3CD0FBFFF2009F4CEC02FB7F8940B
:1026600033271092F0061092EF061092B20181E02B
:1026700080935B022FBF0E940804882309F4BCC02A
:102680008FB7F894992729E020935B028FBF0E94AF
:102690001C04B2C0569857981092580210927A01B2
:1026A000539A549A579A8FB7F894992710925B02CD
:1026B000109276018FBF1092AF019EC08FE040C094
:1026C0005398549899C010922301109222018FB709
:1026D000F8949927209126018FBF809127018111BD
:1026E00023E040912001509121018091280188230D
:1026F00009F082C0222319F00E94B90320C03FB71D
:10270000F89420915C02E22FFF27EE0FFF1FE65A9C
:10271000FE4F808191814817590771F4822F8F5F96
:1027200080935C028C3010F010925C028091AF01BB
:10273000882311F01092AF01832F99278FBF80E07B
:102740000E94200259C08FB7F894992720912A013E
:1027500000912B0110912C01D09044018FBF2223B6
:10276000A1F5CFB6F89480913C01882339F580918A
:102770003101E82FFF27EE0FFF1FE454FE4FE080EA
:10278000F180118300838F5F809331018C3010F0D2
:10279000109231019091310180910707981719F437
:1027A00081E080933C0180913701882351F481E0DE
:1027B0000E94200281E08093370103C00E94B90388
:1027C00078018C2D99278FBF87018FB7F894ED2D55
:1027D000FF27EE0FFF1FE55FFE4F1183008320915F
:1027E0001E01DD2011F02B7F01C02D7F20931E01E3
:1027F0001092290199278FBF62960FB6F894DEBF19
:102800000FBECDBFDF91CF911F910F91FF90EF9041
:10281000DF90CF90BF90AF9008958091E1068F3FF9
:10282000B1F0282F3327F901EB5BFE4F80818093B5
:10283000E1068F3F11F48093EE068FEF80832F3FE8
:1028400031F0822F0E94B40E81E090E0089580E084
:1028500090E008951F920F920FB60F921124EF92FD
:10286000FF920F931F932F933F934F935F936F9319
:102870007F938F939F93AF93BF93CF93DF93EF9308
:10288000FF93C4B1D5B178948FB7F894992720916C
:102890005901322F3695317021708FBF222309F0F4
:1028A00022C133988091BA01813021F0823009F041
:1028B0004EC10AC0332351F0D0935A02C09359023B
:1028C00089E00E94200243C1332319F40E94E202EE
:1028D0003EC11092BA018091E506882309F037C104
:1028E000EFB6F89480910401813089F0813030F0A6
:1028F0008230B1F0833009F09CC056C0E0910201F3
:10290000F0910301C6A38D2F992785A392C0D09380
:102910007401C093730185E00E94200284E069C0C5
:102920002091DE062F5F2093DE06809105019091B5
:1029300006010C968C179D0740F4809172018F5F01
:1029400080937201882339F402C010927201809141
:102950009A0480FF18C083E080931A0187E0809377
:102960003001109257021092560210923B011092C1
:102970003A018AEA809338018093EB060E947E0335
:10298000BB9ABA9A56C0253059F40E9447026F701C
:1029900070706F5F7F4F709364026093630249C0F1
:1029A00082E00E94C00945C0809105019091060116
:1029B0009C013695279536952795821B930B8C178E
:1029C0009D07D0F484E00E9420028091050190913F
:1029D00006019C0103E0369527950A95E1F7820FE1
:1029E000931FC817D90728F5D0937401C0937301BA
:1029F00085E00E9420021DC08091DE068F5F8093DB
:102A0000DE068150863060F085E08093040181E02D
:102A100080931A0182E00E9420020E94060509C0EC
:102A200083E00E94C00980E590E00197019601973C
:102A3000E1F78091E70680930401843059F084E047
:102A40008093E70682E08093BA011092E5060E9427
:102A5000E20245C080911C01833009F040C08091A2
:102A600007018823E1F58091E501882309F069C019
:102A700061C0EF2DE695E695E695FF274F2D55278A
:102A8000EB51FE4F9A012770307081E090E002C058
:102A9000880F991F2A95E2F78095208128232083AB
:102AA000C0931B0111C02196C130D10511F4C0E0C3
:102AB000D0E0FC2E8C2F0E9458038823D1F6C0173B
:102AC000D10789F74FEF50E0409399048FEF80933F
:102AD000070181E080931C0188E00E9420028E2D76
:102AE00099278FBF34C08FB7F89499278FBF2FB71E
:102AF000F894332786B1582F5770482F4072987D2D
:102B0000942B952B8074977B982B90619F77892FBE
:102B1000992786B9887D842B852B877380619927B7
:102B200086B9887D842B852B877B8069992786B918
:102B30002FBF0DC081E08093070110921C013798D0
:102B4000CECF80911B01082F1127E801ACCFFF9158
:102B5000EF91DF91CF91BF91AF919F918F917F9135
:102B60006F915F914F913F912F911F910F91FF9026
:102B7000EF900F900FBE0F901F901895FF920F933C
:102B80001F93CF93DF93FFB6F89442E150E06FEFCD
:102B900070E085E491E00E94401A8FEF8093E10697
:102BA0008093EE0681E08EBD88E080BF83E083BF26
:102BB0008CB59DB54AE72CB53DB52817390708F403
:102BC0004150442311F0C901F6CF92B782B789175B
:102BD000E9F32CB53DB592B782B78917E9F38CB507
:102BE0009DB5821B930B4096F5E096958795FA95D7
:102BF000E1F79093E3068093E20613BE83B78EBDA0
:102C00008EB580BF12BE1DBC1CBC8FEF86BF86B7C1
:102C100080937C0080B7992787709070892BD1F7BB
:102C2000D29AD19AD09ADA9AD99AD89A15BA8FEFBD
:102C300084BBD498DC98109289001092880080910F
:102C40007D00846080937D0080918A00887F82600F
:102C500080938A001DBC1CBC87B7846087BF8EB57B
:102C6000887F84608EBD16B8D6988C9A8E9A8F9A7B
:102C7000949A979A969A6FE380E00E94E80160E048
:102C80008BE00E94E801B998BF98BB98BA980E945F
:102C90000D148823E1F712E006E06091E2067091DE
:102CA000E30688279927ECE0660F771F881F991F96
:102CB000EA95D1F720E031EE40E050E00E94D319D0
:102CC0002150304029B9832F9927809390001BB958
:102CD000009395001AB82093990080939800109360
:102CE0009B0000939D0010929A0084E490E09093E2
:102CF000D6068093D5061092B6011092B8018AE0EC
:102D000080935B021092B2011092B3011092E4061C
:102D10001092F0061092EF061092EA061092E4016B
:102D20001092D1061092D00684E080937601109222
:102D30005E021092D9061092AA011092E001109240
:102D4000DF011092D6011092D50180B7886080BF54
:102D50008BE083BF86EE81BF87B7826087BF0E940A
:102D6000570480910001909101010196AA27BB2789
:102D70008093AB019093AC01A093AD01B093AE01F1
:102D80001092E50180912F01816080932F016B9853
:102D90006A986F9A6E9A6AE380E00E94E8016BE39A
:102DA00080E00E94E80180ED97E00197019601978D
:102DB000E1F780E88093BB0160E88BE00E94E801C6
:102DC00060E984E00E94E80160E08FE00E94E80191
:102DD0006FE680E10E94E80165E581E10E94E8017B
:102DE00061E083E10E94E801C1E0D0E004EE12E07E
:102DF000F80164918C2F0E94E80121960F5F1F4F0C
:102E0000CD30D105A9F705EF12E0F801649182E118
:102E10000E94E80109501040F801849180939B04BE
:102E2000065F1F4FF801849180937901085010408C
:102E3000F80184918093BB0160E08BE00E94E8017F
:102E40006FE382E40E94E80161E180E00E94E80112
:102E50000E94150561EE80E00E94E8016091790111
:102E600089E00E94E80160E08BE00E94E8010E9496
:102E700015050E940C020E94FD04E5EFF6E080E2D9
:102E800091E08193919327E0E730F207D1F70E9418
:102E90000D148823E1F78F2D99278FBF7894EAE5E9
:102EA000F1E08CE994E0819391938F9621E0E237F1
:102EB000F207C9F710925C0210923D011092E606EB
:102EC00081E08093AF01ECEBF1E085E692E0819345
:102ED00091938F9621E0E43DF207C9F7109207071E
:102EE000109231011092370191E090933C018FB71D
:102EF000F894C82FDD2780911A01882301F590935B
:102F0000300180912F018D7F846080932F0180910B
:102F10000401843019F085E08093040190931A0134
:102F200082E00E94200280919A048D7F80939A040F
:102F3000CFBF0E94FD0983E00E94200201C0CFBFE5
:102F40008FB7F894282F3327922F80915B028A3015
:102F500041F080917601843021F02FBF1092AF01B3
:102F600004C09FBF8DE00E9420028FB7F894482FC5
:102F700055274BC087B7992783709070892B19F418
:102F8000E5E0F0E013C080B7992787709070892B37
:102F9000D1F781B792B7891B8C3030F082B7853F6B
:102FA00018F4E3E0F0E002C0E2E0F0E087B7887BED
:102FB000C1F480917D008B7FA1F46E9912C08AB11B
:102FC00090919A00892B887161F48091740082FD40
:102FD00008C0379B03C081E090E005C085E090E029
:102FE00002C080E090E025B78E1708F4E82FFF2795
:102FF000E055FD4FE491237E2062E22BE5BF7894FB
:103000008895F89485B78F7D85BF8091E1068F3FC5
:1030100009F4B0CF282F3327F901EB5BFE4F8081F5
:103020008093E1068F3F11F48093EE068FEF80834B
:103030002F3F09F49FCF4FBF822F0E94B40E95CF30
:10304000ACE2B0E0E6E2F8E10C94091A222E332E4D
:10305000442E552E662E772E882E992EFE013196FF
:10306000A8E01192AA95E9F729823A824B825C8204
:103070006D827E828F829886FE013996B8E0119229
:10308000BA95E9F7A986BA86CB86DC86ED86FE86F8
:103090000F87188B89819A81AB81BC8189A79AA7F8
:1030A000ABA7BCA77C018D018FEF9FEFA0E0B0E044
:1030B000E822F9220A231B2389A59AA5ABA5BCA562
:1030C0001D014424552489859A85AB85BC858DA333
:1030D0009EA3AFA3B8A75C016D018FEF9FEFA0E0A7
:1030E000B0E0A822B922CA22DB228DA19EA1AFA105
:1030F000B8A53D0188249924C801B701A60195010E
:103100000E94A11969A37AA38BA39CA3C801B7014C
:10311000A40193010E94A1197B018C01C201B1019C
:10312000A60195010E94A1195B016C01C201B101C8
:10313000A40193010E94A1193B014C01EA0CFB1C64
:103140000C1D1D1D89A19AA1ABA1BCA19D01442705
:1031500055272E0D3F1D401F511F2A153B054C05BD
:103160005D0540F480E090E0A1E0B0E0680E791EDB
:103170008A1E9B1ECA01AA27BB27860D971DA81D64
:10318000B91D8D8F9E8FAF8FB8A3A901332722273A
:1031900089A19AA1ABA1BCA1A070B070280F391F62
:1031A0004A1F5B1F298F3A8F4B8F5C8FA98CBA8C7B
:1031B000CB8CDC8CED8CFE8C0F8D18A1FE017196F2
:1031C00098E011929A95E9F7ED8AFE8A0F8B188F95
:1031D0002D813E814F8158856DA17EA18FA198A53B
:1031E0000E94A1193B014C012D853E854F855889D0
:1031F00069A57AA58BA59CA50E94A1192D893E8958
:103200004F89588D260F371F481F591F260D371D10
:10321000481D591D2D8B3E8B4F8B588F6D887E8896
:103220008F88988C2A2D3B2D4C2D5D2D662D772D6A
:10323000882D992DE2E1AC960C94251AA0E1B0E01E
:10324000E4E2F9E10C94091A222E332E442E552E75
:10325000662E772E882E992E002309F466C088E00A
:10326000FE01319611928A95E9F729833A834B83BF
:103270005C836D837E838F829887E0E2E01B1E165D
:10328000CCF52D813E814F815885602F772767FDD2
:103290007095DA01C901062E04C0B695A7959795D9
:1032A00087950A94D2F78D879E87AF87B88B04C025
:1032B000220F331F441F551FEA95D2F789819A8147
:1032C000AB81BC8104C0B695A795979587956A9503
:1032D000D2F7282B392B4A2B5B2B29873A874B8730
:1032E0005C8729843A844B845C846D847E848F84DB
:1032F00098881BC01D861E861F86188A2E2F33278E
:1033000027FD3095309521953F4F8D819E81AF816E
:10331000B88504C0B695A795979587952A95D2F755
:1033200089879A87AB87BC87DCCF222D332D442D2C
:10333000552D662D772D882D992DE2E160960C9400
:10334000251A629FD001739FF001829FE00DF11D4D
:10335000649FE00DF11D929FF00D839FF00D749F0F
:10336000F00D659FF00D9927729FB00DE11DF91FBB
:10337000639FB00DE11DF91FBD01CF011124089518
:1033800097FB092E07260AD077FD04D02ED006D051
:1033900000201AF4709561957F4F0895F6F7909587
:1033A00081959F4F0895A1E21A2EAA1BBB1BFD0118
:1033B0000DC0AA1FBB1FEE1FFF1FA217B307E40714
:1033C000F50720F0A21BB30BE40BF50B661F771F6C
:1033D000881F991F1A9469F760957095809590954C
:1033E0009B01AC01BD01CF010895AA1BBB1B51E19C
:1033F00007C0AA1FBB1FA617B70710F0A61BB70B65
:10340000881F991F5A95A9F780959095BC01CD0109
:1034100008952F923F924F925F926F927F928F9278
:103420009F92AF92BF92CF92DF92EF92FF920F9353
:103430001F93CF93DF93CDB7DEB7CA1BDB0B0FB65D
:10344000F894DEBF0FBECDBF09942A88398848881A
:103450005F846E847D848C849B84AA84B984C884B0
:10346000DF80EE80FD800C811B81AA81B981CE0FA7
:10347000D11D0FB6F894DEBF0FBECDBFED0108958C
:10348000DC0101C06D9341505040E0F70895FFCF3B
:1034900001007B01042001010100FFF8012702F86F
:0A34A000011B1C1E20222426280018
:00000001FF
