:100000000C94A5010C9457070C9461070C946B0792
:100010000C9475070C947F070C9489070C94930734
:100020000C949D070C94C4010C94C4010C942607F5
:100030000C9405070C9410070C9437070C94A70731
:100040000C94F4060C94930A0C94C4010C94C4010F
:100050000C94C4010C940A0E0C94C4010C94C401B9
:100060000C941B070C94C4010C94C4010C94C4019F
:100070000C94C4010C94C4010C94C4010C94C401EC
:100080000C94C4010C94480F0C94C401111417145F
:100090002A147814F4141715C215E915B717EA17BE
:1000A000421851186318661868188E189918AA18FB
:1000B000AC18B018B418BA18CC18DD183319471991
:1000C0004A1909147E19000021104220633084402F
:1000D000A550C660E770088129914AA16BB18CC117
:1000E000ADD1CEE1EFF13112100273325222B5528E
:1000F0009442F772D662399318837BB35AA3BDD367
:100100009CC3FFF3DEE36224433420040114E6645D
:10011000C774A44485546AA54BB528850995EEE5B6
:10012000CFF5ACC58DD55336722611163006D7766D
:10013000F6669556B4465BB77AA719973887DFF706
:10014000FEE79DD7BCC7C448E5588668A778400835
:10015000611802282338CCC9EDD98EE9AFF9488956
:1001600069990AA92BB9F55AD44AB77A966A711ACD
:10017000500A333A122AFDDBDCCBBFFB9EEB799BA6
:10018000588B3BBB1AABA66C877CE44CC55C222C1D
:10019000033C600C411CAEED8FFDECCDCDDD2AADF6
:1001A0000BBD688D499D977EB66ED55EF44E133EAD
:1001B000322E511E700E9FFFBEEFDDDFFCCF1BBF46
:1001C0003AAF599F788F8891A981CAB1EBA10CD120
:1001D0002DC14EF16FE18010A100C230E320045028
:1001E000254046706760B9839893FBA3DAB33DC39B
:1001F0001CD37FE35EF3B1029012F322D232354278
:10020000145277625672EAB5CBA5A89589856EF52A
:100210004FE52CD50DC5E234C324A01481046674C7
:10022000476424540544DBA7FAB79987B8975FE77A
:100230007EF71DC73CD7D326F2369106B016576617
:100240007676154634564CD96DC90EF92FE9C89902
:10025000E9898AB9ABA94458654806782768C01867
:10026000E1088238A3287DCB5CDB3FEB1EFBF98BDA
:10027000D89BBBAB9ABB754A545A376A167AF10AB7
:10028000D01AB32A923A2EFD0FED6CDD4DCDAABDEA
:100290008BADE89DC98D267C076C645C454CA23C07
:1002A000832CE01CC10C1FEF3EFF5DCF7CDF9BAFBA
:1002B000BABFD98FF89F176E367E554E745E932E57
:1002C000B23ED10EF01E00081C181410ABBA83AA5F
:1002D000AA3158000057F685035544020F60E02606
:1002E0001C6B557081317C00007BF9AE02388C327A
:1002F00080401026A16B5510F33151000050F74F8C
:10030000030E44020F58E026A16B557081315CE06A
:10031000005CDB4201AA8C3280301026A16B5510A4
:10032000F3314560004555BB039C80020F68E02611
:10033000A16B5470813158000057F6850355900227
:100340000F60E026A16B5570810011241FBECFEF16
:10035000D0E1DEBFCDBF11E0A0E0B1E0E8E7FBE314
:1003600000E00BBF02C007900D92AC31B107D9F786
:1003700012E0ACE1B1E001C01D92A139B107E1F793
:100380000E94E8190C94BB1D0C9400008FB7F894E0
:10039000992708958FBF08956091E6017091E70154
:1003A0002CB53DB506B602FE04C06F5F7F4F2CB57D
:1003B0003DB588279927CB017727662744275527FE
:1003C000622B732B842B952B0895E6ECF0E06927C4
:1003D000660FF11DE60FF11DC895982F802D3196FF
:1003E000C89590250895880F949890E087FF02C0E3
:1003F000979A01C097989698969A9F5F973011F0B8
:10040000880FF4CF979A9698969A949A80E067FF0F
:1004100002C0979A01C097989698969A8F5F8830F5
:1004200011F0660FF4CF949A979A969A0895609176
:10043000650289E00E94F30160E08BE00E94F30115
:1004400061E180E00E94F3018DE790E00197019661
:100450000197E1F70895282F9FB7F894E82FFF2719
:10046000E25BFE4F80818F3F81F4E0917B02E217D7
:1004700071F40BC02093700204C0FF27E25BFE4FB3
:10048000208320937B0220E007C025E005C08091F7
:1004900070028F3F91F7EECF892F99278FBF822F60
:1004A000992708952F923F924F925F926F927F9279
:1004B0008F929F92AF92BF92CF92DF92EF92FF9274
:1004C0000F931F93CF93DF93CDB7DEB728970FB667
:1004D000F894DEBF0FBECDBF2090DC013090DD016F
:1004E0004090DE015090DF016624772488247EE46A
:1004F000A72E63E8B62ECC24DD24EE24FF2400E0F2
:1005000010E0222D332D442D552D662D772D882D6D
:1005100090E00E94BB1B29833A834B835C836D83ED
:100520007E838F839887822E932EA42EB52E24014E
:10053000350100E20E94B91CA22EB32EC42ED52E86
:10054000C301B20196958795779567956A0D7B1DD6
:100550008C1D9D1D97FF05C09F776F5F7F4F8F4F4D
:100560009F4F6093DC017093DD018093DE019093D7
:10057000DF0128960FB6F894DEBF0FBECDBFDF9126
:10058000CF911F910F91FF90EF90DF90CF90BF9090
:10059000AF909F908F907F906F905F904F903F9023
:1005A0002F9008958FB7F8949927379A8FBF80E0DE
:1005B00090E0089580917302813051F0813050F0C5
:1005C000823021F0833041F478E01BC078E016C01F
:1005D00078E011C078E00CC0813061F0813038F0F3
:1005E000823059F0833061F02FE170E00BC070E091
:1005F00020E008C070E023E005C070E021E002C008
:1006000070E022E0622FEFB7F89480916D018E7F49
:1006100080936D0187B1982F9F71829586958695FD
:10062000837019F080E090E012C0822F88508631EC
:1006300018F081E090E00BC040E050E03327892FB4
:1006400099272817390711F441E050E0CA01982F83
:100650009170990F80916D018178262F2F71422F13
:10066000440F440F892B842B80936D01332727B9C6
:10067000783059F5809171029091720221E08638AC
:10068000920718F087E090E01FC0833C910518F0B6
:1006900086E090E019C08136910518F085E090E081
:1006A00013C08033910518F084E090E00DC08831CC
:1006B000910518F083E090E007C00C9718F082E0F5
:1006C00090E002C080E090E0782F7770887D872BE3
:1006D000886D992786B98E2F99278FBF0895982FF7
:1006E000969596959695E9EEF1E0E90FF11D8770E4
:1006F00021E030E002C0220F331F8A95E2F78081AB
:1007000082239927089561EE80E00E94F3016091B1
:10071000A70189E00E94F3018AEF90E0019701961A
:100720000197E1F76091E2018BE00E94F30184E11F
:1007300090E0019701960197E1F70895E091020199
:10074000F091030185A19927982F882726A13327A7
:10075000822B932BCC96209105013091060147A165
:100760008217930710F4426001C04D7F47A385E0D4
:100770000E942B0285E080933A0108958FB7F89488
:1007800099272BB334E023272BBB8FBF08958FB756
:10079000F89499272091740020933D028FBF08950B
:1007A000EF920F931F93AE2D99E0899FF0011124D2
:1007B000E651FE4F40835183628373830483158324
:1007C00026833783A17080858E7F8A2B8260808705
:1007D00089E00E942B021F910F91EF9008957FB73F
:1007E000F89462B720913E0130913F014091400161
:1007F0005091410106B601FE0FC081B792B7280F94
:10080000311D411D511D2F5F3F4F4F4F5F4F290F2E
:10081000311D411D511D04C0260F311D411D511DAB
:10082000872F99278FBFCA01B90108950E94C70376
:1008300080913D028E7F806980933D028093740099
:100840000895982F969596959695EEE6F1E0E90F26
:10085000F11D877021E030E002C0220F331F8A951E
:10086000E2F780818223992708950F931F93CF93F6
:10087000DF93182F8FB7F894282F3327022F8091FA
:100880002901882331F581E08093290110936B01C0
:100890002FBF8FB7F894C82FDD279C2F80910B01B5
:1008A0008230A9F480912901813021F48EE00E94E8
:1008B0002B0209C0823059F480916B0180930B01A7
:1008C00083E080932901CFBF80E090E025C09FBFE7
:1008D000FBCF80916B01811711F42FBFF5CF812FD2
:1008E0000E942104882319F085E090E014C0E12FD4
:1008F000E695E695E695FF27E259FE4F177081E0F1
:1009000090E002C0880F991F1A95E2F72081282BEA
:10091000208380E090E00FBFDF91CF911F910F9176
:1009200008959FB7F894292F3327422F90910B01F8
:10093000981741F480912901833021F42FBF81E081
:1009400090E008954FBF80E090E00895982F96952D
:1009500096959695E8E7F2E0E90FF11D877021E0A2
:1009600030E002C0220F331F8A95E2F78081822394
:10097000992708950F931F93182F8FB7F894282F56
:100980003327022F80913601882399F491E09093C8
:100990003601109362022FBF80913701882321F422
:1009A00089E10E942B0202C09093380180E090E020
:1009B00023C080916202811711F42FBFF7CF812FDE
:1009C0000E94A604882319F085E090E014C0E12F6E
:1009D000E695E695E695FF27E858FD4F177081E00C
:1009E00090E002C0880F991F1A95E2F72081282B0A
:1009F000208380E090E00FBF1F910F9108958FB783
:100A0000F89499272BB331E023272BBB8FBF089590
:100A1000982F969596959695E8E6F2E0E90FF11DE8
:100A2000877021E030E002C0220F331F8A95E2F781
:100A300080818223992708950F931F93182F8FB7D2
:100A4000F894282F3327022F80912D01882399F4C1
:100A500091E090932D01109346012FBF80913001BA
:100A6000882321F483E10E942B0202C0909331017C
:100A700080E090E023C080914601811711F42FBFE0
:100A8000F7CF812F0E940805882319F085E090E0B8
:100A900014C0E12FE695E695E695FF27E859FD4F4E
:100AA000177081E090E002C0880F991F1A95E2F755
:100AB0002081282B208380E090E00FBF1F910F91B1
:100AC0000895982F969596959695EDE4F1E0E90FA7
:100AD000F11D877021E030E002C0220F331F8A959C
:100AE000E2F78081822399270895DF92EF92FF92A7
:100AF0000F931F938FB7F894282F3327D22E91B7D7
:100B000082B746B7981711F041FF02C02FBF6AC0E5
:100B10008091E3018823E1F10E94EF03E09040021D
:100B2000F09041020091420210914302209149014C
:100B300030914A0140914B0150914C016E197F094F
:100B4000800B910B621773078407950720F01092B2
:100B5000E30171E01EC02E0D3F1D401F511F80910B
:100B60003E0190913F01A0914001B0914101281BAD
:100B7000390B4A0B5B0B273E31054105510540F40B
:100B8000822F223010F070E005C070E082E002C0D9
:100B900070E086EE682F615000B601FCFDCF82B791
:100BA000681709F46F5F20913E0130913F01409139
:100BB000400150914101DA01C9010196A11DB11D09
:100BC000860F911DA11DB11D82179307A407B507BC
:100BD00010F4622F609561BFDFBE772319F088E0C3
:100BE0000E942B021F910F91FF90EF90DF900895CC
:100BF000AFB7F894BB27E1E0E093E30160934002D4
:100C000070934102809342029093430220934901E2
:100C100030934A0140934B0150934C01AFBF0E9467
:100C200075050895EF92FF920F931F93CF93DF9373
:100C3000982F8FB7F894E82E80912301833009F024
:100C400045C080910701891709F040C08091E901F2
:100C5000882309F046C03EC0EF2DE695E695E6955F
:100C6000FF274F2D5527E751FE4F9A01277030700F
:100C700081E090E002C0880F991F2A95E2F78095E5
:100C8000208128232083C093220111C02196C430E3
:100C9000D10511F4C0E0D0E0FC2E8C2F0E946F0330
:100CA0008823D1F6C017D10789F74FEF50E0409362
:100CB00063028FEF8093070181E08093230186E038
:100CC0000E942B02EFBE80E090E011C0EFBE81E0F9
:100CD00090E00DC084E080930701109223013798C3
:100CE000F1CF80912201082F1127E801CFCFDF91AA
:100CF000CF911F910F91FF90EF90089591E0909305
:100D0000E101809373020E94DA0280E090E008958E
:100D1000AF92BF92CF92DF92EF92FF920F931F9309
:100D2000F82E5A016B010E94EF03AB01BC01EE24C7
:100D3000960185018F2D0E94D0031F910F91FF9086
:100D4000EF90DF90CF90BF90AF9008956FE380E079
:100D50000E94F30160E08BE00E94F301089582E0BD
:100D600080933A0110923C0210923B020E941702BB
:100D7000BB98BA9880EC8DB9B898089566EA8EE071
:100D80000E94F30194988CE120E030E087FF02C0DC
:100D9000979A01C097989698969A2F5F3F4F273061
:100DA000310511F0880FF2CF97989698969A8F9800
:100DB000949A80E096989927879B04C0880F991F82
:100DC000816001C0880F969A215030409FEF2F3FDD
:100DD000390781F7949A8F9A979A83FFD3CF66E267
:100DE0008EE00E94F30108951F920F920FB60F92AA
:100DF00011248F9383B783BF00B600FCFDCF8F9182
:100E00000F900FBE0F901F90189578941F920F921D
:100E10000FB60F9211240F900FBE0F901F901895D0
:100E200078941F920F920FB60F9211240F900FBE5D
:100E30000F901F90189578941F920F920FB60F92F3
:100E400011240F900FBE0F901F90189578941F9249
:100E50000F920FB60F9211248F939F9386B597B57B
:100E60009F918F910F900FBE0F901F9018957894BF
:100E70001F920F920FB60F9211242F933F938F93CF
:100E80009F932FB7F89433278091E6019091E70163
:100E900001969093E7018093E6012FBF9F918F9178
:100EA0003F912F910F900FBE0F901F9018951F929A
:100EB0000F920FB60F9211240F900FBE0F901F903C
:100EC00018951F920F920FB60F9211240F900FBE1C
:100ED0000F901F9018951F920F920FB60F9211242A
:100EE0000F900FBE0F901F9018951F920F920FB684
:100EF0000F9211240F900FBE0F901F9018951F9204
:100F00000F920FB60F9211240F900FBE0F901F90EB
:100F100018951F920F920FB60F9211240F900FBECB
:100F20000F901F9018951F920F920FB60F921124D9
:100F30000F900FBE0F901F9018951F920F920FB633
:100F40000F9211240F900FBE0F901F9018951F92B3
:100F50000F920FB60F9211242F933F934F935F93ED
:100F60006F937F938F939F93AF93BF93EF93FF9371
:100F700083B783BF00B600FCFDCF81B799270196E8
:100F8000AA27BB2720913E0130913F0140914001AB
:100F900050914101280F391F4A1F5B1F20933E01CA
:100FA00030933F01409340015093410178940E9457
:100FB0007505FF91EF91BF91AF919F918F917F91B7
:100FC0006F915F914F913F912F910F900FBE0F90B6
:100FD0001F901895CF93DF938FB7F894C82FDD2714
:100FE0009C2F809107018430A9F4809123018130E6
:100FF00021F486E00E942B0209C0823059F48091CE
:1010000063028093070183E080932301CFBF80E0D8
:1010100090E003C09FBF81E090E0DF91CF91089501
:101020000F931F93182F8FB7F894282F3327022F71
:1010300080912301882359F481E080932301109348
:1010400063022FBF0E94D2020E94EA0705C080916E
:101050006302811721F42FBF80E090E01DC0812F33
:101060000E946F03882319F085E090E014C0E12FFF
:10107000E695E695E695FF27E751FE4F177081E06C
:1010800090E002C0880F991F1A95E2F72081282B63
:10109000208380E090E00FBF1F910F910895982F5B
:1010A00080913201833009F047C080911001891787
:1010B00009F042C080910E0120E030E08F3F11F432
:1010C00021E030E0232BF9F48F3F19F42FEF30E0CB
:1010D0000EC0282F3327F901ED58FE4F80818093F1
:1010E0000E018F3F11F480930F018FEF80832093C7
:1010F0003B018FEF8093100181E08093320187E103
:101100000E942B0216C081E08093100110923201E0
:1011100080913301813069F40E94C70380913D02C0
:101120008A7680933D0280937400909891981092F3
:10113000330180E090E0089581E090E00895EF921F
:10114000FF920F931F93CF93DF93982F8FB7F8944D
:10115000E82E80912901833009F045C080910B0170
:10116000891709F040C080916E01882309F045C0BD
:101170003EC0EF2DE695E695E695FF274F2D5527C6
:10118000E259FE4F9A012770307081E090E002C072
:10119000880F991F2A95E2F78095208128232083C4
:1011A000C093280111C02196C230D10511F4C0E0CE
:1011B000D0E0FC2E8C2F0E9421048823D1F6C0178A
:1011C000D10789F74FEF50E040936B018FEF809389
:1011D0000B0181E0809329018EE00E942B02EFBE7B
:1011E00080E090E010C0EFBE81E090E00CC082E0B3
:1011F00080930B0110922901F2CF80912801082FD2
:101200001127E801D0CFDF91CF911F910F91FF906F
:10121000EF9008951F93CF93DF93FA01422F8683B7
:101220006183672F772760832FB7F89433278091E6
:101230000801909109012FBF8383892F9927828309
:1012400082E285838FB7F894282F33279091390154
:1012500091FD04C080913A01882321F42FBF81E0E1
:1012600090E068C0EF01A5969260909339014483A5
:10127000F0937E02E0937D0210A614A613A612A698
:1012800080E881A72FBF1FB7F89480916402826025
:101290008093640280912101843019F482E00E94DD
:1012A0002B028091640280FD0BC00E9452026F717C
:1012B00070706F5F7F4F709345026093440206C069
:1012C00081E090E0909345028093440288812981D7
:1012D0009927782F66273327622B732B77FD05C05C
:1012E000609147017091480102C060957095198224
:1012F00018826115710529F466E070E080E090E0E5
:1013000010C08827992726E632E040E050E00E948E
:101310003C1D672F782F892F99276A5E7F4F8F4F4B
:101320009F4F70936F0260936E02812F99278FBF3A
:1013300080E090E0DF91CF911F910895FB018183C0
:10134000892F9927808383E986838091E401909196
:10135000E501892B19F085E090E008957093E5018F
:101360006093E401448380911301882319F480E0A1
:1013700090E00895868160817727762F6627218106
:101380003327622B732B10921301242FAF010E947D
:101390000A099927282F882339F081E080931301C7
:1013A0001092E5011092E401822F992708950F937E
:1013B0001F93182F042FE82FFF27EE0FFF1FEC516C
:1013C000FE4F1182108210921301E091E401F0911E
:1013D000E501309721F08091740280FF10C081E018
:1013E0008093130103C08CE10E942B021123C1F4EE
:1013F000002311F00E94BE031092D70111C0248176
:10140000332760817727762F662781819927682B7C
:10141000792BAF0186810E940A09882339F3E3CF33
:101420001F910F9108950E94C70380913D028A7F0A
:1014300080933D02809374000E94C70380913D0217
:10144000846080933D028093740081E08093330137
:1014500080913401882349F480911101882329F473
:101460000E94160480E00E944F0808951F93982F51
:10147000809104018430C9F4909304018091230188
:10148000882379F412E010932301109263020E94E2
:10149000D2020E94EA0780910701882349F0109246
:1014A000230180E00E94100809C09093750206C0D5
:1014B0001093E101109273020E94DA0280E090E042
:1014C0001F9108950F931F936BE380E00E94F30137
:1014D00080ED97E0019701960197E1F769E380E0DD
:1014E0000E94F30188EC90E0019701960197E1F7E3
:1014F0000FB7F89411270E94AF060FBF1F910F91ED
:10150000089580912101823069F480910401843032
:1015100019F085E08093040181E08093210180E04F
:101520000E942B0208951F920F920FB60F92112462
:101530006F927F928F929F92AF92BF92CF92DF92E3
:10154000EF92FF920F931F932F933F934F935F93CD
:101550006F937F938F939F93AF93BF93CF93DF93BB
:10156000EF93FF931FB1809177028FB9609139019A
:1015700062FD109580913A01883009F444C08930A9
:1015800098F4843009F456C2853038F4823009F476
:1015900070C1833009F01FC3B7C1863009F4EBC2B4
:1015A000873009F018C315C08B3009F4DBC08C30CC
:1015B00030F48930A9F18A3009F00DC3C5C08D30EF
:1015C00009F40FC18D3008F4ECC08E3009F003C36C
:1015D0003AC1809142018093770280913B029091C1
:1015E0003C02019690933C0280933B0220916E0254
:1015F00030916F028217930708F4EDC283E3809362
:10160000420188E0E6C280914201809377028CEC2F
:101610008093420189E080933A018FEF9FEF57C298
:10162000C0917D02D0917E022091420120937702E9
:1016300080913B0290913C02019690933C028093F2
:101640003B022C3C09F05CC00E94CC013B014C01E8
:10165000E0917D02F0917E0264A7BB27A92D982D11
:10166000872D83A7C401AA27BB2782A7892D992785
:10167000AA27BB2781A7E0917D02F0917E0280A579
:101680008823F1F184818D5FE80FF11D2081E180D5
:101690008281A3809927AA27BB27BA2FA92F982F29
:1016A0008827332744275527522F442733272227BB
:1016B000FF24002711278701FF24EE242E293F292C
:1016C000402B512BBB24CC24DD242A293B294C2937
:1016D0005D29822B932BA42BB52B86199709A8097A
:1016E000B9098383292F3A2F4B2F552722839D0138
:1016F0004427552721838B2F9927AA27BB2780832F
:10170000E0913B02F0913C028C8199270796E81703
:10171000F907A0F480917D0290917E02E80FF91FF5
:1017200060816093420180914401909145010E9443
:10173000E50190934501809344014DC2809144019D
:10174000809342018AE045C28091420180937702F2
:101750008091440190914501892F992780934201FE
:101760008BE013C0809142018093770280913B020D
:1017700090913C02019690933C0280933B02049727
:1017800008F429C260FF08C08CE080933A011092EF
:101790003C0210923B021FC2BB98BA980E941702EB
:1017A00017C2809142018093770280913B02909111
:1017B0003C02019690933C0280933B02813091055C
:1017C00029F4BB98BA980E94170205C2049708F43E
:1017D00002C28DE080933A0110927A02109279024F
:1017E000D6CF809142018093770280913B02909105
:1017F0003C02019690933C0280933B0280917902D7
:1018000090917A0220E0880F991F17FD81603AEBD2
:101810008338930709F4D1C12F5F283011F0110FDD
:10182000F2CF90937A028093790280913B0290915B
:101830003C02429708F4CFC1E0917D02F0917E0214
:1018400087A18E7FC4C184E00E942B028091640234
:101850008D7F8093640280910401843019F085E0CB
:101860008093040181E08093210180E00E942B029B
:10187000B2C11A3A19F0153509F099C180913B02AD
:1018800090913C02019690933C0280933B02039717
:1018900058F083E080933A0110923C0210923B0290
:1018A00010927A021092790291E08091640281FF95
:1018B00092C180FD0DC0992359F00E9452026F70B1
:1018C00070706F5F7F4F709345026093440283C1D5
:1018D0008091440290914502009709F47CC10197E0
:1018E0009093450280934402892B09F074C1809142
:1018F0000401843019F085E08093040110926D0298
:1019000082E00E94360A67C11A3A11F0153529F4AF
:10191000812F9927982F882714C080913B0290919E
:101920003C02019690933C0280933B0281309105EA
:1019300069F4212F33278091790290917A02822BCA
:10194000932B90937A028093790245C1079708F010
:101950006FC00E94CC013B014C01C0917902D09133
:101960007A029C2F8827212F3327822B932B909349
:101970007A028093790207E0CC0FDD1F17FDC1606A
:1019800083E3CC3CD80709F04DC0E0910201F0910F
:10199000030184E080933A018CE1848310923C023D
:1019A00010923B0210924501109244018091040173
:1019B000843019F085E08093040182E08093210156
:1019C000802F8770880F880F880FE0913901E77C9E
:1019D000E82BE0933901E695E695E695E770FF2759
:1019E000EC5EFE4F8081992787FD9095A92FB92F36
:1019F000681A790A8A0A9B0AE0910201F0910301B0
:101A000064A6BB27A92D982D872D83A7C401AA27DB
:101A1000BB2782A7892D9927AA27BB2781A780E00A
:101A20000E94360A01500F3F09F4D5C0110FA4CF10
:101A300082E0ABCEE0910201F091030144814D318F
:101A400050F082E080933A0110923C0210923B02E7
:101A50000E94810AC0C08091790290917A02982FE9
:101A60008827212F3327822B932B90937A02809300
:101A70007902669566956695677002C0969587951A
:101A80006A95E2F7BC0180913B0290913C02E80F1D
:101A9000F91F60834C010894811C911C90923C02B8
:101AA00080923B02495F642E77246814790450F0D9
:101AB00080914401909145010E94E5019093450178
:101AC000809344018614970439F483E290E0909364
:101AD0003C0280933B027FC035E28316910409F0FB
:101AE0007AC0E0910201F091030184A123A140E0BA
:101AF00050E09927982F88273327822B932B20910A
:101B00004401309145018217930711F441E050E000
:101B1000242F43A3852F9927482F84A3809139012F
:101B200080FF39C0842F9927982F88273327822B4D
:101B3000932B892B81F1808141812FB7F894332732
:101B400060910801709109012FBF9927982F88276C
:101B50005527842B952B86179707E9F486E0809309
:101B60003A0110923C0210923B020E948303BB9AFE
:101B7000BA9A8AEA19C0E0913B02F0913C02319690
:101B8000F0933C02E0933B02E031F10538F00E9413
:101B90001702BB98BA980E949E031DC0EB30F10556
:101BA000D0F0EF53FD4F84918093770214C01092D0
:101BB0003C0210923B0290E078CE90937A028093A0
:101BC0007902E0917D02F0917E0287A1816087A376
:101BD0008EE080933A01FF91EF91DF91CF91BF9119
:101BE000AF919F918F917F916F915F914F913F91B5
:101BF0002F911F910F91FF90EF90DF90CF90BF90AA
:101C0000AF909F908F907F906F900F900FBE0F902E
:101C10001F9018951F920F920FB60F9211241F93C9
:101C20002F933F934F935F936F937F938F939F93E4
:101C3000AF93BF93CF93DF93EF93FF93C4B1D5B12D
:101C400078948FB7F894992720916D01322F3695AB
:101C5000317021708FBF222309F0E0C0339880914A
:101C6000E101813021F0823009F0FEC00AC0332347
:101C700051F0D0933F02C0933E0287E00E942B02B6
:101C8000F3C0332319F40E94DA02EEC01092E1018E
:101C900080917302882309F0E7C01FB7F894809100
:101CA0000401813089F0813030F08230B1F083302E
:101CB00009F09CC056C0E0910201F0910301C6A357
:101CC0008D2F992785A392C0D0937601C09375017B
:101CD00083E00E942B0282E069C020916D022F5F99
:101CE00020936D0280910501909106010C968C174E
:101CF0009D0740F4809174018F5F80937401882365
:101D000039F402C0109274018091640280FF18C0FF
:101D100083E08093210187E080933A0110923C0296
:101D200010923B0210924501109244018AEA80937E
:101D30004201809377020E948303BB9ABA9A56C0ED
:101D4000253059F40E9452026F7070706F5F7F4FA0
:101D5000709345026093440249C082E00E94360AB3
:101D600045C080910501909106019C01369527950B
:101D700036952795821B930B8C179D07D0F482E034
:101D80000E942B0280910501909106019C0143E085
:101D9000369527954A95E1F7820F931FC817D90703
:101DA00028F5D0937601C093750183E00E942B0241
:101DB0001DC080916D028F5F80936D0281508630CF
:101DC00060F085E08093040181E08093210180E050
:101DD0000E942B020E94AF0609C083E00E94360ACF
:101DE00080E590E0019701960197E1F780917502F7
:101DF00080930401843059F084E08093750282E07E
:101E00008093E101109273020E94DA0203C080E025
:101E10000E941206812F99278FBF26C08FB7F89492
:101E200099278FBF2FB7F894332786B1582F577053
:101E3000482F4072987D942B952B8074977B982B1C
:101E400090619F77892F992786B9887D842B852B70
:101E500087738061992786B9887D842B852B877B42
:101E60008069992786B92FBFFF91EF91DF91CF91BC
:101E7000BF91AF919F918F917F916F915F914F91A2
:101E80003F912F911F910F900FBE0F901F901895AB
:101E90001F920F920FB60F9211242F933F934F93DF
:101EA0005F936F937F938F939F93AF93BF93EF93C2
:101EB000FF930E94C70380913301843009F4C7C0A7
:101EC000863021F0833009F0EFC03EC09091710060
:101ED000987F80913401813041F4903499F583E00A
:101EE000809333012091670244C0983159F583E013
:101EF000809333019091670280913D0120913D02D2
:101F0000981708F472C0922F9E7F90933D028091A3
:101F10007C0281FF07C08D7F80937C02906190934B
:101F20003D0203C02E7720933D0280913D028093B5
:101F3000740081E08093330180911101882309F0BE
:101F4000B3C07FC084E098C0809134019091670253
:101F5000813009F044C0E0917101F0917201E90F04
:101F6000F11D809173008083209167022F5F209381
:101F7000670280913D012817A0F433279927019724
:101F80002817390749F480917C0282FD05C08091B1
:101F90003D028F7B80933D0280913D0280937400CF
:101FA00083C090913D02292F2E7F20933D02809186
:101FB0007C0281FF09C08D7F80937C022061209389
:101FC0003D028091710003C09E7790933D02809105
:101FD0003D028093740081E08093330165C080915D
:101FE0003D0120913D02981778F4E0917101F09144
:101FF0007201E90FF11D8081809373009F5F9093C0
:1020000067022093740050C0922F9E7F90933D02F0
:1020100080917C0281FF07C08D7F80937C0290615C
:1020200090933D0203C02E7720933D0280913D02A4
:102030008093740081E080933301809111018823A3
:1020400099F50E94160480E00E944F082DC08091EF
:102050007C028E7F80937C0290913D029F7D9093C5
:102060003D0280917100887F883049F08091710035
:10207000887F803121F081E00E94130A15C0392F3A
:10208000306430933D029091D901990F20E0809106
:102090003401813009F421E0922B9093730086E0A3
:1020A0008093330130937400FF91EF91BF91AF9112
:1020B0009F918F917F916F915F914F913F912F9160
:1020C0000F900FBE0F901F901895EF920F931F93D4
:1020D000A49AAC9A0E94EF03AB01BC01E1E0EE2EA2
:1020E00001E110E020E030E085E00E94D00380E0D4
:1020F00090E01F910F91EF900895EF920F931F932F
:1021000089B78F7789BFA39AAB9AA69AAE98AE9AF1
:1021100080910D0110926F01809370018FB7F89438
:10212000282F3327922F80913201882309F045C050
:10213000A1E0EA2EE092320110923B012FBF8FB74F
:10214000F894082F1127809133018823C9F4909ABD
:10215000919A889889981092710081E48093700018
:1021600010927200109274000E94C70380913D0289
:1021700084608E7F80933D0280937400E0923301EF
:102180000FBF8FB7F894082F1127902F809110015F
:10219000813059F580913201813021F487E10E942C
:1021A0002B0209C0823009F580913B018093100118
:1021B00083E0809332010FBF1FC080913B018823D1
:1021C00011F42FBF19C0809173018F3F71F4E0911A
:1021D0000F01EE2351F00BC010920E0104C0FF2737
:1021E000ED58FE4F108210920F019FBF05C08091E5
:1021F0000E018F3FA1F7F0CF0E94EF03AB01BC01AE
:10220000F1E0EF2E00EB14E020E030E087E00E94E8
:10221000D00380E090E01F910F91EF900895AF926E
:10222000BF92CF92DF92EF920F931F935B016C01ED
:102230000E94EF03AB01BC01B1E0EB2E96018501DA
:1022400080E00E94D0031F910F91EF90DF90CF901C
:10225000BF90AF90089580912101843061F1853065
:1022600019F1813081F58091F20181FD2CC090E05F
:10227000809143018F3108F091E0992381F08091A2
:10228000470190914801892B29F460E07AE080E0D1
:1022900090E00EC06EE170E080E090E009C060E880
:1022A00070E080E090E004C061E070E080E090E0E9
:1022B0000E940F110895609147017091480188278D
:1022C00099270E940F110895AF92BF92CF92DF928B
:1022D000EF92FF920F931F93CF93DF935B016C01FB
:1022E000C0E0D0E0EAEEF1E0608561FF5DC22081F0
:1022F000318142815381E480F58006811781D601C6
:10230000C501821B930BA40BB50B8E159F05A0076F
:10231000B10708F449C260FF03C06D7F608708C041
:102320002E0D3F1D401F511F208331834283538355
:10233000C43009F4FCC0C53048F4C23009F44DC0C3
:10234000C33008F0B3C0CC2371F034C2C63009F4F6
:1023500072C1C63008F433C1C73009F4EBC1C830CC
:1023600009F028C21FC28FB7F894C82FDD271C2F91
:10237000809121018430B9F08530F9F0813049F540
:1023800090E080913A01833009F491E0992309F5B6
:1023900080910401843019F085E08093040181E08C
:1023A0000E94360A16C085E08093210110926D02CA
:1023B00069E380E00E94F3010CC00E94170283E0F1
:1023C0000E94360A80E590E0019701960197E1F7B7
:1023D00025C10E942B111FBFEDC18091DB018A3006
:1023E000C9F58091D7018823E1F4AFE7B1E0E6E4D5
:1023F000F2E08CE101900D928150E1F74CE168E749
:1024000071E08FEF9FEF0E949E09882321F481E005
:102410008093D70106C08091D701882311F40E94D0
:10242000BE031092DB0180917602882389F48091AB
:102430004C029927982F882720914D023327822B11
:10244000932B019680934D02892F992780934C02FC
:10245000109276028FB7F894282F3327122F80918D
:102460002501882389F491E0909325011092D801E9
:102470002FBF80912601882321F48CE00E942B023B
:1024800098C09093270195C08091D801882311F4BA
:102490002FBF8FC080E00E946105882329F48091BE
:1024A0004D01816080934D011FBF83C08091DB018E
:1024B0008A30C9F58091D7018823E1F4AFE7B1E014
:1024C000E6E4F2E08CE101900D928150E1F74CE1FD
:1024D00068E771E08FEF9FEF0E949E09882321F447
:1024E00081E08093D70106C08091D701882311F441
:1024F0000E94BE031092DB0180917602882389F44A
:1025000080914C029927982F882720914D023327DC
:10251000822B932B019680934D02892F99278093CC
:102520004C021092760280E00E941C0540C080910F
:10253000DB018A30C9F58091D7018823E1F4AFE748
:10254000B1E0E6E4F2E08CE101900D928150E1F718
:102550004CE168E771E08FEF9FEF0E949E098823AE
:1025600021F481E08093D70106C08091D7018823B0
:1025700011F40E94BE031092DB0180917602882341
:1025800089F480914C029927982F882720914D0239
:102590003327822B932B019680934D02892F992705
:1025A00080934C021092760280E00E94BA04882345
:1025B00019F00E94BE03FEC00E94FF04FBC09FB73B
:1025C000F89420912501222319F421E030E00FC076
:1025D00080910A01813019F020E030E008C040E02D
:1025E00050E02150223010F441E050E09A01892F50
:1025F00099278FBF222309F4DDC08FB7F894C82F25
:10260000DD279C2F80910A01813009F0C9C080919B
:102610002501813029F48BE00E942B02CFBFCAC074
:10262000823009F0BDC08091D80180930A0183E017
:1026300080932501F3CF80E00E949104882309F460
:102640003AC09FB7F89420912A01222319F421E07F
:1026500030E00FC080912B01882319F020E030E09A
:1026600008C040E050E02150223010F441E050E03A
:102670009A01892F99278FBF2223E9F08FB7F89409
:10268000C82FDD279C2F80912B01882399F48091FE
:102690002A01813021F48FE00E942B0209C0823090
:1026A00049F48091E80180932B0183E080932A0113
:1026B000CFBF01C09FBF81E00E949104882309F42D
:1026C00079C09FB7F89420912D01222319F421E0BD
:1026D00030E00FC080910C01813019F020E030E033
:1026E00008C040E050E02150223010F441E050E0BA
:1026F0009A01892F99278FBF222309F45BC08FB7D6
:10270000F894C82FDD279C2F80910C01813009F0AF
:1027100047C080912D01813011F480E17DCF82305E
:1027200009F03EC08091460180930C0183E08093C4
:102730002D0174CF9FB7F89420913601222319F40C
:1027400021E030E00FC080911201813019F020E0CB
:1027500030E008C040E050E02150223010F441E069
:1027600050E09A01892F99278FBF222319F18FB743
:10277000F894C82FDD279C2F80911201813081F4BD
:1027800080913601813011F488E146CF823041F4E6
:10279000809162028093120183E0809336013ECFE4
:1027A0009FBF08C0AA9806C021963996C930D105A6
:1027B00009F09ACD89E00E942B02DF91CF911F9101
:1027C0000F91FF90EF90DF90CF90BF90AF90089562
:1027D0009F92AF92BF92CF92DF92EF92FF920F93B0
:1027E0001F93CF93DF93CDB7DEB762970FB6F89400
:1027F000DEBF0FBECDBFE82FFF27ED31F10508F09A
:10280000B8C5EA5BFF4FEE0FFF1F0590F491E02D76
:10281000099480917402882309F4ABC520E011E08B
:102820004EC50FB7F89411270E942B11DBC08FB74C
:10283000F8949927209121018FBF222309F499C58B
:1028400048EE53E060E070E082E00E94880610925B
:10285000DB018FC51FB7F8948091640281FD06C02B
:102860008091470190914801892BA1F48091210129
:102870008450823098F580910401843019F085E00D
:102880008093040181E08093210180E00E942B026B
:1028900021E025C090E0809143018F3108F091E064
:1028A0009923E1F090E080913A01833009F491E0BE
:1028B0009923A1F40E94A60681E080933A016F98C3
:1028C000B89AC09880910401843019F085E0809313
:1028D000040184E0809321010E942B1120E0812FCC
:1028E00099278FBF222309F444C50E94620A41C57B
:1028F0008FB7F894992720917501309176018FBF99
:1029000080913C01E82FFF27EE0FFF1FE158FD4F9C
:10291000318320838F5F80933C01893010F01092C7
:102920003C01809143018F3118F48F5F8093430104
:10293000DE011196EFE7F2E082E101900D92815005
:10294000E1F760E08E010F5F1F4F41E050E0DE01D4
:102950001396E52FFF27EE0FFF1FE00FF11F2D91BC
:102960003C911197808191818217930708F4542F2D
:102970004F5F1296493069F7E52FFF27633041F02A
:10298000EE0FFF1FE00FF11F118210826F5FDDCF8E
:10299000609105017091060188279927B5E0660FBF
:1029A000771F881F991FBA95D1F7EE0FFF1FE00F11
:1029B000F11F2081318144275527220F331F441FE7
:1029C000551F620F731F841F951F0FB7F8941127AF
:1029D00022E230E040E050E00E945B1D30930601AF
:1029E000209305010FBFC5C42FB7F894332740913A
:1029F0007D0250917E02809139018D7F8093390153
:102A000082E080933A0110923C0210923B022FBF69
:102A100080911301882309F0ACC46091E4017091A6
:102A2000E5016417750709F0A4C440E072C48FB7CC
:102A3000F894282F332780913A01853009F011C48A
:102A400000910201109103012FBFF80184A123A17D
:102A50009927982F88273327822B932B019709F0EA
:102A600078C0808141812FB7F894332760910801A5
:102A7000709109012FBF9927982F88275527842BFC
:102A8000952B8617970761F0808121819927982FD0
:102A900088273327822B932B8F5F9F4F09F059C0D4
:102AA000F8018681833909F054C00E94FF04F801BF
:102AB000878120859927582F44273327422B532B72
:102AC000809146029927982F882720914702332723
:102AD000822B932B84179507E8F440934702852FA8
:102AE000992780934602818522859927982F8827E8
:102AF0003327822B932B80934902892F9927809328
:102B0000480248EE53E060E070E082E00E948806F0
:102B10001092DB01F801858526859927582F4427D7
:102B20003327422B532B80914C029927982F8827CB
:102B300020914D023327822B932B8417950748F45D
:102B400040934D02852F992780934C0281E080931A
:102B50007602FFB6F8940115110521F010930301D8
:102B60000093020180913A01853039F482E080932C
:102B70003A0110923C0210923B020E94810A8F2D72
:102B800099279AC38FB7F8949927209163022093CD
:102B9000070123E0209323018FBF8091070181303B
:102BA00081F0813030F0823071F0833009F0E1C380
:102BB0000EC082E08093E101109273020E94DA025B
:102BC000D8C381E001C082E00E947E06D2C383E0C8
:102BD000FBCF1092E101A0903E02B0903F028091A5
:102BE0007302823039F0833049F0813059F40E9409
:102BF000120611C082E00E941206BEC083E00E944D
:102C0000120621C1823009F4B7C0833009F41BC118
:102C1000813009F0AEC38FB7F894C82E809125019A
:102C2000833009F041C080910A018823E9F5809141
:102C30004D01882309F079C36FC3ED2DE695E69524
:102C4000E695FF274D2D5527E35BFE4F9A01277030
:102C5000307081E090E002C0880F991F2A95E2F75A
:102C600080952081282320830093240112C00F5FC8
:102C70001F4F0130110511F400E010E0D02E802F1D
:102C80000E9461058823C9F60E151F0581F74FEFD5
:102C900050E04093D8018FEF80930A0181E0809348
:102CA00025018BE00E942B02CFBEE091DB01EA30D0
:102CB00050F58E2F8F5F8093DB01FF27EE0FFF1FF4
:102CC000E25BFD4FA1822B2D332720839501442702
:102CD0005527823080F080911D0190911E01A091B6
:102CE0001F01B0912001280F391F4A1F5B1F569505
:102CF00047953795279520931D0130931E014093EA
:102D00001F01509320018091DB018A3011F58091E1
:102D10001D0190911E01A0911F01B0912001855BC2
:102D20009140A040B0400697A105B10540F48091C4
:102D30001C018F3F31F08F5F80931C0102C0109205
:102D40001C0110921D0110921E0110921F01109281
:102D5000200180911C018B3008F40BC380E00E949D
:102D60001C05882309F06CC08FB7F89499272BB302
:102D700032E023272BBBA0C280E00E94910481E0B7
:102D80000E949104882309F4F4C29090E0018FB767
:102D9000F894C82E80912D01833009F041C08091B4
:102DA0000C018915E9F580916802882309F0CCC2ED
:102DB000C2C2ED2DE695E695E695FF274D2D5527E8
:102DC000E859FD4F9A012770307081E090E002C011
:102DD000880F991F2A95E2F7809520812823208368
:102DE00000932C0112C00F5F1F4F0130110511F429
:102DF00000E010E0D02E802F0E9408058823C9F63D
:102E00000E151F0581F74FEF50E0409346018FEFFD
:102E100080930C0181E080932D0180E10E942B02C0
:102E2000CFBE992009F0A5C2F3E0AF16F2E0BF06CD
:102E300008F49FC280E00E94BA04882309F499C272
:102E40000E94BE0396C28FB7F894C82E80913601B7
:102E5000833009F041C0809112018823E9F5809107
:102E60007802882309F07FC275C2ED2DE695E695BC
:102E7000E695FF274D2D5527E858FD4F9A012770FD
:102E8000307081E090E002C0880F991F2A95E2F728
:102E900080952081282320830093350112C00F5F85
:102EA0001F4F0130110511F400E010E0D02E802FEB
:102EB0000E94A6048823C9F60E151F0581F74FEF5F
:102EC00050E0409362028FEF8093120181E0809383
:102ED000360188E10E942B02CFBE2EE33EEFA20E08
:102EE000B31E35E6A316B10408F443C20E94FF04E2
:102EF00080913A0281FF2BC0E0903602F0903702B9
:102F000000913802109139020E94EF039B01AC013D
:102F10008091320290913302A0913402B091350237
:102F2000281B390B4A0B5B0B2E153F054007510739
:102F300070F4E21AF30A040B150B49EEE41643E0B1
:102F4000F40640E0040740E0140708F012C20E94B3
:102F5000EF03AB01BC01A1E0EA2E08EE13E020E094
:102F600030E088E00E94D003A29AAA9A02C280911F
:102F70006C01882361F52091690230916A024091C9
:102F80006B0250916C02EFB7F894FF2760914002FA
:102F9000709141028091420290914302E090490178
:102FA000F0904A0100914B0110914C016E0D7F1D74
:102FB000801F911FEFBF2093690230936A024093F4
:102FC0006B0250936C0210926C010E94F8050E94F3
:102FD000EF0343C00E94EF035B016C018FB7F894CD
:102FE00099271092E3018FBFFFEFEF2EFFEFFF2E27
:102FF000FFEF0F2FFFE71F2F60E0EAEEF1E0808583
:1030000081FF1CC080819181A281B381A6019501BD
:10301000281B390B4A0B5B0BDA01C901248135816E
:1030200046815781281B390B4A0B5B0B2E153F0538
:10303000400751071CF479018A0161E0399632E0BA
:10304000EB33F307E1F6662309F493C11E141F0462
:10305000100611062CF0C601B5010E94641189C149
:10306000E0926902F0926A0200936B0210936C0284
:1030700081E080936C01A8019701C601B5010E940F
:10308000F80577C1AC9880912701813011F40E9436
:1030900065108FB7F8949927109227011092260196
:1030A0000BC12FB7F89433278091D80180930A0180
:1030B00083E0809325012FBF80910A01882309F0C6
:1030C00058C181E0E1C00E94651053C18AE04FC041
:1030D0008FB7F894992720916B0120930B0123E07F
:1030E000209329018FBF80910B01882321F081302B
:1030F00009F03FC103C0159A1D9A02C0A09AA89A70
:103100000E94EF03AB01BC01E1E0EE2E0AE010E00B
:1031100020E030E086E00E94D0032BC18FB7F89406
:1031200099272091E80120932B0123E020932A0185
:10313000C3C02FB7F89433278091460180930C01C8
:1031400083E080932D012FBF80910C018093E001DB
:1031500082E09AC080E005C01D98159885E107C0FF
:1031600081E00E94350405C1A898A09886E10E94DC
:103170002B02FFC080E00E949F0880912F018130C8
:1031800019F480E00E9435048FB7F89499271092C3
:103190002F0110922E0190C081E00E949F08809123
:1031A0003101813011F40E9435048FB7F8949927CA
:1031B00010923101109230017FC02FB7F89433275D
:1031C00080913B018093100153E0509332012FBF57
:1031D000209110018FB7F8949927209311018FBF88
:1031E000222309F0C6C08FB7F894282F3327809187
:1031F0001101882309F035C02FBF8FB7F8949927A4
:1032000020913301213009F057C042E0409333014F
:103210008FBF2FB7F89433278DE290E09093DA01B7
:103220008093D9018FE691E09093720180937101B0
:1032300040933D0150937C0210926702109234013A
:103240002FBF0E94C7032FB7F894332780913D0208
:103250008F7E816E80933D0294E090933301809342
:1032600074002FBF86C02FB7F89433278091620275
:103270008093120183E0809336012FBF8091120169
:10328000882309F076C083E00E94100872C00E9473
:103290007D106FC089B78F7789BFAB98A398809155
:1032A0003801813011F40E947D108FB7F89499276E
:1032B00010923801109237018FBF5BC0110F9091AF
:1032C0007402812F8923B1F0E22FFF27EE0FFF1F39
:1032D000EC51FE4F11821082812F8095982390939C
:1032E0007402222339F40E94BE031092D701110FF9
:1032F00021E0E5CF2F5F283008F33BC08091130118
:10330000E82FFF27EE0FFF1FEC51FE4F6081718108
:1033100041E00E94D7092DC081E080930A011092FC
:103320002501809326018DE0BDCC80912401E82EFB
:10333000FF2487019CCC81E080930C0110922D0129
:103340008093300184E16ACD80912C01E82EFF2426
:10335000870149CD81E0809312011092360180935C
:1033600037018AE1B7CD80913501E82EFF2487012E
:1033700096CD62960FB6F894DEBF0FBECDBFDF913B
:10338000CF911F910F91FF90EF90DF90CF90BF9062
:10339000AF909F900895809170028F3FB1F0282FD9
:1033A0003327F901E25BFE4F8081809370028F3FEB
:1033B00011F480937B028FEF80832F3F31F0822FB7
:1033C0000E94E81381E090E0089580E090E0089585
:1033D000FF920F931F93CF93DF93FFB6F8944DE1C5
:1033E00050E06FEF70E08EE491E00E94B41D8FEF2B
:1033F0008093700280937B0281E08EBD88E080BF65
:1034000083E083BF8CB59DB54AE72CB53DB5281741
:10341000390708F44150442311F0C901F6CF92B79F
:1034200082B78917E9F32CB53DB592B782B78917F2
:10343000E9F38CB59DB5821B930B409665E096959C
:1034400087956A95E1F7909372028093710213BE9B
:1034500083B78EBD8EB580BF12BE1DBC1CBC8FEF66
:1034600086BF86B780937C0080B79927877090705D
:10347000892BD1F7D29AD19AD09ADA9AD99AD89A36
:1034800015BA8FEF84BBD498DC981DBC1CBC87B7E1
:10349000846087BF8EB5887F84608EBD16B8D6984D
:1034A0008C9A8E9A8F9A949A979A969A6FE380E064
:1034B0000E94F30160E08BE00E94F301B998BF988D
:1034C000BB98BA980E94CB198823E1F71092780232
:1034D0008FEF809373011092680210926E01109228
:1034E0004D0180B7886080BF8BE083BF86EE81BFCF
:1034F00087B7826087BF0E94750580910001909117
:1035000001010196AA27BB278093DC019093DD017E
:10351000A093DE01B093DF011092E901809139019F
:103520008160809339016B986A986F9A6E9A6AE30A
:1035300080E00E94F3016BE380E00E94F30180EDE4
:1035400097E0019701960197E1F780E88093E20107
:1035500060E88BE00E94F30160E984E00E94F301DF
:1035600060E08FE00E94F3016FE680E10E94F301CA
:1035700065E581E10E94F30161E083E10E94F301CE
:1035800001E010E0CAEFD2E0FE016491802F0E94BA
:10359000F3010F5F1F4F21960D301105A9F7CBE006
:1035A000D3E0FE01649182E10E94F3012997FE01BC
:1035B0008491809365022A96FE0184918093A701ED
:1035C0002897FE0184918093E20160E08BE00E94E5
:1035D000F3016FE382E40E94F30161E180E00E9465
:1035E000F3010E94BE0661EE80E00E94F30160914B
:1035F000A70189E00E94F30160E08BE00E94F301E3
:103600000E94BE060E9417020E94A606EFE7F2E0A3
:1036100080E291E08193919322E0E139F207D1F7C2
:103620000E94CB198823E1F78F2D99278FBF7894BB
:103630001092490221E0209348028091000190916C
:10364000010180934B02892F992780934A028FB7FB
:10365000F894C82FDD2780912101882301F520935C
:103660003A01809139018D7F846080933901809186
:103670000401843019F085E0809304012093210136
:1036800080E00E942B02809164028D7F809364020F
:10369000CFBF0E94620A81E00E942B0201C0CFBF0F
:1036A0008FB7F894482F55274BC087B79927837059
:1036B0009070892B19F4E5E0F0E013C080B79927EA
:1036C00087709070892BD1F781B792B7891B8C30A6
:1036D00030F082B7853F18F4E3E0F0E002C0E2E0AA
:1036E000F0E087B7887BC1F480917D008B7FA1F4E7
:1036F0006E9912C08AB190919A00892B887161F4F9
:103700008091740082FD08C0379B03C081E090E087
:1037100005C085E090E002C080E090E025B78E17FC
:1037200008F4E82FFF27EA53FD4FE491237E20623F
:10373000E22BE5BF78948895F89485B78F7D85BF97
:10374000809170028F3F09F4B0CF282F3327F90101
:10375000E25BFE4F8081809370028F3F11F4809373
:103760007B028FEF80832F3F09F49FCF4FBF822FC3
:103770000E94E81395CFACE2B0E0E1ECFBE10C94E1
:103780007D1D222E332E442E552E662E772E882E0A
:10379000992EFE013196A8E01192AA95E9F72982A7
:1037A0003A824B825C826D827E828F829886FE0195
:1037B0003996B8E01192BA95E9F7A986BA86CB8610
:1037C000DC86ED86FE860F87188B89819A81AB8116
:1037D000BC8189A79AA7ABA7BCA77C018D018FEFFD
:1037E0009FEFA0E0B0E0E822F9220A231B2389A57D
:1037F0009AA5ABA5BCA51D014424552489859A85AD
:10380000AB85BC858DA39EA3AFA3B8A75C016D015A
:103810008FEF9FEFA0E0B0E0A822B922CA22DB22FE
:103820008DA19EA1AFA1B8A53D0188249924C8010E
:10383000B701A60195010E943C1D69A37AA38BA341
:103840009CA3C801B701A40193010E943C1D7B0108
:103850008C01C201B101A60195010E943C1D5B01D2
:103860006C01C201B101A40193010E943C1D3B0106
:103870004C01EA0CFB1C0C1D1D1D89A19AA1ABA1DA
:10388000BCA19D01442755272E0D3F1D401F511FF0
:103890002A153B054C055D0540F480E090E0A1E071
:1038A000B0E0680E791E8A1E9B1ECA01AA27BB279C
:1038B000860D971DA81DB91D8D8F9E8FAF8FB8A344
:1038C000A9013327222789A19AA1ABA1BCA1A0708D
:1038D000B070280F391F4A1F5B1F298F3A8F4B8FFB
:1038E0005C8FA98CBA8CCB8CDC8CED8CFE8C0F8D14
:1038F00018A1FE01719698E011929A95E9F7ED8A68
:10390000FE8A0F8B188F2D813E814F8158856DA1C6
:103910007EA18FA198A50E943C1D3B014C012D85E5
:103920003E854F85588969A57AA58BA59CA50E94DF
:103930003C1D2D893E894F89588D260F371F481F02
:10394000591F260D371D481D591D2D8B3E8B4F8B42
:10395000588F6D887E888F88988C2A2D3B2D4C2D12
:103960005D2D662D772D882D992DE2E1AC960C9476
:10397000991DA0E1B0E0EFEBFCE10C947D1D222E3F
:10398000332E442E552E662E772E882E992E002308
:1039900009F466C088E0FE01319611928A95E9F734
:1039A00029833A834B835C836D837E838F829887E0
:1039B000E0E2E01B1E16CCF52D813E814F8158853B
:1039C000602F772767FD7095DA01C901062E04C0C4
:1039D000B695A795979587950A94D2F78D879E8778
:1039E000AF87B88B04C0220F331F441F551FEA95C1
:1039F000D2F789819A81AB81BC8104C0B695A79525
:103A0000979587956A95D2F7282B392B4A2B5B2BF4
:103A100029873A874B875C8729843A844B845C8466
:103A20006D847E848F8498881BC01D861E861F86A9
:103A3000188A2E2F332727FD3095309521953F4F3B
:103A40008D819E81AF81B88504C0B695A795979565
:103A500087952A95D2F789879A87AB87BC87DCCF71
:103A6000222D332D442D552D662D772D882D992D02
:103A7000E2E160960C94991D629FD001739FF00162
:103A8000829FE00DF11D649FE00DF11D929FF00DEE
:103A9000839FF00D749FF00D659FF00D9927729F25
:103AA000B00DE11DF91F639FB00DE11DF91FBD01B0
:103AB000CF0111240895A1E21A2EAA1BBB1BFD0100
:103AC0000DC0AA1FBB1FEE1FFF1FA217B307E407FD
:103AD000F50720F0A21BB30BE40BF50B661F771F55
:103AE000881F991F1A9469F7609570958095909535
:103AF0009B01AC01BD01CF0108952F923F924F92DF
:103B00005F926F927F928F929F92AF92BF92CF926D
:103B1000DF92EF92FF920F931F93CF93DF93CDB776
:103B2000DEB7CA1BDB0B0FB6F894DEBF0FBECDBFEE
:103B300009942A88398848885F846E847D848C84BF
:103B40009B84AA84B984C884DF80EE80FD800C81C8
:103B50001B81AA81B981CE0FD11D0FB6F894DEBFAB
:103B60000FBECDBFED010895DC0101C06D93415042
:083B70005040E0F70895FFCF7B
:103B78000100A80104200104010001020140FFFF27
:0C3B880001FF01011B1C1E202224262826
:00000001FF
