S01800006275696C642F6D696361322F6D61696E2E737265632D
S11300000C94A5010C9457070C9461070C946B078E
S11300100C9475070C947F070C9489070C94930730
S11300200C949D070C94C4010C94C4010C942607F1
S11300300C9405070C9410070C9437070C94A7072D
S11300400C94F4060C94930A0C94C4010C94C4010B
S11300500C94C4010C940A0E0C94C4010C94C401B5
S11300600C941B070C94C4010C94C4010C94C4019B
S11300700C94C4010C94C4010C94C4010C94C401E8
S11300800C94C4010C94480F0C94C401F113F7139D
S11300900A145814D414F714A215C915C617F9175D
S11300A0511860187218751877189D18A818B9187F
S11300B0BB18BF18C318C918DB18EC184219561915
S11300C05919E9138D19000021104220633084402E
S11300D0A550C660E770088129914AA16BB18CC113
S11300E0ADD1CEE1EFF13112100273325222B5528A
S11300F09442F772D662399318837BB35AA3BDD363
S11301009CC3FFF3DEE36224433420040114E66459
S1130110C774A44485546AA54BB528850995EEE5B2
S1130120CFF5ACC58DD55336722611163006D77669
S1130130F6669556B4465BB77AA719973887DFF702
S1130140FEE79DD7BCC7C448E5588668A778400831
S1130150611802282338CCC9EDD98EE9AFF9488952
S113016069990AA92BB9F55AD44AB77A966A711AC9
S1130170500A333A122AFDDBDCCBBFFB9EEB799BA2
S1130180588B3BBB1AABA66C877CE44CC55C222C19
S1130190033C600C411CAEED8FFDECCDCDDD2AADF2
S11301A00BBD688D499D977EB66ED55EF44E133EA9
S11301B0322E511E700E9FFFBEEFDDDFFCCF1BBF42
S11301C03AAF599F788F8891A981CAB1EBA10CD11C
S11301D02DC14EF16FE18010A100C230E320045024
S11301E0254046706760B9839893FBA3DAB33DC397
S11301F01CD37FE35EF3B1029012F322D232354274
S1130200145277625672EAB5CBA5A89589856EF526
S11302104FE52CD50DC5E234C324A01481046674C3
S1130220476424540544DBA7FAB79987B8975FE776
S11302307EF71DC73CD7D326F2369106B016576613
S11302407676154634564CD96DC90EF92FE9C899FE
S1130250E9898AB9ABA94458654806782768C01863
S1130260E1088238A3287DCB5CDB3FEB1EFBF98BD6
S1130270D89BBBAB9ABB754A545A376A167AF10AB3
S1130280D01AB32A923A2EFD0FED6CDD4DCDAABDE6
S11302908BADE89DC98D267C076C645C454CA23C03
S11302A0832CE01CC10C1FEF3EFF5DCF7CDF9BAFB6
S11302B0BABFD98FF89F176E367E554E745E932E53
S11302C0B23ED10EF01E00081C181410ABBA83AA5B
S11302D0AA3158000057F685035544020F60E02602
S11302E01C6B557081317C00007BF9AE02388C3276
S11302F080401026A16B5510F33151000050F74F88
S1130300030E44020F58E026A16B557081315CE066
S1130310005CDB4201AA8C3280301026A16B5510A0
S1130320F3314560004555BB039C80020F68E0260D
S1130330A16B5470813158000057F6850355900223
S11303400F60E026A16B5570810011241FBECFEF12
S1130350D0E1DEBFCDBF11E0A0E0B1E0E6E9FBE310
S113036000E00BBF02C007900D92AC31B107D9F782
S113037012E0ACE1B1E001C01D92A339B107E1F78D
S11303800E94F7190C94CA1D0C9400008FB7F894BE
S1130390992708958FBF08956091E8017091E9014C
S11303A02CB53DB506B602FE04C06F5F7F4F2CB579
S11303B03DB588279927CB017727662744275527FA
S11303C0622B732B842B952B0895E6ECF0E06927C0
S11303D0660FF11DE60FF11DC895982F802D3196FB
S11303E0C89590250895880F949890E087FF02C0DF
S11303F0979A01C097989698969A9F5F973011F0B4
S1130400880FF4CF979A9698969A949A80E067FF0B
S113041002C0979A01C097989698969A8F5F8830F1
S113042011F0660FF4CF949A979A969A0895609172
S1130430670289E00E94F30160E08BE00E94F3010F
S113044061E180E00E94F3018DE790E0019701965D
S11304500197E1F70895282F9FB7F894E82FFF2715
S1130460E05BFE4F80818F3F81F4E0917D02E217D3
S113047071F40BC02093720204C0FF27E05BFE4FAF
S1130480208320937D0220E007C025E005C08091F1
S113049072028F3F91F7EECF892F99278FBF822F5A
S11304A0992708952F923F924F925F926F927F9275
S11304B08F929F92AF92BF92CF92DF92EF92FF9270
S11304C00F931F93CF93DF93CDB7DEB728970FB663
S11304D0F894DEBF0FBECDBF2090DE013090DF0167
S11304E04090E0015090E1016624772488247EE462
S11304F0A72E63E8B62ECC24DD24EE24FF2400E0EE
S113050010E0222D332D442D552D662D772D882D69
S113051090E00E94CA1B29833A834B835C836D83DA
S11305207E838F839887822E932EA42EB52E24014A
S1130530350100E20E94C81CA22EB32EC42ED52E73
S1130540C301B20196958795779567956A0D7B1DD2
S11305508C1D9D1D97FF05C09F776F5F7F4F8F4F49
S11305609F4F6093DE017093DF018093E0019093CD
S1130570E10128960FB6F894DEBF0FBECDBFDF9120
S1130580CF911F910F91FF90EF90DF90CF90BF908C
S1130590AF909F908F907F906F905F904F903F901F
S11305A02F9008958FB7F8949927379A8FBF80E0DA
S11305B090E0089580917502813051F0813050F0BF
S11305C0823021F0833041F478E01BC078E016C01B
S11305D078E011C078E00CC0813061F0813038F0EF
S11305E0823059F0833061F02FE170E00BC070E08D
S11305F020E008C070E023E005C070E021E002C004
S113060070E022E0622FEFB7F89480916F018E7F43
S113061080936F0187B1982F9F71829586958695F7
S1130620837019F080E090E012C0822F88508631E8
S113063018F081E090E00BC040E050E03327892FB0
S113064099272817390711F441E050E0CA01982F7F
S11306509170990F80916F018178262F2F71422F0D
S1130660440F440F892B842B80936F01332727B9C0
S1130670783059F5809173029091740221E08638A4
S1130680920718F087E090E01FC0833C910518F0B2
S113069086E090E019C08136910518F085E090E07D
S11306A013C08033910518F084E090E00DC08831C8
S11306B0910518F083E090E007C00C9718F082E0F1
S11306C090E002C080E090E0782F7770887D872BDF
S11306D0886D992786B98E2F99278FBF0895982FF3
S11306E0969596959695EBEEF1E0E90FF11D8770DE
S11306F021E030E002C0220F331F8A95E2F78081A7
S113070082239927089561EE80E00E94F3016091AD
S1130710A90189E00E94F3018AEF90E00197019614
S11307200197E1F76091E4018BE00E94F30184E119
S113073090E0019701960197E1F70895E091020195
S1130740F091030185A19927982F882726A13327A3
S1130750822B932BCC96209105013091060147A161
S11307608217930710F4426001C04D7F47A385E0D0
S11307700E942B0285E080933C0108958FB7F89482
S113078099272BB334E023272BBB8FBF08958FB752
S1130790F89499272091740020933F028FBF089505
S11307A0EF920F931F93AE2D99E0899FF0011124CE
S11307B0E451FE4F40835183628373830483158322
S11307C026833783A17080858E7F8A2B8260808701
S11307D089E00E942B021F910F91EF9008957FB73B
S11307E0F89462B720914001309141014091420157
S11307F05091430106B601FE0FC081B792B7280F8E
S1130800311D411D511D2F5F3F4F4F4F5F4F290F2A
S1130810311D411D511D04C0260F311D411D511DA7
S1130820872F99278FBFCA01B90108950E94C70372
S113083080913F028E7F806980933F028093740091
S11308400895982F969596959695E0E7F1E0E90F2F
S1130850F11D877021E030E002C0220F331F8A951A
S1130860E2F780818223992708950F931F93CF93F2
S1130870DF93182F8FB7F894282F3327022F8091F6
S11308802B01882331F581E080932B0110936D01B6
S11308902FBF8FB7F894C82FDD279C2F80910B01B1
S11308A08230A9F480912B01813021F48EE00E94E2
S11308B02B0209C0823059F480916D0180930B01A1
S11308C083E080932B01CFBF80E090E025C09FBFE1
S11308D0FBCF80916D01811711F42FBFF5CF812FCC
S11308E00E942104882319F085E090E014C0E12FD0
S11308F0E695E695E695FF27E059FE4F177081E0EF
S113090090E002C0880F991F1A95E2F72081282BE6
S1130910208380E090E00FBFDF91CF911F910F9172
S113092008959FB7F894292F3327422F90910B01F4
S1130930981741F480912B01833021F42FBF81E07B
S113094090E008954FBF80E090E00895982F969529
S113095096959695EAE7F2E0E90FF11D877021E09C
S113096030E002C0220F331F8A95E2F78081822390
S1130970992708950F931F93182F8FB7F894282F52
S11309803327022F80913801882399F491E09093C2
S11309903801109364022FBF80913901882321F418
S11309A089E10E942B0202C090933A0180E090E01A
S11309B023C080916402811711F42FBFF7CF812FD8
S11309C00E94A604882319F085E090E014C0E12F6A
S11309D0E695E695E695FF27E658FD4F177081E00A
S11309E090E002C0880F991F1A95E2F72081282B06
S11309F0208380E090E00FBF1F910F9108958FB77F
S1130A00F89499272BB331E023272BBB8FBF08958C
S1130A10982F969596959695EAE6F2E0E90FF11DE2
S1130A20877021E030E002C0220F331F8A95E2F77D
S1130A3080818223992708950F931F93182F8FB7CE
S1130A40F894282F3327022F80912F01882399F4BB
S1130A5091E090932F01109348012FBF80913201B0
S1130A60882321F483E10E942B0202C09093330176
S1130A7080E090E023C080914801811711F42FBFDA
S1130A80F7CF812F0E940805882319F085E090E0B4
S1130A9014C0E12FE695E695E695FF27E659FD4F4C
S1130AA0177081E090E002C0880F991F1A95E2F751
S1130AB02081282B208380E090E00FBF1F910F91AD
S1130AC00895982F969596959695EFE4F1E0E90FA1
S1130AD0F11D877021E030E002C0220F331F8A9598
S1130AE0E2F78081822399270895DF92EF92FF92A3
S1130AF00F931F938FB7F894282F3327D22E91B7D3
S1130B0082B746B7981711F041FF02C02FBF6AC0E1
S1130B108091E5018823E1F10E94EF03E090420215
S1130B20F0904302009144021091450220914B0140
S1130B3030914C0140914D0150914E016E197F0945
S1130B40800B910B621773078407950720F01092AE
S1130B50E50171E01EC02E0D3F1D401F511F809105
S1130B60400190914101A0914201B0914301281BA1
S1130B70390B4A0B5B0B273E31054105510540F407
S1130B80822F223010F070E005C070E082E002C0D5
S1130B9070E086EE682F615000B601FCFDCF82B78D
S1130BA0681709F46F5F2091400130914101409131
S1130BB0420150914301DA01C9010196A11DB11D01
S1130BC0860F911DA11DB11D82179307A407B507B8
S1130BD010F4622F609561BFDFBE772319F088E0BF
S1130BE00E942B021F910F91FF90EF90DF900895C8
S1130BF0AFB7F894BB27E1E0E093E50160934202CC
S1130C0070934302809344029093450220934B01D6
S1130C1030934C0140934D0150934E01AFBF0E945D
S1130C2075050895EF92FF920F931F93CF93DF936F
S1130C30982F8FB7F894E82E80912501833009F01E
S1130C4045C080910701891709F040C08091EB01EC
S1130C50882309F046C03EC0EF2DE695E695E6955B
S1130C60FF274F2D5527E551FE4F9A01277030700D
S1130C7081E090E002C0880F991F2A95E2F78095E1
S1130C80208128232083C093240111C02196C430DD
S1130C90D10511F4C0E0D0E0FC2E8C2F0E946F032C
S1130CA08823D1F6C017D10789F74FEF50E040935E
S1130CB065028FEF8093070181E08093250186E030
S1130CC00E942B02EFBE80E090E011C0EFBE81E0F5
S1130CD090E00DC084E080930701109225013798BD
S1130CE0F1CF80912401082F1127E801CFCFDF91A4
S1130CF0CF911F910F91FF90EF90089591E0909301
S1130D00E301809375020E94DA0280E090E0089586
S1130D10AF92BF92CF92DF92EF92FF920F931F9305
S1130D20F82E5A016B010E94EF03AB01BC01EE24C3
S1130D30960185018F2D0E94D0031F910F91FF9082
S1130D40EF90DF90CF90BF90AF9008956FE380E075
S1130D500E94F30160E08BE00E94F301089582E0B9
S1130D6080933C0110923E0210923D020E941702B1
S1130D70BB98BA9880EC8DB9B898089566EA8EE06D
S1130D800E94F30194988CE120E030E087FF02C0D8
S1130D90979A01C097989698969A2F5F3F4F27305D
S1130DA0310511F0880FF2CF97989698969A8F98FC
S1130DB0949A80E096989927879B04C0880F991F7E
S1130DC0816001C0880F969A215030409FEF2F3FD9
S1130DD0390781F7949A8F9A979A83FFD3CF66E263
S1130DE08EE00E94F30108951F920F920FB60F92A6
S1130DF011248F9383B783BF00B600FCFDCF8F917E
S1130E000F900FBE0F901F90189578941F920F9219
S1130E100FB60F9211240F900FBE0F901F901895CC
S1130E2078941F920F920FB60F9211240F900FBE59
S1130E300F901F90189578941F920F920FB60F92EF
S1130E4011240F900FBE0F901F90189578941F9245
S1130E500F920FB60F9211248F939F9386B597B577
S1130E609F918F910F900FBE0F901F9018957894BB
S1130E701F920F920FB60F9211242F933F938F93CB
S1130E809F932FB7F89433278091E8019091E9015B
S1130E9001969093E9018093E8012FBF9F918F9170
S1130EA03F912F910F900FBE0F901F9018951F9296
S1130EB00F920FB60F9211240F900FBE0F901F9038
S1130EC018951F920F920FB60F9211240F900FBE18
S1130ED00F901F9018951F920F920FB60F92112426
S1130EE00F900FBE0F901F9018951F920F920FB680
S1130EF00F9211240F900FBE0F901F9018951F9200
S1130F000F920FB60F9211240F900FBE0F901F90E7
S1130F1018951F920F920FB60F9211240F900FBEC7
S1130F200F901F9018951F920F920FB60F921124D5
S1130F300F900FBE0F901F9018951F920F920FB62F
S1130F400F9211240F900FBE0F901F9018951F92AF
S1130F500F920FB60F9211242F933F934F935F93E9
S1130F606F937F938F939F93AF93BF93EF93FF936D
S1130F7083B783BF00B600FCFDCF81B799270196E4
S1130F80AA27BB27209140013091410140914201A1
S1130F9050914301280F391F4A1F5B1F20934001C2
S1130FA030934101409342015093430178940E944D
S1130FB07505FF91EF91BF91AF919F918F917F91B3
S1130FC06F915F914F913F912F910F900FBE0F90B2
S1130FD01F901895CF93DF938FB7F894C82FDD2710
S1130FE09C2F809107018430A9F4809125018130E0
S1130FF021F486E00E942B0209C0823059F48091CA
S113100065028093070183E080932501CFBF80E0D0
S113101090E003C09FBF81E090E0DF91CF910895FD
S11310200F931F93182F8FB7F894282F3327022F6D
S113103080912501882359F481E080932501109340
S113104065022FBF0E94D2020E94EA0705C0809168
S11310506502811721F42FBF80E090E01DC0812F2D
S11310600E946F03882319F085E090E014C0E12FFB
S1131070E695E695E695FF27E551FE4F177081E06A
S113108090E002C0880F991F1A95E2F72081282B5F
S1131090208380E090E00FBF1F910F910895982F57
S11310A080913401833009F047C080911001891781
S11310B009F042C080910E0120E030E08F3F11F42E
S11310C021E030E0232BF9F48F3F19F42FEF30E0C7
S11310D00EC0282F3327F901EB58FE4F80818093EF
S11310E00E018F3F11F480930F018FEF80832093C3
S11310F03D018FEF8093100181E08093340187E1FB
S11311000E942B0216C081E08093100110923401DA
S113111080913501813069F40E94C70380913F02B8
S11311208A7680933F0280937400909891981092ED
S1131130350180E090E0089581E090E00895EF9219
S1131140FF920F931F93CF93DF93982F8FB7F89449
S1131150E82E80912B01833009F045C080910B016A
S1131160891709F040C080917001882309F045C0B7
S11311703EC0EF2DE695E695E695FF274F2D5527C2
S1131180E059FE4F9A012770307081E090E002C070
S1131190880F991F2A95E2F78095208128232083C0
S11311A0C0932A0111C02196C230D10511F4C0E0C8
S11311B0D0E0FC2E8C2F0E9421048823D1F6C01786
S11311C0D10789F74FEF50E040936D018FEF809383
S11311D00B0181E080932B018EE00E942B02EFBE75
S11311E080E090E010C0EFBE81E090E00CC082E0AF
S11311F080930B0110922B01F2CF80912A01082FCA
S11312001127E801D0CFDF91CF911F910F91FF906B
S1131210EF9008951F93CF93DF93FA01422F8683B3
S11312206183672F772760832FB7F89433278091E2
S11312300801909109012FBF8383892F9927828305
S113124082E285838FB7F894282F332790913B014E
S113125091FD04C080913C01882321F42FBF81E0DB
S113126090E068C0EF01A596926090933B0144839F
S1131270F0938002E0937F0210A614A613A612A690
S113128080E881A72FBF1FB7F8948091660282601F
S11312908093660280912301843019F482E00E94D5
S11312A02B028091660280FD0BC00E9452026F7176
S11312B070706F5F7F4F709347026093460206C061
S11312C081E090E0909347028093460288812981CF
S11312D09927782F66273327622B732B77FD05C058
S11312E06091490170914A0102C06095709519821C
S11312F018826115710529F466E070E080E090E0E1
S113130010C08827992726E632E040E050E00E948A
S11313104B1D672F782F892F99276A5E7F4F8F4F38
S11313209F4F7093710260937002812F99278FBF32
S113133080E090E0DF91CF911F910895FB018183BC
S1131340892F9927808383E986838091E601909190
S1131350E701892B19F085E090E008957093E70187
S11313606093E601448380911301882319F480E09B
S113137090E00895868160817727762F6627218102
S11313803327622B732B10921301242FAF010E9479
S11313900A099927282F882339F081E080931301C3
S11313A01092E7011092E601822F992708950F9376
S11313B01F93182F042FE82FFF27EE0FFF1FEA516A
S11313C0FE4F1182108210921301E091E601F09118
S11313D0E701309721F08091760280FF10C081E010
S11313E08093130103C08CE10E942B021123C1F4EA
S11313F0002311F00E94BE031092D90111C0248170
S1131400332760817727762F662781819927682B78
S1131410792BAF0186810E940A09882339F3E3CF2F
S11314201F910F9108950E94C70380913F028A7F04
S113143080933F02809374000E94C70380913F020F
S1131440846080933F028093740081E0809335012F
S113145080913601882349F480911101882329F46D
S11314600E94160480E00E944F0808951F93982F4D
S1131470809104018430C9F4909304018091250182
S1131480882379F412E010932501109265020E94DA
S1131490D2020E94EA0780910701882349F0109242
S11314A0250180E00E94100809C09093770206C0CD
S11314B01093E301109275020E94DA0280E090E03A
S11314C01F9108950F931F936BE380E00E94F30133
S11314D080ED97E0019701960197E1F769E380E0D9
S11314E00E94F30188EC90E0019701960197E1F7DF
S11314F00FB7F89411270E94AF060FBF1F910F91E9
S1131500089580912301823069F48091040184302C
S113151019F085E08093040181E08093230180E049
S11315200E942B0208951F920F920FB60F9211245E
S11315306F927F928F929F92AF92BF92CF92DF92DF
S1131540EF92FF920F931F932F933F934F935F93C9
S11315506F937F938F939F93AF93BF93CF93DF93B7
S1131560EF93FF931FB1809179028FB960913B0192
S113157062FD109580913C01883009F444C08930A3
S113158098F4843009F456C2853038F4823009F472
S113159070C1833009F01FC3B7C1863009F4EBC2B0
S11315A0873009F018C315C08B3009F4DBC08C30C8
S11315B030F48930A9F18A3009F00DC3C5C08D30EB
S11315C009F40FC18D3008F4ECC08E3009F003C368
S11315D03AC1809144018093790280913D029091B7
S11315E03E02019690933E0280933D022091700248
S11315F0309171028217930708F4EDC283E380935C
S1131600440188E0E6C280914401809379028CEC25
S11316108093440189E080933C018FEF9FEF57C290
S1131620C0917F02D09180022091440120937902DD
S113163080913D0290913E02019690933E028093E8
S11316403D022C3C09F05CC00E94CC013B014C01E2
S1131650E0917F02F091800264A7BB27A92D982D09
S1131660872D83A7C401AA27BB2782A7892D992781
S1131670AA27BB2781A7E0917F02F091800280A571
S11316808823F1F184818D5FE80FF11D2081E180D1
S11316908281A3809927AA27BB27BA2FA92F982F25
S11316A08827332744275527522F442733272227B7
S11316B0FF24002711278701FF24EE242E293F2928
S11316C0402B512BBB24CC24DD242A293B294C2933
S11316D05D29822B932BA42BB52B86199709A80976
S11316E0B9098383292F3A2F4B2F552722839D0134
S11316F04427552721838B2F9927AA27BB2780832B
S1131700E0913D02F0913E028C8199270796E817FB
S1131710F907A0F480917F0290918002E80FF91FED
S113172060816093440180914601909147010E9439
S1131730E50190934701809346014DC28091460193
S1131740809344018AE045C28091440180937902E8
S11317508091460190914701892F992780934401F4
S11317608BE013C0809144018093790280913D0203
S113177090913E02019690933E0280933D0204971D
S113178008F429C260FF08C08CE080933C011092E9
S11317903E0210923D021FC2BB98BA980E941702E3
S11317A017C2809144018093790280913D02909107
S11317B03E02019690933E0280933D028130910552
S11317C029F4BB98BA980E94170205C2049708F43A
S11317D002C28DE080933C0110927C0210927B0245
S11317E0D6CF809144018093790280913D029091FB
S11317F03E02019690933E0280933D0280917B02CB
S113180090917C0220E0880F991F17FD81603AEBCC
S11318108338930709F4D1C12F5F283011F0110FD9
S1131820F2CF90937C0280937B0280913D02909151
S11318303E02429708F4CFC1E0917F02F09180020A
S113184087A18E7FC4C184E00E942B02809166022E
S11318508D7F8093660280910401843019F085E0C5
S11318608093040181E08093230180E00E942B0295
S1131870B2C11A3A19F0153509F099C180913D02A7
S113188090913E02019690933E0280933D0203970D
S113189058F083E080933C0110923E0210923D0286
S11318A010927C0210927B0291E08091660281FF8B
S11318B092C180FD0DC0992359F00E9452026F70AD
S11318C070706F5F7F4F709347026093460283C1CD
S11318D08091460290914702009709F47CC10197D8
S11318E09093470280934602892B09F074C180913A
S11318F00401843019F085E08093040110926F0292
S113190082E00E94360A67C11A3A11F0153529F4AB
S1131910812F9927982F882714C080913D02909198
S11319203E02019690933E0280933D0281309105E0
S113193069F4212F332780917B0290917C02822BC2
S1131940932B90937C0280937B0245C1079708F008
S11319506FC00E94CC013B014C01C0917B02D0912D
S11319607C029C2F8827212F3327822B932B909343
S11319707C0280937B0207E0CC0FDD1F17FDC16062
S113198083E3CC3CD80709F04DC0E0910201F0910B
S1131990030184E080933C018CE1848310923E0235
S11319A010923D0210924701109246018091040169
S11319B0843019F085E08093040182E08093230150
S11319C0802F8770880F880F880FE0913B01E77C98
S11319D0E82BE0933B01E695E695E695E770FF2753
S11319E0EC5EFE4F8081992787FD9095A92FB92F32
S11319F0681A790A8A0A9B0AE0910201F0910301AC
S1131A0064A6BB27A92D982D872D83A7C401AA27D7
S1131A10BB2782A7892D9927AA27BB2781A780E006
S1131A200E94360A01500F3F09F4D5C0110FA4CF0C
S1131A3082E0ABCEE0910201F091030144814D318B
S1131A4050F082E080933C0110923E0210923D02DD
S1131A500E94810AC0C080917B0290917C02982FE1
S1131A608827212F3327822B932B90937C028093FA
S1131A707B02669566956695677002C09695879514
S1131A806A95E2F7BC0180913D0290913E02E80F15
S1131A90F91F60834C010894811C911C90923E02B2
S1131AA080923D02495F642E77246814790450F0D3
S1131AB080914601909147010E94E501909347016E
S1131AC0809346018614970439F483E290E090935E
S1131AD03E0280933D027FC035E28316910409F0F3
S1131AE07AC0E0910201F091030184A123A140E0B6
S1131AF050E09927982F88273327822B932B209106
S1131B004601309147018217930711F441E050E0F8
S1131B10242F43A3852F9927482F84A380913B0129
S1131B2080FF39C0842F9927982F88273327822B49
S1131B30932B892B81F1808141812FB7F89433272E
S1131B4060910801709109012FBF9927982F882768
S1131B505527842B952B86179707E9F486E0809305
S1131B603C0110923E0210923D020E948303BB9AF4
S1131B70BA9A8AEA19C0E0913D02F0913E02319688
S1131B80F0933E02E0933D02E031F10538F00E940B
S1131B901702BB98BA980E949E031DC0EB30F10552
S1131BA0D0F0EF53FD4F84918093790214C01092CA
S1131BB03E0210923D0290E078CE90937C02809396
S1131BC07B02E0917F02F091800287A1816087A36C
S1131BD08EE080933C01FF91EF91DF91CF91BF9113
S1131BE0AF919F918F917F916F915F914F913F91B1
S1131BF02F911F910F91FF90EF90DF90CF90BF90A6
S1131C00AF909F908F907F906F900F900FBE0F902A
S1131C101F9018951F920F920FB60F9211241F93C5
S1131C202F933F934F935F936F937F938F939F93E0
S1131C30AF93BF93CF93DF93EF93FF93C4B1D5B129
S1131C4078948FB7F894992720916F01322F3695A5
S1131C50317021708FBF222309F0E0C03398809146
S1131C60E301813021F0823009F0FEC00AC0332341
S1131C7051F0D0934102C093400287E00E942B02AE
S1131C80F3C0332319F40E94DA02EEC01092E30188
S1131C9080917502882309F0E7C01FB7F8948091FA
S1131CA00401813089F0813030F08230B1F083302A
S1131CB009F09CC056C0E0910201F0910301C6A353
S1131CC08D2F992785A392C0D0937801C093770173
S1131CD083E00E942B0282E069C020916F022F5F93
S1131CE020936F0280910501909106010C968C1748
S1131CF09D0740F4809176018F5F8093760188235D
S1131D0039F402C0109276018091660280FF18C0F7
S1131D1083E08093230187E080933C0110923E028C
S1131D2010923D0210924701109246018AEA809374
S1131D304401809379020E948303BB9ABA9A56C0E5
S1131D40253059F40E9452026F7070706F5F7F4F9C
S1131D50709347026093460249C082E00E94360AAB
S1131D6045C080910501909106019C013695279507
S1131D7036952795821B930B8C179D07D0F482E030
S1131D800E942B0280910501909106019C0143E081
S1131D90369527954A95E1F7820F931FC817D907FF
S1131DA028F5D0937801C093770183E00E942B0239
S1131DB01DC080916F028F5F80936F0281508630C7
S1131DC060F085E08093040181E08093230180E04A
S1131DD00E942B020E94AF0609C083E00E94360ACB
S1131DE080E590E0019701960197E1F780917702F1
S1131DF080930401843059F084E08093770282E078
S1131E008093E301109275020E94DA0203C080E01D
S1131E100E941206812F99278FBF26C08FB7F8948E
S1131E2099278FBF2FB7F894332786B1582F57704F
S1131E30482F4072987D942B952B8074977B982B18
S1131E4090619F77892F992786B9887D842B852B6C
S1131E5087738061992786B9887D842B852B877B3E
S1131E608069992786B92FBFFF91EF91DF91CF91B8
S1131E70BF91AF919F918F917F916F915F914F919E
S1131E803F912F911F910F900FBE0F901F901895A7
S1131E901F920F920FB60F9211242F933F934F93DB
S1131EA05F936F937F938F939F93AF93BF93EF93BE
S1131EB0FF930E94C70380913501843009F4C7C0A1
S1131EC0863021F0833009F0EFC03EC0909171005C
S1131ED0987F80913601813041F4903499F583E004
S1131EE0809335012091690244C0983159F583E00B
S1131EF0809335019091690280913F0120913F02C6
S1131F00981708F472C0922F9E7F90933F0280919D
S1131F107E0281FF07C08D7F80937E029061909343
S1131F203F0203C02E7720933F0280913F028093AB
S1131F30740081E08093350180911101882309F0B8
S1131F40B3C07FC084E098C080913601909169024B
S1131F50813009F044C0E0917301F0917401E90FFC
S1131F60F11D809173008083209169022F5F20937B
S1131F70690280913F012817A0F43327992701971C
S1131F802817390749F480917E0282FD05C08091AB
S1131F903F028F7B80933F0280913F0280937400C5
S1131FA083C090913F02292F2E7F20933F0280917E
S1131FB07E0281FF09C08D7F80937E022061209381
S1131FC03F028091710003C09E7790933F028091FD
S1131FD03F028093740081E08093350165C0809155
S1131FE03F0120913F02981778F4E0917301F0913A
S1131FF07401E90FF11D8081809373009F5F9093BA
S113200069022093740050C0922F9E7F90933F02E8
S113201080917E0281FF07C08D7F80937E02906154
S113202090933F0203C02E7720933F0280913F029A
S11320308093740081E0809335018091110188239D
S113204099F50E94160480E00E944F082DC08091EB
S11320507E028E7F80937E0290913F029F7D9093BB
S11320603F0280917100887F883049F0809171002F
S1132070887F803121F081E00E94130A15C0392F36
S1132080306430933F029091DB01990F20E08091FE
S11320903601813009F421E0922B9093730086E09D
S11320A08093350130937400FF91EF91BF91AF910C
S11320B09F918F917F916F915F914F913F912F915C
S11320C00F900FBE0F901F901895EF920F931F93D0
S11320D0A49AAC9A0E94EF03AB01BC01E1E0EE2E9E
S11320E001E110E020E030E085E00E94D00380E0D0
S11320F090E01F910F91EF900895EF920F931F932B
S113210089B78F7789BFA39AAB9AA69AAE98AE9AED
S113211080910D0110927101809372018FB7F89430
S1132120282F3327922F80913401882309F045C04A
S1132130A1E0EA2EE092340110923D012FBF8FB747
S1132140F894082F1127809135018823C9F4909AB7
S1132150919A889889981092710081E48093700014
S113216010927200109274000E94C70380913F0283
S113217084608E7F80933F0280937400E0923501E7
S11321800FBF8FB7F894082F1127902F809110015B
S1132190813059F580913401813021F487E10E9426
S11321A02B0209C0823009F580913D018093100112
S11321B083E0809334010FBF1FC080913D018823C9
S11321C011F42FBF19C0809175018F3F71F4E09114
S11321D00F01EE2351F00BC010920E0104C0FF2733
S11321E0EB58FE4F108210920F019FBF05C08091E3
S11321F00E018F3FA1F7F0CF0E94EF03AB01BC01AA
S1132200F1E0EF2E00EB14E020E030E087E00E94E4
S1132210D00380E090E01F910F91EF900895AF926A
S1132220BF92CF92DF92EF920F931F935B016C01E9
S11322300E94EF03AB01BC01B1E0EB2E96018501D6
S113224080E00E94D0031F910F91EF90DF90CF9018
S1132250BF90AF90089580912301843061F185305F
S113226019F1813081F58091F40181FD2CC090E059
S1132270809145018F3108F091E0992381F080919C
S1132280490190914A01892B29F460E07AE080E0C9
S113229090E00EC06EE170E080E090E009C060E87C
S11322A070E080E090E004C061E070E080E090E0E5
S11322B00E940F1108956091490170914A01882785
S11322C099270E940F110895AF92BF92CF92DF9287
S11322D0EF92FF920F931F93CF93DF935B016C01F7
S11322E0C0E0D0E0ECEEF1E0608561FF3DC220810A
S11322F0318142815381E480F58006811781D601C2
S1132300C501821B930BA40BB50B8E159F05A0076B
S1132310B10708F429C260FF03C06D7F608708C05D
S11323202E0D3F1D401F511F208331834283538351
S1132330C43009F4DCC0C53048F4C23009F44DC0DF
S1132340C33008F093C0CC2371F014C2C63009F432
S113235052C1C63008F413C1C73009F4CBC1C83028
S113236009F008C2FFC18FB7F894C82FDD271C2FCE
S1132370809123018430B9F08530F9F0813049F53A
S113238090E080913C01833009F491E0992309F5B0
S113239080910401843019F085E08093040181E088
S11323A00E94360A16C085E08093230110926F02C2
S11323B069E380E00E94F3010CC00E94170283E0ED
S11323C00E94360A80E590E0019701960197E1F7B3
S11323D005C10E942B111FBFCDC18091DD018A3040
S11323E0C9F41092DD0180917802882389F48091E8
S11323F04E029927982F882720914F023327822B4A
S1132400932B019680934F02892F992780934E0234
S1132410109278028FB7F894282F3327122F8091C7
S11324202701882389F491E0909327011092DA011F
S11324302FBF80912801882321F48CE00E942B0275
S113244098C09093290195C08091DA01882311F4F2
S11324502FBF8FC080E00E946105882329F48091FA
S11324604F01816080934F011FBF83C08091DD01C4
S11324708A30C9F58091D9018823E1F4A1E8B1E05B
S1132480E8E4F2E08CE101900D928150E1F74CE137
S11324906AE771E08FEF9FEF0E949E09882321F481
S11324A081E08093D90106C08091D901882311F479
S11324B00E94BE031092DD0180917802882389F482
S11324C080914E029927982F882720914F02332715
S11324D0822B932B019680934F02892F9927809307
S11324E04E021092780280E00E941C0540C0809148
S11324F0DD018A30C9F58091D9018823E1F4A1E88E
S1132500B1E0E8E4F2E08CE101900D928150E1F752
S11325104CE16AE771E08FEF9FEF0E949E098823E8
S113252021F481E08093D90106C08091D9018823E8
S113253011F40E94BE031092DD0180917802882379
S113254089F480914E029927982F882720914F0271
S11325503327822B932B019680934F02892F99273F
S113256080934E021092780280E00E94BA0488237D
S113257019F00E94BE03FEC00E94FF04FBC09FB777
S1132580F89420912701222319F421E030E00FC0B0
S113259080910A01813019F020E030E008C040E069
S11325A050E02150223010F441E050E09A01892F8C
S11325B099278FBF222309F4DDC08FB7F894C82F61
S11325C0DD279C2F80910A01813009F0C9C08091D8
S11325D02701813029F48BE00E942B02CFBFCAC0AF
S11325E0823009F0BDC08091DA0180930A0183E052
S11325F080932701F3CF80E00E949104882309F49B
S11326003AC09FB7F89420912C01222319F421E0B9
S113261030E00FC080912D01882319F020E030E0D4
S113262008C040E050E02150223010F441E050E076
S11326309A01892F99278FBF2223E9F08FB7F89445
S1132640C82FDD279C2F80912D01882399F4809138
S11326502C01813021F48FE00E942B0209C08230CA
S113266049F48091EA0180932D0183E080932C0149
S1132670CFBF01C09FBF81E00E949104882309F469
S113268079C09FB7F89420912F01222319F421E0F7
S113269030E00FC080910C01813019F020E030E06F
S11326A008C040E050E02150223010F441E050E0F6
S11326B09A01892F99278FBF222309F45BC08FB712
S11326C0F894C82FDD279C2F80910C01813009F0EC
S11326D047C080912F01813011F480E17DCF823099
S11326E009F03EC08091480180930C0183E08093FF
S11326F02F0174CF9FB7F89420913801222319F445
S113270021E030E00FC080911201813019F020E007
S113271030E008C040E050E02150223010F441E0A5
S113272050E09A01892F99278FBF222319F18FB77F
S1132730F894C82FDD279C2F80911201813081F4F9
S113274080913801813011F488E146CF823041F420
S1132750809164028093120183E0809338013ECF1C
S11327609FBF08C0AA9806C021963996C930D105E2
S113277009F0BACD89E00E942B02DF91CF911F911D
S11327800F91FF90EF90DF90CF90BF90AF9008959E
S11327909F92AF92BF92CF92DF92EF92FF920F93EC
S11327A01F93CF93DF93CDB7DEB762970FB6F8943C
S11327B0DEBF0FBECDBFE82FFF27ED31F10508F0D6
S11327C0E7C5EA5BFF4FEE0FFF1F0590F491E02D84
S11327D0099480917602882309F4DAC520E011E097
S11327E07DC50FB7F89411270E942B11DBC08FB75A
S11327F0F8949927209123018FBF222309F4C8C597
S113280048EE53E060E070E082E00E948806109297
S1132810DD01BEC51FB7F8948091660281FD06C034
S11328208091490190914A01892BA1F4809123015F
S11328308450823098F580910401843019F085E049
S11328408093040181E08093230180E00E942B02A5
S113285021E025C090E0809145018F3108F091E09E
S11328609923E1F090E080913C01833009F491E0F8
S11328709923A1F40E94A60681E080933C016F98FD
S1132880B89AC09880910401843019F085E080934F
S1132890040184E0809323010E942B1120E0812F06
S11328A099278FBF222309F473C50E94620A70C559
S11328B08FB7F894992720917701309178018FBFD1
S11328C080913E01E82FFF27EE0FFF1FEF57FD4FCA
S11328D0318320838F5F80933E01893010F0109202
S11328E03E01809145018F3118F48F5F809345013B
S11328F0DE011196E1E8F2E082E101900D9281504F
S1132900E1F760E08E010F5F1F4F41E050E0DE0110
S11329101396E52FFF27EE0FFF1FE00FF11F2D91F8
S11329203C911197808191818217930708F4542F69
S11329304F5F1296493069F7E52FFF27633041F066
S1132940EE0FFF1FE00FF11F118210826F5FDDCFCA
S1132950609105017091060188279927B5E0660FFB
S1132960771F881F991FBA95D1F7EE0FFF1FE00F4D
S1132970F11F2081318144275527220F331F441F23
S1132980551F620F731F841F951F0FB7F8941127EB
S113299022E230E040E050E00E946A1D30930601DC
S11329A0209305010FBFF4C42FB7F8943327409147
S11329B07F025091800280913B018D7F80933B0187
S11329C082E080933C0110923E0210923D022FBFA0
S11329D080911301882309F0DBC46091E6017091B2
S11329E0E7016417750709F0D3C440E0A1C48FB7A9
S11329F0F894282F332780913C01853009F040C496
S1132A0000910201109103012FBFF80184A123A1B9
S1132A109927982F88273327822B932B019709F026
S1132A2078C0808141812FB7F894332760910801E1
S1132A30709109012FBF9927982F88275527842B38
S1132A40952B8617970761F0808121819927982F0C
S1132A5088273327822B932B8F5F9F4F09F059C010
S1132A60F8018681833909F054C00E94FF04F801FB
S1132A70878120859927582F44273327422B532BAE
S1132A80809148029927982F88272091490233275B
S1132A90822B932B84179507E8F440934902852FE2
S1132AA0992780934802818522859927982F882722
S1132AB03327822B932B80934B02892F9927809362
S1132AC04A0248EE53E060E070E082E00E9488062B
S1132AD01092DD01F801858526859927582F442712
S1132AE03327422B532B80914E029927982F882706
S1132AF020914F023327822B932B8417950748F498
S1132B0040934F02852F992780934E0281E0809352
S1132B107802FFB6F8940115110521F01093030112
S1132B200093020180913C01853039F482E0809366
S1132B303C0110923E0210923D020E94810A8F2DA8
S1132B409927C9C38FB7F8949927209165022093D8
S1132B50070123E0209325018FBF80910701813075
S1132B6081F0813030F0823071F0833009F010C48C
S1132B700EC082E08093E301109275020E94DA0293
S1132B8007C481E001C082E00E947E0601C483E0A4
S1132B90FBCF1092E301A0904002B09041028091DB
S1132BA07502823039F0833049F0813059F40E9443
S1132BB0120611C082E00E941206C0C083E00E9487
S1132BC0120625C1823009F4B9C0833009F41FC14B
S1132BD0813009F0DDC38FB7F894C82E80912701A6
S1132BE0833009F041C080910A018823E9F580917E
S1132BF04F01882309F0A8C39EC3ED2DE695E69501
S1132C00E695FF274D2D5527E15BFE4F9A0127706E
S1132C10307081E090E002C0880F991F2A95E2F796
S1132C2080952081282320830093260112C00F5F02
S1132C301F4F0130110511F400E010E0D02E802F59
S1132C400E9461058823C9F60E151F0581F74FEF11
S1132C5050E04093DA018FEF80930A0181E0809382
S1132C6027018BE00E942B02CFBEE091DD01EA3008
S1132C7050F58E2F8F5F8093DD01FF27EE0FFF1F2E
S1132C80E05BFD4FA1822B2D332720839501442740
S1132C905527823080F080911D0190911E01A091F2
S1132CA01F01B0912001280F391F4A1F5B1F569541
S1132CB047953795279520931D0130931E01409326
S1132CC01F01509320018091DD018A3021F580910C
S1132CD01D0190911E01A0911F01B0912001815B03
S1132CE09140A040B0400A97A105B10540F48091FD
S1132CF01C018F3F41F08F5F80931C0104C0109230
S1132D001C011092210110921D0110921E011092BB
S1132D101F011092200180911C01833008F438C3F4
S1132D2080E00E941C05882309F06BC08FB7F894DB
S1132D3099272BB332E023272BBBCDC280E00E941E
S1132D40910481E00E949104882309F421C39090A6
S1132D50E2018FB7F894C82E80912F01833009F0D7
S1132D6041C080910C018915E9F580916A0288239C
S1132D7009F0F9C2EFC2ED2DE695E695E695FF2739
S1132D804D2D5527E659FD4F9A012770307081E08B
S1132D9090E002C0880F991F2A95E2F78095208160
S1132DA02823208300932E0112C00F5F1F4F013090
S1132DB0110511F400E010E0D02E802F0E940805C8
S1132DC08823C9F60E151F0581F74FEF50E0409395
S1132DD048018FEF80930C0181E080932F0180E103
S1132DE00E942B02CFBE992009F0D2C2F3E0AF16A5
S1132DF0F2E0BF0608F4CCC280E00E94BA04882343
S1132E0019F00E94BE03C4C20E94FF04C1C28FB75E
S1132E10F894C82E80913801833009F041C0809124
S1132E2012018823E9F580917A02882309F0AAC265
S1132E30A0C2ED2DE695E695E695FF274D2D552785
S1132E40E658FD4F9A012770307081E090E002C08F
S1132E50880F991F2A95E2F78095208128232083E3
S1132E600093370112C00F5F1F4F0130110511F499
S1132E7000E010E0D02E802F0E94A6048823C9F61B
S1132E800E151F0581F74FEF50E0409364028FEF5A
S1132E908093120181E08093380188E10E942B0223
S1132EA0CFBE2EE33EEFA20EB31E35E6A316B10449
S1132EB008F444C080913C0281FF27C0E0903802AE
S1132EC0F090390200913A0210913B020E94EF0304
S1132ED09B01AC018091340290913502A09136029D
S1132EE0B0913702281B390B4A0B5B0B2E153F059B
S1132EF04007510750F4E21AF30A040B150B45E698
S1132F00E416F1040105110578F40E94EF03AB0106
S1132F10BC01A1E0EA2E04E610E020E030E088E005
S1132F200E94D003A29AAA9A80912101882331F4A5
S1132F3081E0809321018093220105C080912201C8
S1132F40882309F425C28091D9018823E1F4A1E8FA
S1132F50B1E0E8E4F2E08CE101900D928150E1F7F8
S1132F604CE16AE771E08FEF9FEF0E949E0988238E
S1132F7021F481E08093D90106C08091D90188238E
S1132F8011F40E94BE031092220102C280916E01CC
S1132F90882361F520916B0230916C0240916D029F
S1132FA050916E02EFB7F894FF276091420270913E
S1132FB043028091440290914502E0904B01F090CD
S1132FC04C0100914D0110914E016E0D7F1D801F2B
S1132FD0911FEFBF20936B0230936C0240936D02FC
S1132FE050936E0210926E010E94F8050E94EF0346
S1132FF043C00E94EF035B016C018FB7F8949927DB
S11330001092E5018FBFFFEFEF2EFFEFFF2EFFEFD2
S11330100F2FFFE71F2F60E0ECEEF1E0808581FFCA
S11330201CC080819181A281B381A6019501281BD6
S1133030390B4A0B5B0BDA01C901248135814681C6
S11330405781281B390B4A0B5B0B2E153F05400794
S113305051071CF479018A0161E0399632E0ED33BD
S1133060F307E1F6662309F493C11E141F04100646
S113307011062CF0C601B5010E94641189C1E092C9
S11330806B02F0926C0200936D0210936E0281E069
S113309080936E01A8019701C601B5010E94F8054D
S11330A077C1AC9880912901813011F40E94651098
S11330B08FB7F894992710922901109228010BC117
S11330C02FB7F89433278091DA0180930A0183E0C3
S11330D0809327012FBF80910A01882309F058C1EA
S11330E081E0E1C00E94651053C18AE04FC08FB7F0
S11330F0F894992720916D0120930B0123E02093EC
S11331002B018FBF80910B01882321F0813009F0BE
S11331103FC103C0159A1D9A02C0A09AA89A0E94A2
S1133120EF03AB01BC01E1E0EE2E0AE010E020E089
S113313030E086E00E94D0032BC18FB7F894992722
S11331402091EA0120932D0123E020932C01C3C098
S11331502FB7F89433278091480180930C0183E0C2
S113316080932F012FBF80910C018093E20182E0B4
S11331709AC080E005C01D98159885E107C081E0DC
S11331800E94350405C1A898A09886E10E942B02EC
S1133190FFC080E00E949F0880913101813019F4C2
S11331A080E00E9435048FB7F8949927109231017A
S11331B01092300190C081E00E949F0880913301F9
S11331C0813011F40E9435048FB7F8949927109236
S11331D03301109232017FC02FB7F89433278091C6
S11331E03D018093100153E0509334012FBF20918F
S11331F010018FB7F8949927209311018FBF2223D0
S113320009F0C6C08FB7F894282F33278091110195
S1133210882309F035C02FBF8FB7F89499272091E0
S11332203501213009F057C042E0409335018FBF8A
S11332302FB7F89433278DE290E09093DC018093CC
S1133240DB0181E791E090937401809373014093D3
S11332503F0150937E0210926902109236012FBFF3
S11332600E94C7032FB7F894332780913F028F7EC3
S1133270816E80933F0294E09093350180937400B3
S11332802FBF86C02FB7F8943327809164028093B0
S1133290120183E0809338012FBF809112018823AB
S11332A009F076C083E00E94100872C00E947D106D
S11332B06FC089B78F7789BFAB98A39880913A0183
S11332C0813011F40E947D108FB7F89499271092E1
S11332D03A01109239018FBF5BC0110F90917602B1
S11332E0812F8923B1F0E22FFF27EE0FFF1FEA5150
S11332F0FE4F11821082812F80959823909376023D
S1133300222339F40E94BE031092D901110F21E047
S1133310E5CF2F5F283008F33BC080911301E82FDD
S1133320FF27EE0FFF1FEA51FE4F6081718141E0DC
S11333300E94D7092DC081E080930A0110922701D1
S1133340809328018DE08ECC80912601E82EFF2405
S113335087016DCC81E080930C0110922F01809342
S1133360320184E13DCD80912E01E82EFF248701B6
S11333701CCD81E0809312011092380180933901B1
S11333808AE18CCD80913701E82EFF2487016BCD33
S113339062960FB6F894DEBF0FBECDBFDF91CF911A
S11333A01F910F91FF90EF90DF90CF90BF90AF905F
S11333B09F900895809172028F3FB1F0282F332798
S11333C0F901E05BFE4F8081809372028F3F11F41C
S11333D080937D028FEF80832F3F31F0822F0E94F4
S11333E0C81381E090E0089580E090E00895FF9292
S11333F00F931F93CF93DF93FFB6F8944DE150E002
S11334006FEF70E080E591E00E94C31D8FEF809321
S1133410720280937D0281E08EBD88E080BF83E0EC
S113342083BF8CB59DB54AE72CB53DB52817390740
S113343008F44150442311F0C901F6CF92B782B782
S11334408917E9F32CB53DB592B782B78917E9F32B
S11334508CB59DB5821B930B409665E09695879538
S11334606A95E1F7909374028093730213BE83B755
S11334708EBD8EB580BF12BE1DBC1CBC8FEF86BF37
S113348086B780937C0080B7992787709070892BCA
S1133490D1F7D29AD19AD09ADA9AD99AD89A15BAF7
S11334A08FEF84BBD498DC981DBC1CBC87B78460A8
S11334B087BF8EB5887F84608EBD16B8D6988C9AE7
S11334C08E9A8F9A949A979A969A6FE380E00E94C4
S11334D0F30160E08BE00E94F301B998BF98BB98B8
S11334E0BA980E94DA198823E1F710927A028FEFD2
S11334F08093750110926A021092700110924F012C
S113350080B7886080BF8BE083BF86EE81BF87B7BA
S1133510826087BF0E94750580910001909101012E
S11335200196AA27BB278093DE019093DF01A09325
S1133530E001B093E1011092EB0180913B018160C5
S113354080933B016B986A986F9A6E9A6AE380E065
S11335500E94F3016BE380E00E94F30180ED97E0A9
S1133560019701960197E1F780E88093E40160E810
S11335708BE00E94F30160E984E00E94F30160E0C3
S11335808FE00E94F3016FE680E10E94F30165E59C
S113359081E10E94F30161E083E10E94F30101E013
S11335A010E0CAEFD2E0FE016491802F0E94F30183
S11335B00F5F1F4F21960D301105A9F7CBE0D3E023
S11335C0FE01649182E10E94F3012997FE01849136
S11335D0809367022A96FE0184918093A90128971B
S11335E0FE0184918093E40160E08BE00E94F3018A
S11335F06FE382E40E94F30161E180E00E94F30141
S11336000E94BE0661EE80E00E94F3016091A90170
S113361089E00E94F30160E08BE00E94F3010E94C4
S1133620BE060E9417020E94A606E1E8F2E080E2CC
S113363091E08193919322E0E339F207D1F70E945C
S1133640DA198823E1F78F2D99278FBF7894109288
S11336504B0221E020934A028091000190910101E4
S113366080934D02892F992780934C028FB7F89449
S1133670C82FDD2780912301882301F520933C0185
S113368080913B018D7F846080933B018091040194
S1133690843019F085E0809304012093230180E0B5
S11336A00E942B02809166028D7F80936602CFBFB9
S11336B00E94620A81E00E942B0201C0CFBF8FB733
S11336C0F894482F55274BC087B79927837090707B
S11336D0892B19F4E5E0F0E013C080B799278770CF
S11336E09070892BD1F781B792B7891B8C3030F059
S11336F082B7853F18F4E3E0F0E002C0E2E0F0E0D6
S113370087B7887BC1F480917D008B7FA1F46E998B
S113371012C08AB190919A00892B887161F48091CA
S1133720740082FD08C0379B03C081E090E005C0AF
S113373085E090E002C080E090E025B78E1708F4A1
S1133740E82FFF27EA53FD4FE491237E2062E22B0A
S1133750E5BF78948895F89485B78F7D85BF80916F
S113376072028F3F09F4B0CF282F3327F901E05BB1
S1133770FE4F8081809372028F3F11F480937D020B
S11337808FEF80832F3F09F49FCF4FBF822F0E947A
S1133790C81395CFACE2B0E0E0EDFBE10C948C1DD6
S11337A0222E332E442E552E662E772E882E992EB9
S11337B0FE013196A8E01192AA95E9F729823A828E
S11337C04B825C826D827E828F829886FE0139965E
S11337D0B8E01192BA95E9F7A986BA86CB86DC8659
S11337E0ED86FE860F87188B89819A81AB81BC8117
S11337F089A79AA7ABA7BCA77C018D018FEF9FEF88
S1133800A0E0B0E0E822F9220A231B2389A59AA5A7
S1133810ABA5BCA51D014424552489859A85AB8597
S1133820BC858DA39EA3AFA3B8A75C016D018FEFE8
S11338309FEFA0E0B0E0A822B922CA22DB228DA12A
S11338409EA1AFA1B8A53D0188249924C801B70160
S1133850A60195010E944B1D69A37AA38BA39CA387
S1133860C801B701A40193010E944B1D7B018C0187
S1133870C201B101A60195010E944B1D5B016C01BF
S1133880C201B101A40193010E944B1D3B014C01F3
S1133890EA0CFB1C0C1D1D1D89A19AA1ABA1BCA1A6
S11338A09D01442755272E0D3F1D401F511F2A15EA
S11338B03B054C055D0540F480E090E0A1E0B0E0FC
S11338C0680E791E8A1E9B1ECA01AA27BB27860D75
S11338D0971DA81DB91D8D8F9E8FAF8FB8A3A90109
S11338E03327222789A19AA1ABA1BCA1A070B070F3
S11338F0280F391F4A1F5B1F298F3A8F4B8F5C8F0C
S1133900A98CBA8CCB8CDC8CED8CFE8C0F8D18A121
S1133910FE01719698E011929A95E9F7ED8AFE8A74
S11339200F8B188F2D813E814F8158856DA17EA10B
S11339308FA198A50E944B1D3B014C012D853E850E
S11339404F85588969A57AA58BA59CA50E944B1D16
S11339502D893E894F89588D260F371F481F591FBF
S1133960260D371D481D591D2D8B3E8B4F8B588FAF
S11339706D887E888F88988C2A2D3B2D4C2D5D2D4B
S1133980662D772D882D992DE2E1AC960C94A81D17
S1133990A0E1B0E0EEECFCE10C948C1D222E332E61
S11339A0442E552E662E772E882E992E002309F448
S11339B066C088E0FE01319611928A95E9F7298361
S11339C03A834B835C836D837E838F829887E0E2A6
S11339D0E01B1E16CCF52D813E814F815885602F4A
S11339E0772767FD7095DA01C901062E04C0B695E4
S11339F0A795979587950A94D2F78D879E87AF8769
S1133A00B88B04C0220F331F441F551FEA95D2F709
S1133A1089819A81AB81BC8104C0B695A79597959D
S1133A2087956A95D2F7282B392B4A2B5B2B29874C
S1133A303A874B875C8729843A844B845C846D8401
S1133A407E848F8498881BC01D861E861F86188AD4
S1133A502E2F332727FD3095309521953F4F8D81AB
S1133A609E81AF81B88504C0B695A7959795879533
S1133A702A95D2F789879A87AB87BC87DCCF222D1A
S1133A80332D442D552D662D772D882D992DE2E16A
S1133A9060960C94A81D629FD001739FF001829FD1
S1133AA0E00DF11D649FE00DF11D929FF00D839FC9
S1133AB0F00D749FF00D659FF00D9927729FB00D66
S1133AC0E11DF91F639FB00DE11DF91FBD01CF0179
S1133AD011240895A1E21A2EAA1BBB1BFD010DC0DF
S1133AE0AA1FBB1FEE1FFF1FA217B307E407F507AA
S1133AF020F0A21BB30BE40BF50B661F771F881F86
S1133B00991F1A9469F760957095809590959B011B
S1133B10AC01BD01CF0108952F923F924F925F9265
S1133B206F927F928F929F92AF92BF92CF92DF92C9
S1133B30EF92FF920F931F93CF93DF93CDB7DEB72E
S1133B40CA1BDB0B0FB6F894DEBF0FBECDBF0994C2
S1133B502A88398848885F846E847D848C849B8419
S1133B60AA84B984C884DF80EE80FD800C811B8127
S1133B70AA81B981CE0FD11D0FB6F894DEBF0FBE56
S1133B80CDBFED010895DC0101C06D93415050405B
S1093B90E0F70895FFCFE9
S1133B960100AA0104200104010001020140FFFF03
S10F3BA601FF01011B1C1E202224262804
S9030000FC
