S01800006275696C642F6D696361322F6D61696E2E737265632D
S11300000C94A5010C9468070C9472070C947C075B
S11300100C9486070C9490070C949A070C94A407EC
S11300200C94AE070C94C4010C94C4010C943707CF
S11300300C9416070C9421070C9448070C94B807E9
S11300400C9405070C94E90B0C94C4010C94C401A2
S11300500C94C4010C94990A0C94C4010C94C4012A
S11300600C942C070C94C4010C94C4010C94C4018A
S11300700C94C4010C94C4010C94C4010C94C401E8
S11300800C94C4010C94600F0C94C4010C1412144D
S113009025147314EF141215BD15E4156B179E1770
S11300A0F617051817181A181C1842184D185E1858
S11300B06018641868186E1880189118E718FB18EF
S11300C0FE180414321900002110422063308440C9
S11300D0A550C660E770088129914AA16BB18CC113
S11300E0ADD1CEE1EFF13112100273325222B5528A
S11300F09442F772D662399318837BB35AA3BDD363
S11301009CC3FFF3DEE36224433420040114E66459
S1130110C774A44485546AA54BB528850995EEE5B2
S1130120CFF5ACC58DD55336722611163006D77669
S1130130F6669556B4465BB77AA719973887DFF702
S1130140FEE79DD7BCC7C448E5588668A778400831
S1130150611802282338CCC9EDD98EE9AFF9488952
S113016069990AA92BB9F55AD44AB77A966A711AC9
S1130170500A333A122AFDDBDCCBBFFB9EEB799BA2
S1130180588B3BBB1AABA66C877CE44CC55C222C19
S1130190033C600C411CAEED8FFDECCDCDDD2AADF2
S11301A00BBD688D499D977EB66ED55EF44E133EA9
S11301B0322E511E700E9FFFBEEFDDDFFCCF1BBF42
S11301C03AAF599F788F8891A981CAB1EBA10CD11C
S11301D02DC14EF16FE18010A100C230E320045024
S11301E0254046706760B9839893FBA3DAB33DC397
S11301F01CD37FE35EF3B1029012F322D232354274
S1130200145277625672EAB5CBA5A89589856EF526
S11302104FE52CD50DC5E234C324A01481046674C3
S1130220476424540544DBA7FAB79987B8975FE776
S11302307EF71DC73CD7D326F2369106B016576613
S11302407676154634564CD96DC90EF92FE9C899FE
S1130250E9898AB9ABA94458654806782768C01863
S1130260E1088238A3287DCB5CDB3FEB1EFBF98BD6
S1130270D89BBBAB9ABB754A545A376A167AF10AB3
S1130280D01AB32A923A2EFD0FED6CDD4DCDAABDE6
S11302908BADE89DC98D267C076C645C454CA23C03
S11302A0832CE01CC10C1FEF3EFF5DCF7CDF9BAFB6
S11302B0BABFD98FF89F176E367E554E745E932E53
S11302C0B23ED10EF01E00081C181410ABBA83AA5B
S11302D0AA3158000057F685035544020F60E02602
S11302E01C6B557081317C00007BF9AE02388C3276
S11302F080401026A16B5510F33151000050F74F88
S1130300030E44020F58E026A16B557081315CE066
S1130310005CDB4201AA8C3280301026A16B5510A0
S1130320F3314560004555BB039C80020F68E0260D
S1130330A16B5470813158000057F6850355900223
S11303400F60E026A16B5570810011241FBECFEF12
S1130350D0E1DEBFCDBF11E0A0E0B1E0E0EEFAE312
S113036000E00BBF02C007900D92AC31B107D9F782
S113037012E0ACE1B1E001C01D92A838B107E1F789
S11303800E949C190C946F1D0C9400008FB7F89474
S1130390992708958FBF08956091E6017091E70150
S11303A02CB53DB506B602FE04C06F5F7F4F2CB579
S11303B03DB588279927CB017727662744275527FA
S11303C0622B732B842B952B0895E6ECF0E06927C0
S11303D0660FF11DE60FF11DC895982F802D3196FB
S11303E0C89590250895880F949890E087FF02C0DF
S11303F0979A01C097989698969A9F5F973011F0B4
S1130400880FF4CF979A9698969A949A80E067FF0B
S113041002C0979A01C097989698969A8F5F8830F1
S113042011F0660FF4CF949A979A969A0895609172
S11304305C0289E00E94F30160E08BE00E94F3011A
S113044061E180E00E94F3018DE790E0019701965D
S11304500197E1F70895282F9FB7F894E82FFF2715
S1130460E25BFE4F80818F3F81F4E0917202E217DC
S113047071F40BC02093670204C0FF27E25BFE4FB8
S113048020832093720220E007C025E005C08091FC
S113049067028F3F91F7EECF892F99278FBF822F65
S11304A0992708952F923F924F925F926F927F9275
S11304B08F929F92AF92BF92CF92DF92EF92FF9270
S11304C00F931F93CF93DF93CDB7DEB728970FB663
S11304D0F894DEBF0FBECDBF2090DC013090DD016B
S11304E04090DE015090DF016624772488247EE466
S11304F0A72E63E8B62ECC24DD24EE24FF2400E0EE
S113050010E0222D332D442D552D662D772D882D69
S113051090E00E946F1B29833A834B835C836D8335
S11305207E838F839887822E932EA42EB52E24014A
S1130530350100E20E946D1CA22EB32EC42ED52ECE
S1130540C301B20196958795779567956A0D7B1DD2
S11305508C1D9D1D97FF05C09F776F5F7F4F8F4F49
S11305609F4F6093DC017093DD018093DE019093D3
S1130570DF0128960FB6F894DEBF0FBECDBFDF9122
S1130580CF911F910F91FF90EF90DF90CF90BF908C
S1130590AF909F908F907F906F905F904F903F901F
S11305A02F9008958FB7F8949927379A8FBF80E0DA
S11305B090E00895CF93DF938FB7F894C82FDD2789
S11305C09C2F809107018430A9F48091230181300C
S11305D021F486E00E942B0209C0823059F48091F4
S11305E05A028093070183E080932301CFBF80E008
S11305F090E003C09FBF81E090E0DF91CF91089528
S113060080916A02813051F0813050F0823021F0C3
S1130610833041F478E01BC078E016C078E011C064
S113062078E00CC0813061F0813038F0823059F0CC
S1130630833061F02FE170E00BC070E020E008C06F
S113064070E023E005C070E021E002C070E022E029
S1130650622FEFB7F89480916D018E7F80936D01C6
S113066087B1982F9F71829586958695837019F02E
S113067080E090E012C0822F8850863118F081E02B
S113068090E00BC040E050E03327892F99272817CA
S1130690390711F441E050E0CA01982F9170990F85
S11306A080916D018178262F2F71422F440F440FC2
S11306B0892B842B80936D01332727B9783059F522
S11306C0809168029091690221E08638920718F0BF
S11306D087E090E01FC0833C910518F086E090E02D
S11306E019C08136910518F085E090E013C080337D
S11306F0910518F084E090E00DC08831910518F060
S113070083E090E007C00C9718F082E090E002C00C
S113071080E090E0782F7770887D872B886D99270B
S113072086B98E2F99278FBF0895982F9695969501
S11307309695E9EEF1E0E90FF11D877021E030E0D4
S113074002C0220F331F8A95E2F780818223992702
S113075008950F931F93182F8FB7F894282F3327DA
S1130760022F80912301882359F481E0809323018F
S113077010935A022FBF0E94D2020E94DA0205C0CF
S113078080915A02811721F42FBF80E090E01DC0B0
S1130790812F0E949503882319F085E090E014C00E
S11307A0E12FE695E695E695FF27E751FE4F177092
S11307B081E090E002C0880F991F1A95E2F720812A
S11307C0282B208380E090E00FBF1F910F910895A4
S11307D061EE80E00E94F3016091A70189E00E942C
S11307E0F3018AEF90E0019701960197E1F7609198
S11307F0E2018BE00E94F30184E190E0019701960D
S11308000197E1F70895E0910201F091030185A1B8
S11308109927982F882726A13327822B932BCC96B0
S1130820209105013091060147A18217930710F426
S1130830426001C04D7F47A385E00E942B0285E002
S113084080933A0108958FB7F89499272BB334E035
S113085023272BBB8FBF08958FB7F8949927209136
S11308607400209334028FBF0895EF920F931F9367
S1130870AE2D99E0899FF0011124E651FE4F40838B
S11308805183628373830483158326833783A17022
S113089080858E7F8A2B8260808789E00E942B026C
S11308A01F910F91EF9008957FB7F89462B720914C
S11308B03E0130913F01409140015091410106B603
S11308C001FE0FC081B792B7280F311D411D511D84
S11308D02F5F3F4F4F4F5F4F290F311D411D511D5A
S11308E004C0260F311D411D511D872F99278FBF2D
S11308F0CA01B90108950E942C04809134028E7FAC
S1130900806980933402809374000895982F96959B
S113091096959695EEE6F1E0E90FF11D877021E0DA
S113092030E002C0220F331F8A95E2F780818223D0
S1130930992708950F931F93CF93DF93182F8FB7A1
S1130940F894282F3327022F80912901882331F529
S113095081E08093290110936B012FBF8FB7F89426
S1130960C82FDD279C2F80910B018230A9F4809140
S11309702901813021F48EE00E942B0209C08230CB
S113098059F480916B0180930B0183E080932901DA
S1130990CFBF80E090E025C09FBFFBCF80916B016B
S11309A0811711F42FBFF5CF812F0E94860488236D
S11309B019F085E090E014C0E12FE695E695E69500
S11309C0FF27E259FE4F177081E090E002C0880FC4
S11309D0991F1A95E2F72081282B208380E090E06C
S11309E00FBFDF91CF911F910F910895EF920F9355
S11309F01F93A49AAC9A0E945404AB01BC01B1E0C9
S1130A00EB2E01E110E020E030E085E00E943504A7
S1130A1080E090E01F910F91EF9008959FB7F894B4
S1130A20292F3327422F90910B01981741F480917D
S1130A302901833021F42FBF81E090E008954FBF56
S1130A4080E090E00895982F969596959695EFE618
S1130A50F2E0E90FF11D877021E030E002C0220FBF
S1130A60331F8A95E2F780818223992708950F9393
S1130A701F93182F8FB7F894282F3327022F8091B4
S1130A803601882399F491E090933601109359022A
S1130A902FBF80913701882321F489E10E942B0222
S1130AA002C09093380180E090E023C08091590205
S1130AB0811711F42FBFF7CF812F0E9423058823BC
S1130AC019F085E090E014C0E12FE695E695E695EF
S1130AD0FF27E159FD4F177081E090E002C0880FB5
S1130AE0991F1A95E2F72081282B208380E090E05B
S1130AF00FBF1F910F9108958FB7F89499272BB3C7
S1130B0031E023272BBB8FBF0895982F9695969598
S1130B109695EFE5F2E0E90FF11D877021E030E0F2
S1130B2002C0220F331F8A95E2F78081822399271E
S1130B3008950F931F93182F8FB7F894282F3327F6
S1130B40022F80912D01882399F491E090932D0137
S1130B50109346012FBF80913001882321F483E153
S1130B600E942B0202C09093310180E090E023C0E8
S1130B7080914601811711F42FBFF7CF812F0E9476
S1130B808505882319F085E090E014C0E12FE695EF
S1130B90E695E695FF27E15AFD4F177081E090E056
S1130BA002C0880F991F1A95E2F72081282B208311
S1130BB080E090E00FBF1F910F910895982F9695B4
S1130BC096959695EDE4F1E0E90FF11D877021E02B
S1130BD030E002C0220F331F8A95E2F7808182231E
S1130BE099270895DF92EF92FF920F931F938FB787
S1130BF0F894282F3327D22E91B782B746B7981787
S1130C0011F041FF02C02FBF6AC08091E301882325
S1130C10E1F10E945404E0903702F0903802009110
S1130C20390210913A022091490130914A014091D0
S1130C304B0150914C016E197F09800B910B621787
S1130C4073078407950720F01092E30171E01EC03A
S1130C502E0D3F1D401F511F80913E0190913F0179
S1130C60A0914001B0914101281B390B4A0B5B0B49
S1130C70273E31054105510540F4822F223010F002
S1130C8070E005C070E082E002C070E086EE682F7C
S1130C90615000B601FCFDCF82B7681709F46F5F9D
S1130CA020913E0130913F0140914001509141011A
S1130CB0DA01C9010196A11DB11D860F911DA11D67
S1130CC0B11D82179307A407B50710F4622F60952E
S1130CD061BFDFBE772319F088E00E942B021F91C9
S1130CE00F91FF90EF90DF900895AFB7F894BB2772
S1130CF0E1E0E093E301609337027093380280935C
S1130D00390290933A022093490130934A01409367
S1130D104B0150934C01AFBF0E94F205089591E03E
S1130D209093E10180936A020E94000380E090E0C6
S1130D300895AF92BF92CF92DF92EF92FF920F93FA
S1130D401F93F82E5A016B010E945404AB01BC019D
S1130D50EE24960185018F2D0E9435041F910F9179
S1130D60FF90EF90DF90CF90BF90AF9008956FE326
S1130D7080E00E94F30160E08BE00E94F30108959B
S1130D8082E080933A0110923302109232020E9460
S1130D901702BB98BA9880EC8DB9B898089566EAA2
S1130DA08EE00E94F30194988CE120E030E087FF0C
S1130DB002C0979A01C097989698969A2F5F3F4FD2
S1130DC02730310511F0880FF2CF97989698969AAC
S1130DD08F98949A80E096989927879B04C0880FEF
S1130DE0991F816001C0880F969A215030409FEF6F
S1130DF02F3F390781F7949A8F9A979A83FFD3CF1D
S1130E0066E28EE00E94F30108951F920F920FB6DE
S1130E100F9211248F9383B783BF00B600FCFDCFDC
S1130E208F910F900FBE0F901F90189578941F927A
S1130E300F920FB60F9211240F900FBE0F901F90B8
S1130E40189578941F920F920FB60F9211240F9059
S1130E500FBE0F901F90189578941F920F920FB6A3
S1130E600F9211240F900FBE0F901F901895789435
S1130E701F920F920FB60F9211248F939F9386B5F2
S1130E8097B59F918F910F900FBE0F901F9018955B
S1130E9078941F920F920FB60F9211242F933F93C1
S1130EA08F939F932FB7F89433278091E601909105
S1130EB0E70101969093E7018093E6012FBF9F918C
S1130EC08F913F912F910F900FBE0F901F90189507
S1130ED01F920F920FB60F9211240F900FBE0F9016
S1130EE01F9018951F920F920FB60F9211240F9016
S1130EF00FBE0F901F9018951F920F920FB60F926E
S1130F0011240F900FBE0F901F9018951F920F92EF
S1130F100FB60F9211240F900FBE0F901F901895CB
S1130F201F920F920FB60F9211240F900FBE0F90C5
S1130F301F9018951F920F920FB60F9211240F90C5
S1130F400FBE0F901F9018951F920F920FB60F921D
S1130F5011240F900FBE0F901F9018951F920F929F
S1130F600FB60F9211240F900FBE0F901F9018957B
S1130F701F920F920FB60F9211242F933F934F930A
S1130F805F936F937F938F939F93AF93BF93EF93ED
S1130F90FF9383B783BF00B600FCFDCF81B79927C9
S1130FA00196AA27BB2720913E0130913F01409131
S1130FB0400150914101280F391F4A1F5B1F2093A4
S1130FC03E0130933F014093400150934101789496
S1130FD00E94F205FF91EF91BF91AF919F918F9184
S1130FE07F916F915F914F913F912F910F900FBE21
S1130FF00F901F901895EF92FF920F931F93CF932A
S1131000DF93982F8FB7F894E82E809123018330D3
S113101009F045C080910701891709F040C080910B
S1131020E901882309F046C03EC0EF2DE695E69518
S1131030E695FF274F2D5527E751FE4F9A0127705C
S1131040307081E090E002C0880F991F2A95E2F782
S11310508095208128232083C093220111C02196EA
S1131060C430D10511F4C0E0D0E0FC2E8C2F0E94D6
S113107095038823D1F6C017D10789F74FEF50E0C5
S113108040935A028FEF8093070181E080932301FC
S113109086E00E942B02EFBE80E090E011C0EFBE1C
S11310A081E090E00DC084E0809307011092230159
S11310B03798F1CF80912201082F1127E801CFCF73
S11310C0DF91CF911F910F91FF90EF900895EF92D0
S11310D0FF920F931F93CF93DF93982F8FB7F894BA
S11310E0E82E80912901833009F045C080910B01DD
S11310F0891709F040C080916E01882309F045C02A
S11311003EC0EF2DE695E695E695FF274F2D552732
S1131110E259FE4F9A012770307081E090E002C0DE
S1131120880F991F2A95E2F7809520812823208330
S1131130C093280111C02196C230D10511F4C0E03A
S1131140D0E0FC2E8C2F0E9486048823D1F6C01791
S1131150D10789F74FEF50E040936B018FEF8093F5
S11311600B0181E0809329018EE00E942B02EFBEE7
S113117080E090E010C0EFBE81E090E00CC082E01F
S113118080930B0110922901F2CF80912801082F3E
S11311901127E801D0CFDF91CF911F910F91FF90DC
S11311A0EF900895982F80913201833009F047C061
S11311B080911001891709F042C080910E0120E04E
S11311C030E08F3F11F421E030E0232BF9F48F3F1E
S11311D019F42FEF30E00EC0282F3327F901ED5812
S11311E0FE4F808180930E018F3F11F480930F0195
S11311F08FEF808320933B018FEF8093100181E078
S11312008093320187E10E942B0216C081E0809313
S113121010011092320180913301813069F40E94EF
S11312202C04809134028A76809334028093740073
S1131230909891981092330180E090E0089581E0B5
S113124090E008950E942C04809134028A7F809358
S11312503402809374000E942C04809134028460D0
S1131260809334028093740081E0809333018091F1
S11312703401882349F480911101882329F40E94C0
S11312807B0480E00E94D20808950F931F936BE3C0
S113129080E00E94F30180ED97E0019701960197A9
S11312A0E1F769E380E00E94F30188EC90E00197A4
S11312B001960197E1F70FB7F89411270E94C00631
S11312C00FBF1F910F9108951F93982F80910401D0
S11312D08430C9F49093040180912301882379F424
S11312E012E01093230110925A020E94D2020E942B
S11312F0DA0280910701882349F01092230180E0EB
S11313000E94A90309C090936C0206C01093E101E6
S113131010926A020E94000380E090E01F910895F9
S11313201F93CF93DF93FA01422F86836183672F44
S1131330772760832FB7F894332780910801909121
S113134009012FBF8383892F9927828382E28583B2
S11313508FB7F894282F33279091390191FD04C059
S113136080913A01882321F42FBF81E090E068C086
S1131370EF01A5969260909339014483F09375022E
S1131380E093740210A614A613A612A680E881A7FF
S11313902FBF1FB7F89480915B02826080935B0239
S11313A080912101843019F482E00E942B02809103
S11313B05B0280FD0BC00E9452026F7170706F5F00
S11313C07F4F70933C0260933B0206C081E090E043
S11313D090933C0280933B02888129819927782F3E
S11313E066273327622B732B77FD05C06091470175
S11313F07091480102C06095709519821882611538
S1131400710529F466E070E080E090E010C0882760
S1131410992726E632E040E050E00E94F01C672F56
S1131420782F892F99276A5E7F4F8F4F9F4F709334
S1131430660260936502812F99278FBF80E090E058
S1131440DF91CF911F910895FB018183892F992703
S1131450808383E986838091E4019091E501892B5F
S113146019F085E090E008957093E5016093E4013C
S1131470448380911301882319F480E090E0089557
S1131480868160817727762F662721813327622B17
S1131490732B10921301242FAF010E9490099927F6
S11314A0282F882339F081E0809313011092E501FD
S11314B01092E401822F992708950F931F93182FF8
S11314C0042FE82FFF27EE0FFF1FEC51FE4F118270
S11314D0108210921301E091E401F091E50130973C
S11314E021F080916B0280FF10C081E08093130192
S11314F003C08CE10E942B021123C1F4002311F0DC
S11315000E9423041092D70111C0248133276081E3
S11315107727762F662781819927682B792BAF014E
S113152086810E949009882339F3E3CF1F910F919C
S113153008951F920F920FB60F9211241F932F93A9
S11315403F934F935F936F937F938F939F93AF9347
S1131550BF93CF93DF93EF93FF93C4B1D5B1789446
S11315608FB7F894992720916D01322F36953170F9
S113157021708FBF222309F0E0C033988091E101EC
S1131580813021F0823009F0FEC00AC0332351F0CB
S1131590D0933602C093350287E00E942B02F3C039
S11315A0332319F40E940003EEC01092E1018091EC
S11315B06A02882309F0E7C01FB7F89480910401F8
S11315C0813089F0813030F08230B1F0833009F01D
S11315D09CC056C0E0910201F0910301C6A38D2F77
S11315E0992785A392C0D0937601C093750183E0B7
S11315F00E942B0282E069C0209164022F5F209335
S1131600640280910501909106010C968C179D0748
S113161040F4809174018F5F80937401882339F4BE
S113162002C01092740180915B0280FF18C083E0B5
S11316308093210187E080933A0110923302109243
S1131640320210924501109244018AEA80934201C9
S113165080936E020E94E803BB9ABA9A56C0253062
S113166059F40E9452026F7070706F5F7F4F7093D5
S11316703C0260933B0249C082E00E94640945C079
S113168080910501909106019C0136952795369528
S11316902795821B930B8C179D07D0F482E00E9440
S11316A02B0280910501909106019C0153E036952F
S11316B027955A95E1F7820F931FC817D90728F584
S11316C0D0937601C093750183E00E942B021DC064
S11316D0809164028F5F809364028150863060F051
S11316E085E08093040181E08093210180E00E94E1
S11316F02B020E94C00609C083E00E94640980E5B1
S113170090E0019701960197E1F780916C02809334
S11317100401843059F084E080936C0282E0809369
S1131720E10110926A020E94000303C080E00E945B
S1131730FB07812F99278FBF26C08FB7F89499276D
S11317408FBF2FB7F894332786B1582F5770482F7F
S11317504072987D942B952B8074977B982B906185
S11317609F77892F992786B9887D842B852B87734A
S11317708061992786B9887D842B852B877B806936
S1131780992786B92FBFFF91EF91DF91CF91BF9138
S1131790AF919F918F917F916F915F914F913F9105
S11317A02F911F910F900FBE0F901F90189580914D
S11317B02101823069F480910401843019F085E0BC
S11317C08093040181E08093210180E00E942B0238
S11317D008951F920F920FB60F9211246F927F9269
S11317E08F929F92AF92BF92CF92DF92EF92FF922D
S11317F00F931F932F933F934F935F936F937F9315
S11318008F939F93AF93BF93CF93DF93EF93FF9304
S11318101FB180916E028FB96091390162FD1095FC
S113182080913A01883009F444C0893098F48430B6
S113183009F456C2853038F4823009F470C183301B
S113184009F01FC3B7C1863009F4EBC2873009F031
S113185018C315C08B3009F4DBC08C3030F48930E8
S1131860A9F18A3009F00DC3C5C08D3009F40FC148
S11318708D3008F4ECC08E3009F003C33AC1809176
S1131880420180936E02809132029091330201965C
S11318909093330280933202209165023091660264
S11318A08217930708F4EDC283E38093420188E032
S11318B0E6C28091420180936E028CEC80934201D7
S11318C089E080933A018FEF9FEF57C2C091740271
S11318D0D09175022091420120936E0280913202D0
S11318E090913302019690933302809332022C3C00
S11318F009F05CC00E94CC013B014C01E0917402F0
S1131900F091750264A7BB27A92D982D872D83A775
S1131910C401AA27BB2782A7892D9927AA27BB27F9
S113192081A7E0917402F091750280A58823F1F1FA
S113193084818D5FE80FF11D2081E1808281A38085
S11319409927AA27BB27BA2FA92F982F882733278F
S113195044275527522F442733272227FF240027C3
S113196011278701FF24EE242E293F29402B512BD8
S1131970BB24CC24DD242A293B294C295D29822B34
S1131980932BA42BB52B86199709A809B90983832E
S1131990292F3A2F4B2F552722839D014427552762
S11319A021838B2F9927AA27BB278083E0913202BA
S11319B0F09133028C8199270796E817F907A0F470
S11319C08091740290917502E80FF91F6081609311
S11319D0420180914401909145010E94E501909358
S11319E04501809344014DC280914401809342019A
S11319F08AE045C28091420180936E028091440145
S1131A0090914501892F9927809342018BE013C05F
S1131A108091420180936E02809132029091330250
S1131A2001969093330280933202049708F429C2FA
S1131A3060FF08C08CE080933A0110923302109248
S1131A4032021FC2BB98BA980E94170217C2809133
S1131A50420180936E02809132029091330201968A
S1131A6090933302809332028130910529F4BB981C
S1131A70BA980E94170205C2049708F402C28DE0C6
S1131A8080933A011092710210927002D6CF809125
S1131A90420180936E02809132029091330201964A
S1131AA0909333028093320280917002909171027C
S1131AB020E0880F991F17FD81603AEB8338930764
S1131AC009F4D1C12F5F283011F0110FF2CF909398
S1131AD07102809370028091320290913302429796
S1131AE008F4CFC1E0917402F091750287A18E7F52
S1131AF0C4C184E00E942B0280915B028D7F80939D
S1131B005B0280910401843019F085E08093040124
S1131B1081E08093210180E00E942B02B2C11A3A35
S1131B2019F0153509F099C1809132029091330270
S1131B3001969093330280933202039758F083E026
S1131B4080933A0110923302109232021092710281
S1131B501092700291E080915B0281FF92C180FD3E
S1131B600DC0992359F00E9452026F7070706F5F1C
S1131B707F4F70933C0260933B0283C180913B0290
S1131B8090913C02009709F47CC1019790933C0228
S1131B9080933B02892B09F074C180910401843045
S1131BA019F085E0809304011092640282E00E949F
S1131BB0640967C11A3A11F0153529F4812F992760
S1131BC0982F882714C08091320290913302019695
S1131BD090933302809332028130910569F4212F6E
S1131BE033278091700290917102822B932B9093F2
S1131BF071028093700245C1079708F06FC00E947C
S1131C00CC013B014C01C0917002D09171029C2F18
S1131C108827212F3327822B932B90937102809353
S1131C20700207E0CC0FDD1F17FDC16083E3CC3CDD
S1131C30D80709F04DC0E0910201F091030184E05E
S1131C4080933A018CE18483109233021092320221
S1131C50109245011092440180910401843019F0DE
S1131C6085E08093040182E080932101802F8770B6
S1131C70880F880F880FE0913901E77CE82BE09307
S1131C803901E695E695E695E770FF27EC5EFE4F91
S1131C908081992787FD9095A92FB92F681A790A11
S1131CA08A0A9B0AE0910201F091030164A6BB2712
S1131CB0A92D982D872D83A7C401AA27BB2782A706
S1131CC0892D9927AA27BB2781A780E00E94640950
S1131CD001500F3F09F4D5C0110FA4CF82E0ABCE61
S1131CE0E0910201F091030144814D3150F082E012
S1131CF080933A0110923302109232020E94D70B61
S1131D00C0C08091700290917102982F8827212F72
S1131D103327822B932B90937102809370026695E4
S1131D2066956695677002C0969587956A95E2F701
S1131D30BC018091320290913302E80FF91F608355
S1131D404C010894811C911C9092330280923202BF
S1131D50495F642E77246814790450F0809144011B
S1131D60909145010E94E5019093450180934401BF
S1131D708614970439F483E290E0909333028093BD
S1131D8032027FC035E28316910409F07AC0E091F3
S1131D900201F091030184A123A140E050E09927BE
S1131DA0982F88273327822B932B2091440130913D
S1131DB045018217930711F441E050E0242F43A317
S1131DC0852F9927482F84A38091390180FF39C03A
S1131DD0842F9927982F88273327822B932B892B9D
S1131DE081F1808141812FB7F894332760910801F4
S1131DF0709109012FBF9927982F88275527842B85
S1131E00952B86179707E9F486E080933A011092A0
S1131E103302109232020E94E803BB9ABA9A8AEA09
S1131E2019C0E0913202F09133023196F0933302FB
S1131E30E0933202E031F10538F00E941702BB98BA
S1131E40BA980E9403041DC0EB30F105D0F0EF53A3
S1131E50FD4F849180936E0214C01092330210924D
S1131E60320290E078CE9093710280937002E091F8
S1131E707402F091750287A1816087A38EE080933C
S1131E803A01FF91EF91DF91CF91BF91AF919F9173
S1131E908F917F916F915F914F913F912F911F91FE
S1131EA00F91FF90EF90DF90CF90BF90AF909F90F5
S1131EB08F907F906F900F900FBE0F901F9018958A
S1131EC01F920F920FB60F9211242F933F934F93AB
S1131ED05F936F937F938F939F93AF93BF93EF938E
S1131EE0FF930E942C0480913301843009F4C7C00D
S1131EF0863021F0833009F0EFC03EC0909171002C
S1131F00987F80913401813041F4903499F583E0D5
S1131F108093330120915E0244C0983159F583E0E7
S1131F208093330190915E0280913D0120913402AF
S1131F30981708F472C0922F9E7F90933402809178
S1131F40730281FF07C08D7F809373029061909329
S1131F50340203C02E77209334028091340280939C
S1131F60740081E08093330180911101882309F08A
S1131F70B3C07FC084E098C08091340190915E0228
S1131F80813009F044C0E0917101F0917201E90FD0
S1131F90F11D80917300808320915E022F5F209356
S1131FA05E0280913D012817A0F4332799270197F9
S1131FB02817390749F48091730282FD05C0809186
S1131FC034028F7B809334028091340280937400B6
S1131FD083C090913402292F2E7F20933402809164
S1131FE0730281FF09C08D7F809373022061209367
S1131FF034028091710003C09E77909334028091E3
S113200034028093740081E08093330165C0809131
S11320103D0120913402981778F4E0917101F09118
S11320207201E90FF11D8081809373009F5F90938B
S11320305E022093740050C0922F9E7F90933402CE
S11320408091730281FF07C08D7F8093730290613A
S11320509093340203C02E7720933402809134028B
S11320608093740081E0809333018091110188236F
S113207099F50E947B0480E00E94D2082DC08091D3
S113208073028E7F80937302909134029F7D9093AC
S1132090340280917100887F883049F0809171000A
S11320A0887F803121F081E00E94220915C0392FF8
S11320B03064309334029091D901990F20E08091DB
S11320C03401813009F421E0922B9093730086E06F
S11320D08093330130937400FF91EF91BF91AF91DE
S11320E09F918F917F916F915F914F913F912F912C
S11320F00F900FBE0F901F901895EF920F931F93A0
S113210089B78F7789BFA39AAB9AA69AAE98AE9AED
S113211080910D0110926F01809370018FB7F89434
S1132120282F3327922F80913201882309F045C04C
S113213031E0E32EE092320110923B012FBF8FB7C2
S1132140F894082F1127809133018823C9F4909AB9
S1132150919A889889981092710081E48093700014
S113216010927200109274000E942C048091340228
S113217084608E7F8093340280937400E0923301F4
S11321800FBF8FB7F894082F1127902F809110015B
S1132190813059F580913201813021F487E10E9428
S11321A02B0209C0823009F580913B018093100114
S11321B083E0809332010FBF1FC080913B018823CD
S11321C011F42FBF19C0809173018F3F71F4E09116
S11321D00F01EE2351F00BC010920E0104C0FF2733
S11321E0ED58FE4F108210920F019FBF05C08091E1
S11321F00E018F3FA1F7F0CF0E945404AB01BC0144
S113220021E0E22E00EB14E020E030E087E00E94C1
S1132210350480E090E01F910F91EF900895AF9204
S1132220BF92CF92DF92EF920F931F935B016C01E9
S11322300E945404AB01BC01E1E0EE2E960185013D
S113224080E00E9435041F910F91EF90DF90CF90B2
S1132250BF90AF90089580912101843061F1853061
S113226019F1813081F58091F20181FD2CC090E05B
S1132270809143018F3108F091E0992381F080919E
S1132280470190914801892B29F460E07AE080E0CD
S113229090E00EC06EE170E080E090E009C060E87C
S11322A070E080E090E004C061E070E080E090E0E5
S11322B00E940F1108956091470170914801882789
S11322C099270E940F110895AF92BF92CF92DF9287
S11322D0EF92FF920F931F93CF93DF935B016C01F7
S11322E0C0E0D0E0EAEEF1E0608561FF58C22081F1
S11322F0318142815381E480F58006811781D601C2
S1132300C501821B930BA40BB50B8E159F05A0076B
S1132310B10708F444C260FF03C06D7F608708C042
S11323202E0D3F1D401F511F208331834283538351
S1132330C43009F4F9C0C53048F4C23009F44AC0C5
S1132340C33008F0B0C0CC2359F02FC2C63009F412
S11323506FC1C63008F430C1C73009F026C2E7C1E6
S11323608FB7F894C82FDD271C2F8091210184306A
S1132370B9F08530F9F0813049F590E080913A0167
S1132380833009F491E0992309F5809104018430A4
S113239019F085E08093040181E00E94640916C06D
S11323A085E0809321011092640269E380E00E9439
S11323B0F3010CC00E94170283E00E94640980E5C7
S11323C090E0019701960197E1F725C10E942B1136
S11323D01FBFEBC18091DB018A30C9F58091D70121
S11323E08823E1F4AFE7B1E0EDE3F2E08CE10190A2
S11323F00D928150E1F74CE168E771E08FEF9FEFB8
S11324000E94240A882321F481E08093D70106C026
S11324108091D701882311F40E9423041092DB01D8
S113242080916D02882389F4809143029927982F23
S11324308827209144023327822B932B0196809383
S11324404402892F99278093430210926D028FB71B
S1132450F894282F3327122F80912501882389F49B
S113246091E0909325011092D8012FBF809126010D
S1132470882321F48CE00E942B0298C090932701BA
S113248095C08091D801882311F42FBF8FC080E0BC
S11324900E94DE05882329F480914D018160809398
S11324A04D011FBF83C08091DB018A30C9F5809143
S11324B0D7018823E1F4AFE7B1E0EDE3F2E08CE18A
S11324C001900D928150E1F74CE168E771E08FEFE4
S11324D09FEF0E94240A882321F481E08093D7018E
S11324E006C08091D701882311F40E94230410921E
S11324F0DB0180916D02882389F48091430299273E
S1132500982F8827209144023327822B932B0196FE
S113251080934402892F99278093430210926D027D
S113252080E00E94990540C08091DB018A30C9F5A2
S11325308091D7018823E1F4AFE7B1E0EDE3F2E065
S11325408CE101900D928150E1F74CE168E771E074
S11325508FEF9FEF0E94240A882321F481E0809367
S1132560D70106C08091D701882311F40E94230467
S11325701092DB0180916D02882389F480914302DB
S11325809927982F8827209144023327822B932B55
S1132590019680934402892F9927809343021092D5
S11325A06D0280E00E943705882319F00E942304FD
S11325B0FCC00E947C05F9C09FB7F89420912501C6
S11325C0222319F421E030E00FC080910A01813008
S11325D019F020E030E008C040E050E02150223003
S11325E010F441E050E09A01892F99278FBF2223EC
S11325F009F4DBC08FB7F894C82FDD279C2F809196
S11326000A01813009F0C9C080912501813029F483
S11326108BE00E942B02CFBFC8C0823009F0BDC03E
S11326208091D80180930A0183E080932501F3CF40
S113263080E00E940E05882309F43AC09FB7F894FD
S113264020912A01222319F421E030E00FC0809167
S11326502B01882319F020E030E008C040E050E06E
S11326602150223010F441E050E09A01892F99273B
S11326708FBF2223E9F08FB7F894C82FDD279C2F52
S113268080912B01882399F480912A01813021F4CF
S11326908FE00E942B0209C0823049F48091E80146
S11326A080932B0183E080932A01CFBF01C09FBF99
S11326B081E00E940E05882309F477C09FB7F8943F
S11326C020912D01222319F421E030E00FC08091E4
S11326D00C01813019F020E030E008C040E050E007
S11326E02150223010F441E050E09A01892F9927BB
S11326F08FBF222309F459C08FB7F894C82FDD2760
S11327009C2F80910C01813009F047C080912D01EC
S1132710813011F480E17DCF823009F03EC0809198
S1132720460180930C0183E080932D0174CF9FB701
S1132730F89420913601222319F421E030E00FC0EF
S113274080911201813019F020E030E008C040E0AF
S113275050E02150223010F441E050E09A01892FDA
S113276099278FBF222309F18FB7F894C82FDD274B
S11327709C2F80911201813081F480913601813047
S113278011F488E146CF823041F48091590280935C
S1132790120183E0809336013ECF9FBF06C021968D
S11327A03996C830D10509F09FCD89E00E942B02EB
S11327B0DF91CF911F910F91FF90EF90DF90CF9019
S11327C0BF90AF9008959F92AF92BF92CF92DF9245
S11327D0EF92FF920F931F93CF93DF93CDB7DEB7A2
S11327E062970FB6F894DEBF0FBECDBFE82FFF2768
S11327F0ED31F10508F071C5EA5BFF4FEE0FFF1FE5
S11328000590F491E02D099480916B02882309F4DA
S113281064C520E011E007C50FB7F89411270E94A2
S11328202B11DBC08FB7F8949927209121018FBF1A
S1132830222309F452C548EE53E060E070E082E0E0
S11328400E9499061092DB0148C51FB7F894809145
S11328505B0281FD06C08091470190914801892B5C
S1132860A1F4809121018450823098F58091040173
S1132870843019F085E08093040181E08093210184
S113288080E00E942B0221E025C090E0809143016A
S11328908F3108F091E09923E1F090E080913A01C2
S11328A0833009F491E09923A1F40E94B70681E0F2
S11328B080933A016F98B89AC0988091040184304B
S11328C019F085E08093040184E0809321010E9443
S11328D02B1120E0812F99278FBF222309F4FDC4F7
S11328E00E944509FAC48FB7F8949927209175017D
S11328F0309176018FBF80913C01E82FFF27EE0FC6
S1132900FF1FEA58FD4F318320838F5F80933C0182
S1132910893010F010923C01809143018F3118F4FA
S11329208F5F80934301DE011196E6E7F2E082E1D6
S113293001900D928150E1F760E08E010F5F1F4F0F
S113294041E050E0DE011396E52FFF27EE0FFF1F55
S1132950E00FF11F2D913C91119780819181821795
S1132960930708F4542F4F5F1296493069F7E52F07
S1132970FF27633041F0EE0FFF1FE00FF11F1182BC
S113298010826F5FDDCF6091050170910601882789
S11329909927B5E0660F771F881F991FBA95D1F75D
S11329A0EE0FFF1FE00FF11F2081318144275527CF
S11329B0220F331F441F551F620F731F841F951F5F
S11329C00FB7F894112722E230E040E050E00E9473
S11329D00F1D30930601209305010FBF7EC42FB74E
S11329E0F894332740917402509175028091390113
S11329F08D7F8093390182E080933A0110923302F3
S1132A00109232022FBF80911301882309F065C40C
S1132A106091E4017091E5016417750709F05DC4E4
S1132A2040E02BC48FB7F894282F332780913A01C4
S1132A30853009F0CAC300910201109103012FBF30
S1132A40F80184A123A19927982F88273327822B63
S1132A50932B019709F078C0808141812FB7F894B6
S1132A60332760910801709109012FBF9927982F8E
S1132A7088275527842B952B8617970761F080812B
S1132A8021819927982F88273327822B932B8F5FB7
S1132A909F4F09F059C0F8018681833909F054C069
S1132AA00E947C05F801878120859927582F4427A7
S1132AB03327422B532B80913D029927982F882747
S1132AC020913E023327822B932B84179507E8F439
S1132AD040933E02852F992780933D02818522856C
S1132AE09927982F88273327822B932B8093400292
S1132AF0892F992780933F0248EE53E060E070E00D
S1132B0082E00E9499061092DB01F80185852685F2
S1132B109927582F44273327422B532B8091430264
S1132B209927982F8827209144023327822B932BAF
S1132B308417950748F440934402852F992780937E
S1132B40430281E080936D02FFB6F89401151105EC
S1132B5021F0109303010093020180913A01853022
S1132B6039F482E080933A011092330210923202D7
S1132B700E94D70B8F2D992753C38FB7F8949927A9
S1132B8020915A022093070123E0209323018FBF51
S1132B9080910701813081F0813030F0823071F012
S1132BA0833009F09AC30EC082E08093E101109251
S1132BB06A020E94000391C381E001C082E00E9486
S1132BC08F068BC383E0FBCF1092E101A090350206
S1132BD0B090360280916A02823039F0833049F035
S1132BE0813059F40E94FB0711C082E00E94FB0768
S1132BF0BEC083E00E94FB0723C1823009F4B7C042
S1132C00833009F41DC1813009F067C38FB7F8948C
S1132C10C82E80912501833009F041C080910A01BA
S1132C208823E9F580914D01882309F032C328C334
S1132C30ED2DE695E695E695FF274D2D5527E35BAB
S1132C40FE4F9A012770307081E090E002C0880F37
S1132C50991F2A95E2F780952081282320830093E9
S1132C60240112C00F5F1F4F0130110511F400E061
S1132C7010E0D02E802F0E94DE058823C9F60E15A1
S1132C801F0581F74FEF50E04093D8018FEF8093F9
S1132C900A0181E0809325018BE00E942B02CFBEC4
S1132CA0E091DB01EA3050F58E2F8F5F8093DB01DA
S1132CB0FF27EE0FFF1FEB5BFD4FA1822B2D332768
S1132CC02083950144275527823080F080911D018F
S1132CD090911E01A0911F01B0912001280F391F6E
S1132CE04A1F5B1F569547953795279520931D01DD
S1132CF030931E0140931F01509320018091DB010A
S1132D008A3011F580911D0190911E01A0911F013F
S1132D10B0912001855B9140A040B0400697A10589
S1132D20B10540F480911C018F3F31F08F5F809397
S1132D301C0102C010921C0110921D0110921E0170
S1132D4010921F011092200180911C018B3008F415
S1132D50C4C280E00E949905882309F06BC08FB734
S1132D60F89499272BB332E023272BBB59C280E078
S1132D700E940E0581E00E940E05882309F4ADC26D
S1132D809090E0018FB7F894C82E80912D01833084
S1132D9009F041C080910C018915E9F580915F0229
S1132DA0882309F085C27BC2ED2DE695E695E6956C
S1132DB0FF274D2D5527E15AFD4F9A01277030709A
S1132DC081E090E002C0880F991F2A95E2F7809570
S1132DD020812823208300932C0112C00F5F1F4FF2
S1132DE00130110511F400E010E0D02E802F0E9474
S1132DF085058823C9F60E151F0581F74FEF50E0AE
S1132E00409346018FEF80930C0181E080932D0164
S1132E1080E10E942B02CFBE992009F05EC2F3E04C
S1132E20AF16F2E0BF0608F458C280E00E943705EE
S1132E30882319F00E94230450C20E947C054DC2CD
S1132E408FB7F894C82E80913601833009F041C0C1
S1132E50809112018823E9F580916F02882309F09B
S1132E6036C22CC2ED2DE695E695E695FF274D2D4D
S1132E705527E159FD4F9A012770307081E090E0A9
S1132E8002C0880F991F2A95E2F780952081282394
S1132E9020830093350112C00F5F1F4F01301105CD
S1132EA011F400E010E0D02E802F0E942305882327
S1132EB0C9F60E151F0581F74FEF50E040935902F4
S1132EC08FEF8093120181E08093360188E10E94A4
S1132ED02B02CFBE02C280916C01882361F5209140
S1132EE06002309161024091620250916302EFB737
S1132EF0F894FF276091370270913802809139026B
S1132F0090913A02E0904901F0904A0100914B01FE
S1132F1010914C016E0D7F1D801F911FEFBF2093F8
S1132F2060023093610240936202509363021092F4
S1132F306C010E9475060E94540443C00E9454040C
S1132F405B016C018FB7F89499271092E3018FBF4E
S1132F50FFEFEF2EFFEFFF2EFFEF0F2FFFE71F2FE7
S1132F6060E0EAEEF1E0808581FF1CC08081918100
S1132F70A281B381A6019501281B390B4A0B5B0B77
S1132F80DA01C9012481358146815781281B390B17
S1132F904A0B5B0B2E153F05400751071CF47901C2
S1132FA08A0161E0399632E0E233F307E1F6662301
S1132FB009F493C11E141F04100611062CF0C60157
S1132FC0B5010E94641189C1E0926002F09261022D
S1132FD0009362021093630281E080936C01A80164
S1132FE09701C601B5010E94750677C1AC9880911E
S1132FF02701813011F40E94F6048FB7F8949927C1
S113300010922701109226010BC12FB7F894332791
S11330108091D80180930A0183E0809325012FBF1A
S113302080910A01882309F058C181E0E1C00E941F
S1133030F60453C18AE04FC08FB7F89499272091C2
S11330406B0120930B0123E0209329018FBF809112
S11330500B01882321F0813009F03FC103C0159A88
S11330601D9A02C0A09AA89A0E945404AB01BC0104
S1133070E1E0EE2E0AE010E020E030E086E00E947D
S113308035042BC18FB7F89499272091E801209338
S11330902B0123E020932A01C3C02FB7F8943327D0
S11330A08091460180930C0183E080932D012FBF12
S11330B080910C018093E00182E09AC080E005C019
S11330C01D98159885E107C081E00E949A0405C106
S11330D0A898A09886E10E942B02FFC080E00E947D
S11330E0670880912F01813019F480E00E949A04CE
S11330F08FB7F894992710922F0110922E0190C047
S113310081E00E94670880913101813011F40E94AE
S11331109A048FB7F89499271092310110923001D4
S11331207FC02FB7F894332780913B01809310011F
S113313053E0509332012FBF209110018FB7F894C0
S11331409927209311018FBF222309F0C6C08FB79E
S1133150F894282F332780911101882309F035C072
S11331602FBF8FB7F894992720913301213009F0AC
S113317057C042E0409333018FBF2FB7F8943327F1
S11331808DE290E09093DA018093D9018FE691E08B
S1133190909372018093710140933D0150937302A7
S11331A010925E02109234012FBF0E942C042FB79C
S11331B0F8943327809134028F7E816E8093340299
S11331C094E090933301809374002FBF86C02FB78F
S11331D0F8943327809159028093120183E08093FD
S11331E036012FBF80911201882309F076C083E055
S11331F00E94A90372C00E947D106FC089B78F77A7
S113320089BFAB98A39880913801813011F40E9452
S11332107D108FB7F89499271092380110923701D6
S11332208FBF5BC0110F90916B02812F8923B1F086
S1133230E22FFF27EE0FFF1FEC51FE4F1182108289
S1133240812F8095982390936B02222339F40E9456
S113325023041092D701110F21E0E5CF2F5F28300E
S113326008F33BC080911301E82FFF27EE0FFF1FE7
S1133270EC51FE4F6081718141E00E945D0A2DC0D6
S113328081E080930A0110922501809326018DE04C
S113329004CD80912401E82EFF248701E3CC81E052
S11332A080930C0110922D018093300184E1B1CD03
S11332B080912C01E82EFF24870190CD81E080933A
S11332C0120110923601809337018AE100CE809179
S11332D03501E82EFF248701DFCD62960FB6F894FE
S11332E0DEBF0FBECDBFDF91CF911F910F91FF9035
S11332F0EF90DF90CF90BF90AF909F900895809112
S113330067028F3FB1F0282F3327F901E25BFE4FAC
S11333108081809367028F3F11F4809372028FEF54
S113332080832F3F31F0822F0E94E31381E090E0ED
S1133330089580E090E00895FF920F931F93CF9338
S1133340DF93FFB6F8944DE150E06FEF70E08EE448
S113335091E00E94681D8FEF809367028093720250
S113336081E08EBD88E080BF83E083BF8CB59DB5CE
S11333704AE72CB53DB52817390708F441504423D2
S113338011F0C901F6CF92B782B78917E9F32CB5CA
S11333903DB592B782B78917E9F38CB59DB5821B09
S11333A0930B409665E0969587956A95E1F790931F
S11333B069028093680213BE83B78EBD8EB580BF49
S11333C012BE1DBC1CBC8FEF86BF86B780937C00E9
S11333D080B7992787709070892BD1F7D29AD19AA8
S11333E0D09ADA9AD99AD89A15BA8FEF84BBD4981E
S11333F0DC981DBC1CBC87B7846087BF8EB5887FF2
S113340084608EBD16B8D6988C9A8E9A8F9A949AA8
S1133410979A969A6FE380E00E94F30160E08BE054
S11334200E94F301B998BF98BB98BA980E947F197B
S11334308823E1F710926F028FEF8093730110924B
S11334405F0210926E0110924D0180B7886080BFB8
S11334508BE083BF86EE81BF87B7826087BF0E94FF
S1133460F20580910001909101010196AA27BB27E2
S11334708093DC019093DD01A093DE01B093DF0122
S11334801092E901809139018160809339016B9830
S11334906A986F9A6E9A6AE380E00E94F3016BE384
S11334A080E00E94F30180ED97E001970196019777
S11334B0E1F780E88093E20160E88BE00E94F30189
S11334C060E984E00E94F30160E08FE00E94F30170
S11334D06FE680E10E94F30165E581E10E94F3015A
S11334E061E083E10E94F30101E010E0CAEFD2E061
S11334F0FE016491802F0E94F3010F5F1F4F2196FC
S11335000D301105A9F7CBE0D3E0FE01649182E10F
S11335100E94F3012997FE01849180935C022A960C
S1133520FE0184918093A7012897FE0184918093E2
S1133530E20160E08BE00E94F3016FE382E40E9409
S1133540F30161E180E00E94F3010E94CF0661EE85
S113355080E00E94F3016091A70189E00E94F301D9
S113356060E08BE00E94F3010E94CF060E941702E4
S11335700E94B706E6E7F2E080E291E0819391933E
S113358022E0E838F207D1F70E947F198823E1F797
S11335908F2D99278FBF78941092400221E02093B9
S11335A03F02809100019091010180934202892F92
S11335B09927809341028FB7F894C82FDD27809113
S11335C02101882301F520933A01809139018D7FEF
S11335D084608093390180910401843019F085E07E
S11335E0809304012093210180E00E942B028091AA
S11335F05B028D7F80935B02CFBF0E94450981E00F
S11336000E942B0201C0CFBF8FB7F894482F5527D3
S11336104BC087B7992783709070892B19F4E5E024
S1133620F0E013C080B7992787709070892BD1F789
S113363081B792B7891B8C3030F082B7853F18F47C
S1133640E3E0F0E002C0E2E0F0E087B7887BC1F499
S113365080917D008B7FA1F46E9912C08AB1909104
S11336609A00892B887161F48091740082FD08C0EE
S1133670379B03C081E090E005C085E090E002C084
S113368080E090E025B78E1708F4E82FFF27EA536F
S1133690FD4FE491237E2062E22BE5BF7894889568
S11336A0F89485B78F7D85BF809167028F3F09F4B9
S11336B0B0CF282F3327F901E25BFE4F808180933E
S11336C067028F3F11F4809372028FEF80832F3F44
S11336D009F49FCF4FBF822F0E94E31395CFACE232
S11336E0B0E0E5E7FBE10C94311D222E332E442E8D
S11336F0552E662E772E882E992EFE013196A8E03F
S11337001192AA95E9F729823A824B825C826D82F2
S11337107E828F829886FE013996B8E01192BA951E
S1133720E9F7A986BA86CB86DC86ED86FE860F8706
S1133730188B89819A81AB81BC8189A79AA7ABA791
S1133740BCA77C018D018FEF9FEFA0E0B0E0E822E1
S1133750F9220A231B2389A59AA5ABA5BCA51D01A3
S11337604424552489859A85AB85BC858DA39EA365
S1133770AFA3B8A75C016D018FEF9FEFA0E0B0E0AD
S1133780A822B922CA22DB228DA19EA1AFA1B8A58D
S11337903D0188249924C801B701A60195010E941E
S11337A0F01C69A37AA38BA39CA3C801B701A4014D
S11337B093010E94F01C7B018C01C201B101A6019E
S11337C095010E94F01C5B016C01C201B101A401CE
S11337D093010E94F01C3B014C01EA0CFB1C0C1DE4
S11337E01D1D89A19AA1ABA1BCA19D014427552708
S11337F02E0D3F1D401F511F2A153B054C055D052D
S113380040F480E090E0A1E0B0E0680E791E8A1EEA
S11338109B1ECA01AA27BB27860D971DA81DB91D8B
S11338208D8F9E8FAF8FB8A3A9013327222789A13B
S11338309AA1ABA1BCA1A070B070280F391F4A1F78
S11338405B1F298F3A8F4B8F5C8FA98CBA8CCB8CE2
S1133850DC8CED8CFE8C0F8D18A1FE01719698E026
S113386011929A95E9F7ED8AFE8A0F8B188F2D81B4
S11338703E814F8158856DA17EA18FA198A50E949C
S1133880F01C3B014C012D853E854F85588969A567
S11338907AA58BA59CA50E94F01C2D893E894F8991
S11338A0588D260F371F481F591F260D371D481DD9
S11338B0591D2D8B3E8B4F8B588F6D887E888F883A
S11338C0988C2A2D3B2D4C2D5D2D662D772D882D22
S11338D0992DE2E1AC960C944D1DA0E1B0E0E3E734
S11338E0FCE10C94311D222E332E442E552E662ECF
S11338F0772E882E992E002309F466C088E0FE01F5
S1133900319611928A95E9F729833A834B835C8334
S11339106D837E838F829887E0E2E01B1E16CCF5D0
S11339202D813E814F815885602F772767FD7095E3
S1133930DA01C901062E04C0B695A7959795879517
S11339400A94D2F78D879E87AF87B88B04C0220F65
S1133950331F441F551FEA95D2F789819A81AB81A1
S1133960BC8104C0B695A795979587956A95D2F7BB
S1133970282B392B4A2B5B2B29873A874B875C876B
S113398029843A844B845C846D847E848F849888F3
S11339901BC01D861E861F86188A2E2F332727FDDF
S11339A03095309521953F4F8D819E81AF81B885AB
S11339B004C0B695A795979587952A95D2F78987D8
S11339C09A87AB87BC87DCCF222D332D442D552D10
S11339D0662D772D882D992DE2E160960C944D1D6E
S11339E0629FD001739FF001829FE00DF11D649FDF
S11339F0E00DF11D929FF00D839FF00D749FF00D6B
S1133A00659FF00D9927729FB00DE11DF91F639F0B
S1133A10B00DE11DF91FBD01CF0111240895A1E2EC
S1133A201A2EAA1BBB1BFD010DC0AA1FBB1FEE1F34
S1133A30FF1FA217B307E407F50720F0A21BB30B7F
S1133A40E40BF50B661F771F881F991F1A9469F7FB
S1133A5060957095809590959B01AC01BD01CF0157
S1133A6008952F923F924F925F926F927F928F921E
S1133A709F92AF92BF92CF92DF92EF92FF920F93F9
S1133A801F93CF93DF93CDB7DEB7CA1BDB0B0FB603
S1133A90F894DEBF0FBECDBF09942A8839884888C0
S1133AA05F846E847D848C849B84AA84B984C88456
S1133AB0DF80EE80FD800C811B81AA81B981CE0F4D
S1133AC0D11D0FB6F894DEBF0FBECDBFED01089532
S1133AD0DC0101C06D9341505040E0F70895FFCFE1
S1133AE00100A80104200104010001020140FFFFBC
S10F3AF001FF01011B1C1E2022242628BB
S9030000FC
