S01800006275696C642F6D6963617A2F6D61696E2E73726563E5
S11300000C946B000C94C5070C94CF070C94D9077F
S11300100C94E3070C94ED070C94F7070C94600B15
S11300200C9401080C948A000C948A000C94F41F1C
S11300300C9492210C948F070C94A5070C947D08C2
S11300400C947E070C947F150C948A000C948A00FF
S11300500C948A000C940B080C948A000C948A006B
S11300600C949A070C948A000C948A000C948A00CD
S11300700C948A000C948A000C948A000C948A00D4
S11300800C948A000C948D110C948A001116151688
S11300901B1672168F169616CE168B17AE17C2172E
S11300A09A19CD19251A371A461A571A5A1A5C1A68
S11300B0821A7A1C9A1CA51CB61CB81CBC1CC01C39
S11300C0C41CD61CE71C3D1D511D541D0716871D5D
S11300D000081C18141011241FBECFEFD0E1DEBF9E
S11300E0CDBF11E0A0E0B1E0EEE7F8E400E00BBF23
S11300F002C007900D92A831B107D9F712E0A8E128
S1130100B1E001C01D92AD3EB107E1F70E94F11DBF
S11301100C943E240C9400008FB7F894992708950A
S11301208FBF08958FB7F89499272BB334E0232712
S11301302BBB8FBF0895FC0182819927582F442738
S113014081819927482B592BCA01892F9927869594
S11301508695837090708230910559F083309105B3
S113016059F0892B19F420E030E008C02CE93FEF66
S113017005C022E030E002C028E030E0CA0184E09B
S1130180989F812D992711248230910559F083304D
S1130190910559F0892B19F480E090E008C08CE9AE
S11301A09FEF05C082E090E002C088E090E0280F55
S11301B0391F2A5F3F4FCF01820F931F0895282FC5
S11301C09FB7F894662349F0E82FFF27E35BFD4FC0
S11301D08081882311F021E006C0E22FFF27E35B32
S11301E0FD4F608320E0892F99278FBF822F9927A5
S11301F00895E82F8FB7F894282F332790E0FF272E
S1130200E35BFD4F8081861709F491E02FBF892FAE
S113021099270895882311F06E9A08956E98089589
S1130220882311F06F9A08956F98089580E00E94D2
S11302300A01BA9ABB98B99AB89A6C9A80E00E945B
S113024010016B986A9881E00E940A01709A8DB13E
S11302508C7F8DB908950F931F93CF93DF93182F3D
S11302608FB7F894C82FDD270C2F61E080E00E943F
S1130270DF00882321F0CFBF85E090E024C0809187
S113028005018823A1F480912401823081F409C0FE
S113029082E080932401109205010E941601B89A0D
S11302A0C0981093020180E00FBF99270CC0809181
S11302B02401882369F38FB7F894992710924D028B
S11302C08FBF81E0F1CFDF91CF911F910F910895FE
S11302D0282F9FB7F894E82FFF27ED59FE4F808110
S11302E08F3F81F4E091EA02E21771F40BC020938E
S11302F0D80204C0FF27ED59FE4F20832093EA0261
S113030020E007C025E005C08091D8028F3F91F717
S1130310EECF892F99278FBF822F992708951F9396
S1130320182F81E00E940A011FB9779BFECF8FB17D
S113033099271F9108958F929F92AF92BF92CF9267
S1130340DF92EF92FF920F931F93CF93DF938FB7B8
S1130350F8949927C090E302D090E402809043027D
S113036090904402C091F301D091F4012091450191
S113037030914601EAE0AE2EB12CAC0EBD1E2A151A
S11303803B0508F459018FBF7401EC0EFD1E860174
S11303900C0F1D1F14C0C114D10419F0F801808181
S11303A001C080E00E948F018114910411F0F701D3
S11303B0808321960894E11CF11C0F5F1F4FC50137
S11303C00197C817D90738F381E00E9410019FB73D
S11303D0F894C114D10431F0CC0EDD1EF6018081F5
S11303E08FB901C01FB8D093F401C093F301892FD2
S11303F099278FBF80E090E0DF91CF911F910F91FB
S1130400FF90EF90DF90CF90BF90AF909F908F9030
S113041008952FB7F894332750934601409345012C
S11304209093E4028093E302709344026093430246
S11304301092F4011092F3012FBF452B29F08FB1D4
S11304400E949B019927089587E00E94680180E03B
S113045090E008958FB7F894992710924F028FBFB8
S113046008958FB7F894992720917400209345023A
S11304708FBF0895EF920F931F93AE2D99E0899F3C
S1130480F0011124E550FE4F40835183628373834E
S11304900483158326833783A17080858E7F8A2BFE
S11304A0826080878BE00E9468011F910F91EF901A
S11304B008957FB7F89462B72091490130914A01B9
S11304C040914B0150914C0106B601FE0FC081B71B
S11304D092B7280F311D411D511D2F5F3F4F4F4FC4
S11304E05F4F290F311D411D511D04C0260F311DC1
S11304F0411D511D872F99278FBFCA01B901089546
S1130500AF92BF92CF92DF92EF92FF920F931F931D
S1130510F82E5A016B010E945902AB01BC01F1E0B3
S1130520EF2E960185018F2D0E943A021F910F91A3
S1130530FF90EF90DF90CF90BF90AF900895982FE9
S1130540969596959695E1E6F1E0E90FF11D877091
S113055021E030E002C0220F331F8A95E2F7808148
S11305608223992708950F931F93CF93DF93182F16
S11305708FB7F894282F3327022F809130018823D6
S113058041F581E0809330011093CF012FBF8FB7E5
S1130590F8949927379A8FBF8FB7F894C82FDD271F
S11305A02C2F90910D019330C1F480913001813052
S11305B021F481E10E94680108C0823071F48091C5
S11305C0CF0180930D0190933001CFBF80E090E084
S11305D023C08091CF01811711F42FBFF7CF812F52
S11305E00E949F02882319F085E090E014C0E12F57
S11305F0E695E695E695FF27EF59FE4F177081E0E3
S113060090E002C0880F991F1A95E2F72081282BE9
S1130610208380E090E00FBFDF91CF911F910F9175
S11306200895813041F0813020F0823031F081E052
S113063007C080E003C081E001C082E00E94B302F1
S1130640992708950E943102809145028E7F806926
S113065080934502809374000895982F96959695FB
S11306609695ECE8F1E0E90FF11D877021E030E0A8
S113067002C0220F331F8A95E2F7808182239927D3
S113068008950F931F93CF93DF93182F8FB7F89488
S1130690282F3327022F80913201882331F581E0FE
S11306A080933201109387012FBF8FB7F894C82F1E
S11306B0DD279C2F80910E018230A9F480913201B4
S11306C0813021F483E10E94680109C0823059F429
S11306D08091870180930E0183E080933201CFBF24
S11306E080E090E025C09FBFFBCF809187018117F8
S11306F011F42FBFF5CF812F0E942D03882319F009
S113070085E090E014C0E12FE695E695E695FF2795
S1130710E457FE4F177081E090E002C0880F991FE4
S11307201A95E2F72081282B208380E090E00FBF08
S1130730DF91CF911F910F910895982F96959695DB
S11307409695E6EEF2E0E90FF11D877021E030E0C6
S113075002C0220F331F8A95E2F7808182239927F2
S113076008959FB7F894292F3327422F90910E01B3
S1130770981741F480913201833021F42FBF81E036
S113078090E008954FBF80E090E00895982F9695EB
S113079096959695EEE7F2E0E90FF11D877021E05A
S11307A030E002C0220F331F8A95E2F78081822352
S11307B0992708950F931F93182F8FB7F894282F14
S11307C03327022F80913F01882399F491E090937D
S11307D03F0110936E022FBF80914001882321F4C2
S11307E08EE10E94680102C09093410180E090E094
S11307F023C080916E02811711F42FBFF7CF812F90
S11308000E949D03882319F085E090E014C0E12F35
S1130810E695E695E695FF27EA51FD4F177081E0CE
S113082090E002C0880F991F1A95E2F72081282BC7
S1130830208380E090E00FBF1F910F9108958FB740
S1130840F89499272BB331E023272BBB8FBF08954E
S1130850982F969596959695EAEFF1E0E90FF11D9C
S1130860877021E030E002C0220F331F8A95E2F73F
S113087080818223992708950F931F93182F8FB790
S1130880F894282F3327022F80913601882399F476
S113089091E09093360110935B012FBF8091390151
S11308A0882321F488E10E94680102C090933A01F0
S11308B080E090E023C080915B01811711F42FBF89
S11308C0F7CF812F0E94C603882319F085E090E0BA
S11308D014C0E12FE695E695E695FF27E258FD4F13
S11308E0177081E090E002C0880F991F1A95E2F713
S11308F02081282B208380E090E00FBF1F910F916F
S113090008958091DB02813031F0813030F0823003
S113091031F478E014C078E00FC078E00AC0813088
S113092051F0813028F0823049F02FE170E008C0A6
S113093070E023E005C070E021E002C070E022E036
S1130940622FEFB7F89480918B018E7F80938B0197
S113095087B1982F9F71829586958695837019F03B
S113096080E090E012C0822F8850863118F081E038
S113097090E00BC040E050E03327892F99272817D7
S1130980390711F441E050E0CA01982F9170990F92
S113099080918B018178262F2F71422F440F440FB1
S11309A0892B842B80938B01332727B9783059F511
S11309B08091D9029091DA0221E08638920718F0EA
S11309C087E090E01FC0833C910518F086E090E03A
S11309D019C08136910518F085E090E013C080338A
S11309E0910518F084E090E00DC08831910518F06D
S11309F083E090E007C00C9718F082E090E002C01A
S1130A0080E090E0782F7770887D872B886D992718
S1130A1086B98E2F99278FBF0895DF92EF92FF92A8
S1130A200F931F938FB7F894282F3327D22E91B7A3
S1130A3082B746B7981711F041FF02C02FBF6AC0B2
S1130A408091F2018823E1F10E945902E090490269
S1130A50F0904A0200914B0210914C0220915C01EB
S1130A6030915D0140915E0150915F016E197F09E3
S1130A70800B910B621773078407950720F010927F
S1130A80F20171E01EC02E0D3F1D401F511F8091C9
S1130A90490190914A01A0914B01B0914C01281B4E
S1130AA0390B4A0B5B0B273E31054105510540F4D8
S1130AB0822F223010F070E005C070E082E002C0A6
S1130AC070E086EE682F615000B601FCFDCF82B75E
S1130AD0681709F46F5F2091490130914A014091F0
S1130AE04B0150914C01DA01C9010196A11DB11DC0
S1130AF0860F911DA11DB11D82179307A407B50789
S1130B0010F4622F609561BFDFBE772319F08AE08D
S1130B100E9468011F910F91FF90EF90DF9008955C
S1130B20AFB7F894BB27E1E0E093F2016093490288
S1130B3070934A0280934B0290934C0220935C0181
S1130B4030935D0140935E0150935F01AFBF0E94FB
S1130B500D050895AF92BF92CF92DF92EF92FF926C
S1130B600F931F93F82E5A016B010E945902AB0197
S1130B70BC01EE24960185018F2D0E943A021F913B
S1130B800F91FF90EF90DF90CF90BF90AF900895BA
S1130B9080E8809360011092CB011092DC021092E5
S1130BA0D702109290010895CF93DF93FC0115A60C
S1130BB0DC019E96ED011B821A82198280E886A7C9
S1130BC0DF91CF9108952F923F924F925F926F924F
S1130BD07F928F929F92AF92BF92CF92DF92EF92C9
S1130BE0FF920F931F93CF93DF93CDB7DEB7289770
S1130BF00FB6F894DEBF0FBECDBF2090D601309063
S1130C00D7014090D8015090D901662477248824D4
S1130C101EE4A12EB3E8BB2ECC24DD24EE24FF2455
S1130C2000E010E0222D332D442D552D662D772D17
S1130C30882D90E00E94202229833A834B835C8391
S1130C406D837E838F839887822E932EA42EB52E58
S1130C502401350100E20E941E23A22EB32EC42ECD
S1130C60D52EC301B20196958795779567956A0D40
S1130C707B1D8C1D9D1D97FF05C09F776F5F7F4F68
S1130C808F4F9F4F6093D6017093D7018093D80103
S1130C909093D90128960FB6F894DEBF0FBECDBF4E
S1130CA0DF91CF911F910F91FF90EF90DF90CF9044
S1130CB0BF90AF909F908F907F906F905F904F9078
S1130CC03F902F9008958FB7F8946091F701709139
S1130CD0F8012CB53DB506B602FE04C06F5F7F4F28
S1130CE02CB53DB599278FBF88279927CB01772746
S1130CF0662744275527622B732B842B952B089545
S1130D00EF92FF920F931F930E9463067B018C0165
S1130D102091E0013091E1014091E2015091E30121
S1130D208091DB019091DC01A091DD01B091DE01A5
S1130D30820F931FA41FB51FE216F30604071507BD
S1130D4030F082179307A407B50758F005C082173F
S1130D509307A407B507E0F5E816F9060A071B0789
S1130D60B8F59C01AD012E193F09400B510B213000
S1130D7060E8360760E0460760E0560768F180E007
S1130D8090E8A0E0B0E0E80EF91E0A1F1B1FE092F5
S1130D90E001F092E1010093E2011093E30180E0AD
S1130DA090E8AFEFBFEFE80EF91E0A1F1B1F20509B
S1130DB03048404050402093DB013093DC014093A5
S1130DC0DD015093DE0120E030E840E050E014C043
S1130DD020E030E040E050E08093E0019093E101B6
S1130DE0A093E201B093E3011092DB011092DC01C5
S1130DF01092DD011092DE01A901B7012CB53DB5B9
S1130E00C9018E199F0903968417950720F0B9012B
S1130E106D5F7F4F02C0640F751F6115710511F47A
S1130E2061E070E0615070407BBD6ABD80E186BFC7
S1130E3087B7806187BF1F910F91FF90EF9008954E
S1130E400F931F930FB7F89411276093E0017093E9
S1130E50E1018093E2019093E3012093DB0130935D
S1130E60DC014093DD015093DE010E9480060FBF38
S1130E701F910F91089597B79F7D97BF90E296BFFA
S1130E80882319F08EB5806402C08EB58F7B8EBD29
S1130E9087B7806287BF80E090E00895AF92BF92E9
S1130EA0CF92DF92EF92FF920F931F93CF93DF9332
S1130EB0CDB7DEB728970FB6F894DEBF0FBECDBF0F
S1130EC020E070E0E0910001F091010132E14DE693
S1130ED05CE46FE4809101019E2F28960FB6F8948C
S1130EE0DEBF0FBECDBFDF91CF911F910F91FF9059
S1130EF0EF90DF90CF90BF90AF9008951F920F9224
S1130F000FB60F9211248F9383B783BF00B600FCF2
S1130F10FDCF8F910F900FBE0F901F90189578946E
S1130F201F920F920FB60F9211240F900FBE0F90C5
S1130F301F90189578941F920F920FB60F92112458
S1130F400F900FBE0F901F90189578941F920F92D8
S1130F500FB60F9211242F933F938F939F932FB724
S1130F60F89433278091F7019091F80101969093BA
S1130F70F8018093F7012FBF9F918F913F912F919B
S1130F800F900FBE0F901F9018951F920F920FB6DF
S1130F900F9211240F900FBE0F901F9018951F925F
S1130FA00F920FB60F9211240F900FBE0F901F9047
S1130FB018951F920F920FB60F9211240F900FBE27
S1130FC00F901F9018951F920F920FB60F92112435
S1130FD00F900FBE0F901F9018951F920F920FB68F
S1130FE00F9211240F900FBE0F901F9018951F920F
S1130FF00F920FB60F9211240F900FBE0F901F90F7
S113100018951F920F920FB60F9211240F900FBED6
S11310100F901F9018951F920F920FB60F921124E4
S11310202F933F934F935F936F937F938F939F93EC
S1131030AF93BF93EF93FF9344B155B178948FB7B7
S1131040F894992720918B01322F369531702170B5
S11310508FBF2223D9F433988091ED01813021F0A0
S1131060823009F039C00AC0332351F0509347024B
S11310704093460282E10E9468012EC0332319F492
S11310800E94810429C01092ED0126C08FB7F89404
S113109099278FBF2FB7F894332786B1582F5770ED
S11310A0482F4072987D942B952B8074977B982BB6
S11310B090619F77892F992786B9887D842B852B0A
S11310C087738061992786B9887D842B852B877BDC
S11310D08069992786B92FBFFF91EF91BF91AF9196
S11310E09F918F917F916F915F914F913F912F913C
S11310F00F900FBE0F901F9018951F920F920FB66E
S11311000F9211242F933F934F935F936F937F9389
S11311108F939F93AF93BF93EF93FF9383B783BF53
S113112000B600FCFDCF81B799270196AA27BB27FB
S11311302091490130914A0140914B0150914C0159
S1131140280F391F4A1F5B1F2093490130934A011E
S113115040934B0150934C0178940E940D05FF91EC
S1131160EF91BF91AF919F918F917F916F915F911B
S11311704F913F912F910F900FBE0F901F90189594
S1131180EF92FF920F931F93CF93DF93982F8FB714
S1131190F894E82E80913201833009F045C08091A3
S11311A00E01891709F040C080918C01882309F051
S11311B045C03EC0EF2DE695E695E695FF274F2DF9
S11311C05527E457FE4F9A012770307081E090E074
S11311D002C0880F991F2A95E2F780952081282361
S11311E02083C093310111C02196C230D10511F47E
S11311F0C0E0D0E0FC2E8C2F0E942D038823D1F672
S1131200C017D10789F74FEF50E0409387018FEF64
S113121080930E0181E08093320183E10E94680192
S1131220EFBE80E090E010C0EFBE81E090E00CC023
S113123082E080930E0110923201F2CF809131014D
S1131240082F1127E801D0CFDF91CF911F910F9183
S1131250FF90EF900895EF92FF920F931F93CF9317
S1131260DF93982F8FB7F894E82E80913001833064
S113127009F045C080910D01891709F040C08091A3
S11312806101882309F046C03EC0EF2DE695E6953E
S1131290E695FF274F2D5527EF59FE4F9A012770EA
S11312A0307081E090E002C0880F991F2A95E2F720
S11312B08095208128232083C0932F0111C021967B
S11312C0C330D10511F4C0E0D0E0FC2E8C2F0E9475
S11312D09F028823D1F6C017D10789F74FEF50E05A
S11312E04093CF018FEF80930D0181E08093300113
S11312F081E10E946801EFBE80E090E011C0EFBE82
S113130081E090E00DC083E080930D0110923001E4
S11313103798F1CF80912F01082F1127E801CFCF03
S1131320DF91CF911F910F91FF90EF900895982F27
S113133080913B01833009F047C0809113018917E4
S113134009F042C08091110120E030E08F3F11F498
S113135021E030E0232BF9F48F3F19F42FEF30E034
S11313600EC0282F3327F901E352FD4F808180936B
S113137011018F3F11F4809312018FEF808320932A
S113138044018FEF8093130181E080933B018CE152
S11313900E94680116C081E08093130110923B0102
S11313A080913C01813069F40E94310280914502B0
S11313B08A76809345028093740090989198109255
S11313C03C0180E090E0089581E090E008950E945F
S11313D03102809145028A7F809345028093740094
S11313E00E9431028091450284608093450280937B
S11313F0740081E080933C0180913D01882349F48D
S113140080911401882329F40E94220380E00E9421
S1131410970908950F931F93182F0FB7F89461E05D
S113142080E00E94DF00882371F51093020180910F
S113143005018823A9F580912401823089F586E08D
S11314400CC00E94160180912401882349F481E094
S1131450809324011092930188E00E9468012AC0BD
S11314608091DF018F3F31F5E0910401EE2311F10A
S11314701CC01092030104C0FF27E152FE4F1082EA
S11314801092040117C081E090E002C0880F991FF8
S11314901A95E2F720912301282B209323010AC0F7
S11314A0809124018823E1F6CCCF809103018F3F02
S11314B019F7DFCF802F99278FBF80E090E01F912D
S11314C00F9108951F9383E00E942B019927182FF1
S11314D0882319F083E00E940A0A812F99271F911B
S11314E00895CF92DF92EF92FF920F931F93CF93C1
S11314F0DF938C01F62E6A01E22E8FB7F894C82F81
S1131500DD2760E080E00E94F900882321F0CFBF4E
S113151080E090E01EC0CFBF0F0D111D802F8068AA
S11315200E948F01F82E16950795802F807C0E94CB
S11315308F010E2D0AC0EE2DFF27E01BF109EC0DE3
S1131540FD1D80810E948F0101500023A1F78F2D82
S11315509927DF91CF911F910F91FF90EF90DF902A
S1131560CF900895CF93DF93CDB7DEB72C970FB606
S1131570F894DEBF0FBECDBF8FB7F894282FAE010D
S11315804F5F5F4FDA01E0E7F2E088E001900D92EF
S11315908150E1F78091CD019091CE018987892F07
S11315A099278A878091E4019091E5018B87892F9F
S11315B099278C872FBF2CE060E080E691E00E94A1
S11315C0710A2C960FB6F894DEBF0FBECDBFDF9123
S11315D0CF9108951F93CF93DF93182F8FB7F8946B
S11315E0C82FDD2760E080E00E94F900882321F005
S11315F0CFBF80E090E005C0CFBF812F0E948F0154
S11316009927DF91CF911F910895EF92FF920F9345
S11316101F93CF93DF93182F7B01042F8FB7F89478
S1131620C82FDD2760E080E00E94F900882321F0C4
S1131630CFBF80E090E014C0CFBF1064812F992702
S11316409093E9018093E8010E948F01182F402FA5
S11316505527B70180E090E00E940902812F992765
S1131660DF91CF911F910F91FF90EF900895C09853
S1131670609142017091430141E08FE30E94050BA8
S1131680089582E090E0909386018093850181E043
S11316908093CB0120E030E080910201843011F48A
S11316A021E030E0232B29F484E00E942B018823DD
S11316B019F40E94370B089584E00E940A0A0895E1
S11316C01F920F920FB60F9211242F933F934F93B3
S11316D05F936F937F938F939F93AF93BF93EF9396
S11316E0FF938091850190918601019749F482E0EE
S11316F090E090938601809385010E94410B05C080
S1131700809190018F5F80939001FF91EF91BF9141
S1131710AF919F918F917F916F915F914F913F9185
S11317202F910F900FBE0F901F9018951F938091CB
S11317302301882309F04BC0109102011F3F09F0D7
S113174046C060E00E94F900882309F440C081E0AB
S113175080937A02809162018823E1F110927A02E7
S113176085E090E045C0923069F5C09A809103010C
S113177020E030E08F3F11F421E030E0232BE9F446
S1131780109305018F3F19F42FEF30E00DC0282F7F
S11317903327F901E152FE4F8081809303018F3F8B
S11317A011F41093040110832093930181E080933A
S11317B0240188E00E94680105C01093050110927D
S11317C0240111C080912401882369F00FC081E0B5
S11317D090E00EC08091050190912401882319F2B4
S11317E0923021F0EFCF80E00E940A0180E090E087
S11317F01F9108951F93CF93DF939FB7F894C92F38
S1131800DD271C2F90910201981721F0CFBF81E0B2
S113181090E03AC08FEF809302013091230133238B
S1131820F1F48FB7F894992710924D028FBF0E945C
S1131830960BCFBF11C02093020181E090E002C05B
S1131840880F991F4A95E2F7809538233093230136
S113185086E00E9468011FBF80E090E015C080E030
S113186065E0E32FFF270E94A123292F492F552745
S1131870CF01042E02C0959587950A94E2F780FD66
S1131880DACF822F8F5FEFCFDF91CF911F91089531
S1131890EF92FF920F931F93CF93DF930FB7F894B8
S11318A0112781E00E943B07E1E0EE2EF12CF0923B
S11318B02601E092250110922701109262011092F4
S11318C08A010FBF0FB7F89411270E94C805F09240
S11318D08601E09285011092CB0189B78F7B89BF85
S11318E080E488BF8AB780628ABF8AB78F7E8ABF46
S11318F089B7806489BF0FBF8FB7F894C82FDD27DD
S11319008091200190912101049719F483E00E94B1
S1131910EA0ACFBF0FB7F8941127C09A80E00E945B
S1131920FA0B0FBF8FB7F894992722E020934E0249
S11319308FBF48EE53E060E070E081E00E94AA05AA
S11319401092D501DF91CF911F910F91FF90EF90ED
S113195008951F93CF93DF938FB7F894C82FDD2793
S11319601C2F8091850190918601892B29F484E0B4
S11319700E94FA0BCFBF1EC01092CB018091900140
S1131980882311F0B79904C00E9908C0882319F070
S11319908150809390010E94410B0BC081E090E044
S11319A090938601809385011092900184E00E94B7
S11319B0FA0B1FBFDF91CF911F9108950E94C805B4
S11319C0C09AC09888E00E94EA0A88E00E94EA0A65
S11319D0C09A84E00E94FA0B0E94A90C0895FF9219
S11319E00F931F93CF93DF93F82E8B018FB7F89447
S11319F0C82FDD2760E080E00E94F900882321F0F1
S1131A00CFBF80E090E00CC0CFBF8F2D0E948F012C
S1131A10812F99270E948F01802F0E948F0199277F
S1131A20DF91CF911F910F91FF9008951F931FB7DE
S1131A30F89480918F01882319F460E070E009C064
S1131A4060E08091E202882309F461E081E0682784
S1131A5077278091D001882319F480E090E00AC0B0
S1131A6090E080916F02882309F491E081E0982747
S1131A70892F9927762F6627770F770F770FA4E0A2
S1131A80880F991FAA95E1F7826E9262682B792BD1
S1131A9081E10E94EF0C812F99278FBF1F91089538
S1131AA08FB7F8949927609179028FBF85E0689F7A
S1131AB0B0011124625D7E4F706488E10E94EF0CD6
S1131AC00895EF92FF921F93CF93DF93E090D1019B
S1131AD0F090D201F70182A59927182F882309F4E1
S1131AE01FE1C09880918A01811749F0612F7727FF
S1131AF06F717070606E706885E10E94EF0C1093D6
S1131B008A01F70110818FB7F894C82FDD2760E0B0
S1131B1080E00E94F900882311F0CFBF12C0CFBF2C
S1131B208EE390E09093E9018093E8018EE30E94B4
S1131B308F011150412F552760E070E0C7010E94CA
S1131B400902DF91CF911F91FF90EF9008950F93B9
S1131B501F93CF93DF93EC010FB7F89411270E94E2
S1131B609B00FC018FE380830FBF1092E002109270
S1131B70DF0261E082E00E94DF00882319F085E043
S1131B8090E072C080917B028F5F80937B028150D2
S1131B908B838FB7F894082F112762E081E00E94AD
S1131BA0F900882329F40FBF0E942A0281E05BC058
S1131BB08FB7F894992724E020934E028FBFD093D7
S1131BC0F101C093F0010FBFFE013196818129819B
S1131BD09927982F88273327822B932B80729C7CFC
S1131BE08983892F992781832981982F88273327EF
S1131BF02164822B932B8983892F992781831CA6A7
S1131C0018A619A619AA18AA1FA680E88EA761E02B
S1131C10609351024091F0015091F1018FB7F89413
S1131C20282F332780912501909126018830910532
S1131C3011F0019711F02FBF15C082E090E090934E
S1131C402601809325016093EB025093D2014093C7
S1131C50D101109247012FBF0E94620A882311F418
S1131C600E94610D80E09927DF91CF911F910F9120
S1131C700895CF93DF93DA01422F2D3118F082E0DB
S1131C8090E05EC0ED018B876E83872F99278F8349
S1131C902FB7F89433278091CD019091CE012FBFB7
S1131CA0FD018483892F992785832FB7F8943327DF
S1131CB080910601909107012FBF8887892F99276A
S1131CC089873196818129819927982F88273327FD
S1131CD020643868822B932B8983892F99278183E9
S1131CE0435F4C934D5080910901882359F0109221
S1131CF00901642FCD010E94A70D9927282F88235D
S1131D00A9F417C0842F99279093EF018093EE01D3
S1131D10B0932A01A09329018CE00E94680180916C
S1131D200901882349F489E090E00AC08FEF809389
S1131D300901822F992704C01092DA0180E090E013
S1131D40DF91CF910895CF93DF93FB01DB011696CA
S1131D508683892F9927ED01898383E9838780917D
S1131D60F5019091F601892B19F085E090E02BC0E4
S1131D70F093F601E093F501435F40834D50809169
S1131D801601882319F480E090E01DC08385ED01DD
S1131D9069817727762F662726813327622B732B59
S1131DA010921601242FAF010E94390E9927282F73
S1131DB0882339F081E0809316011092F601109285
S1131DC0F501822F9927DF91CF910895AF92BF92A9
S1131DD0CF92DF92EF92FF920F931F93CF93DF93F3
S1131DE05B016C01C0E0D0E0EBEFF1E0608561FFE6
S1131DF001C22081318142815381E480F5800681D2
S1131E001781D601C501821B930BA40BB50B8E154C
S1131E109F05A007B10708F4EDC160FF03C06D7F03
S1131E20608708C02E0D3F1D401F511F2083318342
S1131E3042835383C43009F4E8C0C53050F4C2303F
S1131E4009F45AC0C33008F098C0C13009F0D8C1B1
S1131E500AC0C63009F491C1C63008F40FC1C730B6
S1131E6009F0CEC1C5C18091D5018A30C9F4109260
S1131E70D5018091E502882389F48091580299273D
S1131E80982F8827209159023327822B932B019670
S1131E9080935902892F9927809358021092E50262
S1131EA08FB7F894282F3327122F80912C01882381
S1131EB089F491E090932C01109278022FBF8091C5
S1131EC02D01882321F48FE00E94680198C090932B
S1131ED02E0195C080917802882311F42FBF8FC002
S1131EE080E00E942804882329F48091FA0181600B
S1131EF08093FA011FBF83C08091D5018A30C9F550
S1131F008091CC018823E1F4A3EAB1E0E2E5F2E0B8
S1131F108CE101900D928150E1F74CE167E971E0A9
S1131F208FEF9FEF0E94A30E882321F481E080931A
S1131F30CC0106C08091CC01882311F40E94920048
S1131F401092D5018091E502882389F4809158028A
S1131F509927982F8827209159023327822B932B76
S1131F60019680935902892F9927809358021092E1
S1131F70E50280E00E943C0440C08091D5018A3093
S1131F80C9F58091CC018823E1F4A3EAB1E0E2E54C
S1131F90F2E08CE101900D928150E1F74CE167E9A8
S1131FA071E08FEF9FEF0E94A30E882321F481E05C
S1131FB08093CC0106C08091CC01882311F40E9447
S1131FC092001092D5018091E502882389F48091D2
S1131FD058029927982F8827209159023327822B5A
S1131FE0932B019680935902892F99278093580245
S1131FF01092E50280E00E94DA03882319F00E941F
S11320009200FEC00E941F04FBC09FB7F894209169
S11320102C01222319F421E030E00FC080910C013F
S1132020813019F020E030E008C040E050E0215059
S1132030223010F441E050E09A01892F99278FBF94
S1132040222309F4DDC08FB7F894C82FDD279C2F15
S113205080910C01813009F0C9C080912C0181303C
S113206011F48EE0B5C0823009F0C0C080917802CE
S113207080930C0183E080932C01B6C080E00E9421
S1132080B103882309F43AC09FB7F894209133012F
S1132090222319F421E030E00FC080913401882319
S11320A019F020E030E008C040E050E02150223038
S11320B010F441E050E09A01892F99278FBF222321
S11320C0E9F08FB7F894C82FDD279C2F8091340155
S11320D0882399F480913301813021F484E10E94B2
S11320E0680109C0823049F48091F9018093340178
S11320F083E080933301CFBF01C09FBF81E00E9482
S1132100B103882309F47CC09FB7F8942091360169
S1132110222319F421E030E00FC080910F018130B7
S113212019F020E030E008C040E050E021502230B7
S113213010F441E050E09A01892F99278FBF2223A0
S113214009F45EC08FB7F894C82FDD279C2F8091C7
S11321500F01813009F04AC080913601813011F4B9
S113216085E136C0823009F041C080915B018093E3
S11321700F0183E08093360137C09FB7F894209114
S11321803F01222319F421E030E00FC080911501B2
S1132190813019F020E030E008C040E050E02150E8
S11321A0223010F441E050E09A01892F99278FBF23
S11321B0222331F18FB7F894C82FDD279C2F80910B
S11321C01501813099F480913F01813021F48DE132
S11321D00E94680109C0823049F480916E028093A4
S11321E0150183E080933F01CFBF0AC09FBF08C0A1
S11321F0AA9806C021963996C830D10509F0F6CDC3
S11322008BE00E946801DF91CF911F910F91FF90A5
S1132210EF90DF90CF90BF90AF9008950F931F93EE
S1132220182F042FE82FFF27EE0FFF1FEB50FE4F50
S11322301182108210921601E091F501F091F601DD
S1132240309721F08091DE0280FF10C081E08093FE
S1132250160103C081E20E9468011123C9F400231E
S113226011F00E9492001092CC0112C020812D50D6
S1132270332767817727762F662786819927682BEE
S1132280792BAF0183850E94390E882331F3E2CF85
S11322901F910F9108959B0180911601882349F4A1
S11322A06091F5017091F6016217730711F40E94B1
S11322B00E110895CF93DF93C0912901D0912A0183
S11322C06091EE01CE010E94A70D482F55274423AB
S11322D051F08FEF809309016091290170912A01D7
S11322E08B850E944B11DF91CF9108951F93182F76
S11322F081E090E090932601809325011092620181
S11323000E94960B8FB7F894992710931F018FBFE3
S113231082E00E9468011F9108951F920F920FB6E8
S11323200F9211242F933F934F935F936F937F9357
S11323308F939F93AF93BF93EF93FF930E943102C8
S113234080913C01843009F4C7C0863021F0833089
S113235009F0EFC03EC090917100987F80913D01DB
S1132360813041F4903499F583E080933C012091CD
S11323707D0244C0983159F583E080933C019091EB
S11323807D028091480120914502981708F472C09B
S1132390922F9E7F909345028091EC0281FF07C0AB
S11323A08D7F8093EC0290619093450203C02E7759
S11323B020934502809145028093740081E08093CC
S11323C03C0180911401882309F0B3C07FC084E0EC
S11323D098C080913D0190917D02813009F044C004
S11323E0E0919101F0919201E90FF11D8091730048
S11323F0808320917D022F5F20937D02809148018C
S11324002817A0F43327992701972817390749F487
S11324108091EC0282FD05C0809145028F7B809300
S11324204502809145028093740083C090914502D7
S1132430292F2E7F209345028091EC0281FF09C051
S11324408D7F8093EC02206120934502809171007E
S113245003C09E7790934502809145028093740057
S113246081E080933C0165C0809148012091450240
S1132470981778F4E0919101F0919201E90FF11D20
S11324808081809373009F5F90937D0220937400FA
S113249050C0922F9E7F909345028091EC0281FF61
S11324A007C08D7F8093EC0290619093450203C036
S11324B02E7720934502809145028093740081E039
S11324C080933C0180911401882399F50E94220392
S11324D080E00E9497092DC08091EC028E7F80934A
S11324E0EC02909145029F7D90934502809171008A
S11324F0887F883049F080917100887F803121F095
S113250081E00E94E70915C0392F306430934502F9
S11325109091D301990F20E080913D01813009F41D
S113252021E0922B9093730086E080933C013093DA
S11325307400FF91EF91BF91AF919F918F917F9123
S11325406F915F914F913F912F910F900FBE0F901C
S11325501F901895EF920F931F9389B78F7789BFB8
S1132560A39AAB9AA69AAE98AE9A80911001109253
S11325708D0180938E018FB7F894282F3327922FE3
S113258080913B01882309F045C031E0E32EE092BD
S11325903B01109244012FBF8FB7F894082F1127E5
S11325A080913C018823C9F4909A919A88988998DB
S11325B01092710081E48093700010927200109266
S11325C074000E9431028091450284608E7F809362
S11325D0450280937400E0923C010FBF8FB7F894DA
S11325E0082F1127902F80911301813059F5809184
S11325F03B01813021F48CE10E94680109C08230E2
S113260009F5809144018093130183E080933B0199
S11326100FBF1FC080914401882311F42FBF19C03C
S11326208091DD028F3F71F4E0911201EE2351F0AD
S11326300BC01092110104C0FF27E352FD4F10821A
S1132640109212019FBF05C0809111018F3FA1F725
S1132650F0CF0E945902AB01BC0121E0E22E00EB55
S113266014E020E030E086E00E943A0280E090E04E
S11326701F910F91EF900895EF920F931F93A49AD7
S1132680AC9A0E945902AB01BC01E1E0EE2E01E1DB
S113269010E020E030E084E00E943A0280E090E024
S11326A01F910F91EF900895CF92DF92EF92FF92D6
S11326B00F931F93CFB6F894DD240E94E305DC0149
S11326C0CB0166E470E00E94AD23FBE0EF2EF12C19
S11326D0E80EF91EF092E802E092E7020E94630617
S11326E000271127A80197010E942007CFBE1F9140
S11326F00F91FF90EF90DF90CF9008951F93CF93A9
S1132700DF938FB7F894C82FDD271C2F8091250104
S1132710909126010897C9F489E00E94EA0A83E0AF
S11327200E94FA0BC09A81E090E090932601809376
S113273025018FB7F894992723E020931F018FBFB9
S113274082E00E946801CFBF30C0C0988091EB0244
S1132750882311F085E001C084E00E94EA0A83FD29
S113276009C080E00E94EA0A83FF04C085E090E08B
S113277020E003C083E090E021E090932601809361
S11327802501C09A1FBF222341F01092470183E024
S11327900E94FA0B0E94541308C00E94630620E4AE
S11327A031E040E050E00E942007DF91CF911F917B
S11327B00895EF92FF920F931F93CF93DF938B01B2
S11327C08091E8019091E90186FF40C18F7B8F33AE
S11327D009F08EC1C0914201D091430158815093B8
S11327E0880180918501909186018530910509F4D5
S11327F043C08630910509F48AC0029709F01FC1CD
S113280085E090E09093860180938501409160017A
S1132810852F99270196242F3327281739074CF140
S1132820B79906C00E9904C0451B415040936001FE
S1132830409188014A32E8F44423A1F0BE016F5F5D
S11328407F4F483018F047E050E007C086E090E042
S11328509093860180938501552780E090E00E9443
S1132860090246C11092CB01C09A84E00E94FA0B7F
S1132870E3C00E94DE0C3CC186E090E090938601A8
S1132880809385018091D001882309F439C0809117
S11328906F028823A9F5898185FF32C08F814E811B
S11328A02FB7F89433276091E4017091E5012FBFAD
S11328B09927982F88275527842B952B86179707B8
S11328C059F08F812E819927982F88273327822BBF
S11328D0932B8F5F9F4FA1F489818770813081F49E
S11328E0C09AC0988AE00E94EA0AC09AC0984091AF
S11328F0880147502896BE018FE30E94050BF8C05B
S113290040918801475055272896BE01A6CFC09A0A
S113291080919001882339F484E00E94FA0B80911D
S11329209001882311F0B7990AC00E9B08C09091BA
S1132930D702992321F0809188018B3038F480915B
S11329404201909143010E94D4053DC0913001F5AC
S1132950E091DC02FF27EE0FFF1FEE0FFF1FED5784
S1132960FD4F2081318142815381E0914201F091F8
S1132970430121ABBB27A52F942F832F80ABCA0122
S1132980AA27BB2787A7252F33274427552726A700
S11329908091DC029927019668E070E00E94C123CF
S11329A08093DC028091D70281508093D7028823E0
S11329B051F080914201909143010E94D4051092FC
S11329C0DC021092D70280918801FE01E80FF11D0C
S11329D0808187FF31C0012B79F169816770E091B3
S11329E04201F0914301623019F5A091D101B091F7
S11329F0D201109709F18091250190912601079742
S1132A00D9F4ED019B8183819817B1F487B78F7E48
S1132A1087BF908181E08CA7E90FF11D82913196E7
S1132A2088A780818F7789A780E00E94761104C0EF
S1132A30613011F489E02AC00E94A90C59C0109297
S1132A40CB01C09A84E00E94FA0B52C08E3309F085
S1132A504FC0C09A80912501909126010897C9F42E
S1132A60C09889E00E94EA0AC09A83E00E94FA0BA7
S1132A7081E090E090932601809325018FB7F8942C
S1132A80992723E020931F018FBF82E00E946801F1
S1132A902FC08091EB02882349F484E090E0909366
S1132AA02601809325010E947E1322C083E00E94A8
S1132AB0FA0B83E090E090932601809325010E9415
S1132AC0E305DC01CB0166E371E00E94AD23ABE0DA
S1132AD0EA2EF12CE80EF91EF0925A01E092590107
S1132AE00E94630600271127A80197010E9420076E
S1132AF0DF91CF911F910F91FF90EF9008951F9256
S1132B000F920FB60F9211242F933F934F935F931D
S1132B106F937F938F939F93AF93BF93EF93FF93A1
S1132B202FB1E0914302F0914402309739F0809143
S1132B30F3019091F401E80FF91F20838091F301D0
S1132B409091F40101969093F4018093F30180E055
S1132B500E94100140914501509146018091F3017A
S1132B609091F4018417950718F40E949B011CC0EE
S1132B7060914302709144028091E3029091E402D7
S1132B8010924402109243021092E4021092E30263
S1132B9010924601109245011092F4011092F30133
S1132BA02FB120E00E94D913FF91EF91BF91AF9113
S1132BB09F918F917F916F915F914F913F912F9151
S1132BC00F900FBE0F901F9018959F92AF92BF92D7
S1132BD0CF92DF92EF92FF920F931F93CF93DF93E5
S1132BE0CDB7DEB7A8970FB6F894DEBF0FBECDBF42
S1132BF0E82FFF27E232F10510F00C94C21DEA5BC6
S1132C00FF4FEE0FFF1F0590F491E02D0994809182
S1132C10DE02882311F40C94C21D11E020E00C9410
S1132C20681D0E94480C0C94C21D8FB7F894992714
S1132C3010924E0279C08FB7F8949927F0901F0133
S1132C408FBF63E081E00E94F900882359F10FB738
S1132C50F8941127109226011092250187B78F7ED0
S1132C6087BF87B78F7D87BF83E00E94FA0BC09A26
S1132C700FBF0FB7F89411271092860110928501A7
S1132C800E94C805C09A89B78F7B89BF0FBF109275
S1132C90210110922001DE98DD98DE9A81E00E94E5
S1132CA0680107C08FB7F894992722E020934E0259
S1132CB08FBF0091F0011091F1010E942A028091CE
S1132CC0DF029091E002892B11F00C94C21D8FEF6A
S1132CD0809309014F2DB801F80183850E944B119F
S1132CE00C94C21D8FB7F894282F3327122F80918C
S1132CF0E902882309F0BFC681E08093E90280914C
S1132D00200190912101049721F481E00E940A0A94
S1132D1003C084E00E9468011FBF0C94C21D8FB7DA
S1132D20F89499271092E9028FBF2CC78FB7F894B3
S1132D30282F332780912201882309F09CC62FBFB6
S1132D4080B3992746E0969587954A95E1F7182F21
S1132D5011709091E6018091E7018917D9F0191754
S1132D60C9F484E090E090932101809320018FB70F
S1132D70F894992721E0209322018FBF60E070E04E
S1132D808DE10E94EF0C0E94B20AC09AC09880E0C4
S1132D900E9468011093E70185E06DC08FB7F89435
S1132DA09927109102018FBF123009F467C01330C4
S1132DB030F4112359F0113009F0E4C648C013303F
S1132DC009F476C0143009F0DDC6A2C0C0988FB7EC
S1132DD0F894082F112780912001909121010297E6
S1132DE0A1F583E090E0909321018093200168E1B4
S1132DF070E08DE10E94EF0C81E08093E601109277
S1132E00220180B3992736E0969587953A95E1F7A4
S1132E10817090708093E70185E00E94680181E0F1
S1132E200E94EA0A6FE772E08CE10E94EF0C0E94B4
S1132E30500D0E94160D66E57AE287E10E94EF0CC0
S1132E406FEF70E885E10E94EF0C0FBF9BC6C0983E
S1132E5086E00E94EA0A0E94500D0E94160D0E940C
S1132E60B20AC09AC09883E00E94EA0AC09A81E03C
S1132E700E94FA0B84E00E94680184C6C0988FB750
S1132E80F894082F112760E080E00E94F90088235D
S1132E9011F00FBF0AC00FBF83E50E948F0180E0CD
S1132EA00E948F0180E00E948F01C09A82E02DC0B1
S1132EB08FB7F8949927209125018FBF243039F0DA
S1132EC0283041F0223001F50E94610D5BC60E945A
S1132ED07E1358C6C09889E00E94EA0AC09A83E02B
S1132EE00E94FA0B8FB7F894992721E030E03093D1
S1132EF02601209325018FBF8FB7F894992710934B
S1132F001F018FBF82E0B7CF83E00E94FA0B3AC65D
S1132F100E94370B37C60FB7F8941127409145012B
S1132F205091460160914302709144028091E30202
S1132F309091E40210924402109243021092E4022F
S1132F401092E30210924601109245011092F4018E
S1132F501092F30120E00E94D91377CF2FB7F89491
S1132F603327809193018093050182E080932401AB
S1132F702FBF80910501882309F004C6B89AC09830
S1132F8086E079CFA0914201B09143011C919D014B
S1132F90210F311DF9018081881F8827881FFD01B9
S1132FA083A7F90180818F77FD0181A721503040EB
S1132FB0F9018081FD0180A7A0914201B0914301F4
S1132FC0FD0132818FB7F894992720918F018FBF2B
S1132FD0222309F490C0832F992796958795969577
S1132FE08795837090708230910541F58781468181
S1132FF02FB7F89433276091E4017091E5012FBF56
S11330009927982F88275527842B952B8617970760
S113301019F481E090E06CC0FD018781268140E0D5
S113302050E09927982F88273327822B932B8F5F83
S11330309F4F11F441E050E0CA015AC0039709F0D0
S113304070C19E012F5F3F4F40E752E088E0FA01D4
S11330500190AF01F90101929F018150C1F79E01D6
S11330602F5D3F4FAE014F5F5F4F88E0FA01019043
S1133070AF01F90101929F018150C1F79E01275FC1
S11330803F4FAE014F5D5F4F88E0FA010190AF0101
S1133090F90101929F018150C1F79E012F5E3F4FBC
S11330A0AE01475F5F4F88E0FA010190AF01F9017B
S11330B001929F018150C1F79E01275E3F4FAE01EF
S11330C04F5E5F4F88E0FA010190AF01F901019270
S11330D09F018150C1F748E050E0BE01675E7F4F19
S11330E0CD0106960E942A24892B09F01AC103C037
S11330F0882309F416C11D3008F413C1E09042017D
S1133100F0904301F7012281822F9927F6E09695EA
S11331108795FA95E1F7039719F468E070E002C027
S113312062E070E0822F992796958795969587950A
S113313083709070039719F488E090E002C082E0F5
S113314090E026E030E0E20EF31E40E050E020E0A4
S113315030E0F701E80FF91F8AEF9FEFE80EF91E40
S113316005C08191480F511D2F5F3F4F2617370728
S1133170C4F3F70163818FEF8093E1028FB7F89472
S1133180782F20E030E0EDE4F1E080819181841734
S1133190950729F48281861731F12093E1022F5F8C
S11331A03F4F33962430310581F77FBF9091E10280
S11331B03FB7F8949F3F21F0809128018917A9F423
S11331C020912801822F9927FC01EE0FFF1FE80FA1
S11331D0F91FE35BFE4F5183408362832F5F2370AB
S11331E0209328010EC07FBF98C0892F9927FC0126
S11331F0EE0FFF1FE80FF91FE35BFE4F518340837F
S11332006283832F99278FBF0FB7F8941127C701C3
S11332100E949B00FC0190810FBFF70183A58823C6
S113322009F47BC09F3309F078C0878146812FB7AA
S1133230F894332760910601709107012FBF9927F5
S1133240982F88275527842B952B8617970761F08D
S1133250878126819927982F88273327822B932BC0
S11332608F5F9F4F09F059C0F7018385833909F0B7
S113327054C00E941F04F701848525859927582F7F
S113328044273327422B532B809152029927982F9E
S11332908827209153023327822B932B8417950779
S11332A0E8F440935302852F992780935202868530
S11332B027859927982F88273327822B932B809350
S11332C05502892F99278093540248EE53E060E019
S11332D070E081E00E94AA051092D501F70182896D
S11332E023899927582F44273327422B532B809126
S11332F058029927982F8827209159023327822B27
S1133300932B8417950748F440935902852F9927E6
S11333108093580281E08093E502F0924301E092A9
S113332042018FB7F89499271092CB018FBF0E9466
S1133330A90C28C480918901882361F520917F021A
S1133340309180024091810250918202EFB7F8944B
S1133350FF276091490270914A0280914B0290913B
S11333604C02E0905C01F0905D0100915E011091CF
S11333705F016E0D7F1D801F911FEFBF20937F02A1
S1133380309380024093810250938202109289010B
S11333900E9490050E94590243C00E9459025B0199
S11333A06C018FB7F89499271092F2018FBF1FEF29
S11333B0E12E1FEFF12E1FEF012F1FE7112F60E009
S11333C0EBEFF1E0808581FF1CC080819181A281B7
S11333D0B381A6019501281B390B4A0B5B0BDA015B
S11333E0C9012481358146815781281B390B4A0B39
S11333F05B0B2E153F05400751071CF479018A0128
S113340061E0399632E0E334F307E1F6662309F428
S1133410B9C31E141F04100611062CF0C601B50111
S11334200E94E60EAFC3E0927F02F0928002009306
S113343081021093820281E080938901A80197019F
S1133440C601B5010E9490059DC39091DA01809157
S11334500901981709F496C390930901992319F463
S11334600E945A118FC38FEF809309018BC3AC98CC
S113347080912E01813011F40E943C138FB7F8948F
S1133480992710922E0110922D014ECC2FB7F8944B
S113349033278091780280930C0183E080932C0180
S11334A02FBF80910C01882309F06CC3F7C20E94DE
S11334B03C1368C38DE0DFCC8FB7F8949927209133
S11334C0CF0120930D0123E0209330018FBF909111
S11334D00D01913061F0913020F0923009F052C327
S11334E00DC081E08093ED011092DB0204C0909343
S11334F0ED019093DB020E94810444C381E0809338
S1133500ED01F7CF1092ED01A0904602B090470272
S11335108091DB02813049F0813018F0823069F407
S113352008C080E00E942B0911C081E00E942B0991
S1133530C0C082E00E942B0925C1813009F4B9C0C2
S1133540813020F0823009F01DC31CC18FB7F8947C
S1133550C82E80912C01833009F041C080910C0168
S11335608823E9F58091FA01882309F0E7C2DDC2D6
S1133570ED2DE695E695E695FF274D2D5527E6506A
S1133580FE4F9A012770307081E090E002C0880FEE
S1133590991F2A95E2F780952081282320830093A0
S11335A02B0112C00F5F1F4F0130110511F400E011
S11335B010E0D02E802F0E9428048823C9F60E150F
S11335C01F0581F74FEF50E0409378028FEF80930F
S11335D00C0181E080932C018EE00E946801CFBE33
S11335E0E091D501EA3050F58E2F8F5F8093D5019D
S11335F0FF27EE0FFF1FE65AFD4FA1822B2D332725
S11336002083950144275527823080F08091190149
S113361090911A01A0911B01B0911C01280F391F30
S11336204A1F5B1F56954795379527952093190197
S113363030931A0140931B0150931C018091D501D2
S11336408A3021F58091190190911A01A0911B01F2
S1133650B0911C01815B9140A040B0400A97A10544
S1133660B10540F4809118018F3F41F08F5F809342
S1133670180104C01092180110921D011092190132
S113368010921A0110921B0110921C0180911801D2
S1133690833008F477C280E00E943C04882309F058
S11336A06BC08FB7F89499272BB332E023272BBB39
S11336B03BCB80E00E94B10381E00E94B1038823E8
S11336C009F460C29090EC018FB7F894C82E8091F1
S11336D03601833009F041C080910F018915E9F565
S11336E080917E02882309F038C22EC2ED2DE69522
S11336F0E695E695FF274D2D5527E258FD4F9A0193
S11337002770307081E090E002C0880F991F2A95DD
S1133710E2F780952081282320830093350112C08D
S11337200F5F1F4F0130110511F400E010E0D02E9F
S1133730802F0E94C6038823C9F60E151F0581F742
S11337404FEF50E040935B018FEF80930F0181E0D6
S11337508093360185E10E946801CFBE992009F06B
S113376011C243E0A41642E0B40608F40BC280E0A0
S11337700E94DA03882319F00E94920003C20E9477
S11337801F0400C28FB7F894C82E80913F01833084
S113379009F041C0809115018823E9F58091E60282
S11337A0882309F0E9C1DFC1ED2DE695E695E6959C
S11337B0FF274D2D5527EA51FD4F9A012770307090
S11337C081E090E002C0880F991F2A95E2F7809566
S11337D020812823208300933E0112C00F5F1F4FD6
S11337E00130110511F400E010E0D02E802F0E946A
S11337F09D038823C9F60E151F0581F74FEF50E08E
S113380040936E028FEF8093150181E080933F0116
S11338108DE10E946801CFBE8EE39EEFA80EB91E13
S113382095E6A916B104F0F18091420281FF27C008
S1133830E0903E02F0903F0200914002109141025C
S11338400E9459029B01AC0180913A0290913B0283
S1133850A0913C02B0913D02281B390B4A0B5B0B33
S11338602E153F054007510750F4E21AF30A040BE2
S1133870150BE5E6EE16F1040105110548F444E6DE
S113388050E060E070E087E00E948002A29AAA9A69
S113389080911D01882331F481E080931D01809380
S11338A01E0105C080911E01882309F46BC180911B
S11338B0CC018823E1F4A3EAB1E0E2E5F2E08CE193
S11338C001900D928150E1F74CE167E971E08FEFCF
S11338D09FEF0E94A30E882321F481E08093CC0102
S11338E006C08091CC01882311F40E9492001092AA
S11338F01E0148C18FB7F89499272091870120931E
S11339000E0123E0209332018FBF80910E018823A2
S113391021F0813009F036C103C0159A1D9A02C006
S1133920A09AA89A4AE050E060E070E085E00E9426
S1133930800228C18FB7F89499272091F901209328
S1133940340123E020933301EFC92FB7F8943327D0
S113395080915B0180930F0183E0809336012FBF38
S113396080910F018093EC0181E098C080E005C054
S11339701D9815988AE17FCA81E00E94410302C123
S1133980A898A0988BE177CA80E00E94C008809133
S11339903801813019F480E00E9441038FB7F89414
S11339A099271092380110923701BEC981E00E9414
S11339B0C00880913A01813011F40E9441038FB70D
S11339C0F894992710923A0110923901ADC92FB792
S11339D0F8943327809144018093130153E050936A
S11339E03B012FBF209113018FB7F894992720939F
S11339F014018FBF222309F0C5C08FB7F894282F74
S1133A00332780911401882309F035C02FBF8FB765
S1133A10F894992720913C01213009F085C942E0AE
S1133A2040933C018FBF2FB7F89433278DE290E089
S1133A309093D4018093D3018DE891E09093920107
S1133A4080939101409348015093EC0210927D02BF
S1133A5010923D012FBF0E9431022FB7F8943327F3
S1133A60809145028F7E816E8093450294E090930D
S1133A703C01809374002FBF85C02FB7F89433277F
S1133A8080916E028093150183E080933F012FBFE4
S1133A9080911501882309F075C082E00E9411030A
S1133AA071C00E94AA126EC089B78F7789BFAB9884
S1133AB0A39880914101813011F40E94AA128FB71A
S1133AC0F894992710924101109240012DC9110FC9
S1133AD09091DE02812F8923B1F0E22FFF27EE0FB0
S1133AE0FF1FEB50FE4F11821082812F8095982387
S1133AF09093DE02222339F40E9492001092CC01AA
S1133B00110F21E0E5CF2F5F283008F33BC08091EF
S1133B101601E82FFF27EE0FFF1FEB50FE4F6081C9
S1133B20718141E00E940E112DC081E080930C014F
S1133B3010922C0180932D0180E14FCD80912B01B7
S1133B40E82EFF2487012ECD81E080930F0110928F
S1133B5036018093390189E1FECD80913501E82E4B
S1133B60FF248701DDCD81E08093150110923F0190
S1133B70809340018FE14DCE80913E01E82EFF24D9
S1133B8087012CCEA8960FB6F894DEBF0FBECDBF2A
S1133B90DF91CF911F910F91FF90EF90DF90CF9025
S1133BA0BF90AF909F9008958091D8028F3FB1F05D
S1133BB0282F3327F901ED59FE4F80818093D802D5
S1133BC08F3F11F48093EA028FEF80832F3F31F00F
S1133BD0822F0E94E51581E090E0089580E090E056
S1133BE008951F93CF93DF93CDB7DEB7E0970FB659
S1133BF0F894DEBF0FBECDBF1FB7F89442E250E089
S1133C006FEF70E083E691E00E9437248FEF80939A
S1133C10D8028093EA0281E08EBD88E080BF83E011
S1133C2083BF8CB59DB54AE72CB53DB52817390738
S1133C3008F44150442311F0C901F6CF92B782B77A
S1133C408917E9F32CB53DB592B782B78917E9F323
S1133C508CB59DB5821B930B409665E09695879530
S1133C606A95E1F79093DA028093D90213BE83B781
S1133C708EBD8EB580BF12BE1DBC1CBC8FEF86BF2F
S1133C8086B780937C0080B7992787709070892BC2
S1133C90D1F7D29AD19AD09ADA9AD99AD89A15BAEF
S1133CA08FEF84BBD498DC9816B81DBC1CBC87B7B6
S1133CB0846087BF8EB5887F84608EBD0E94D41DCA
S1133CC08823E1F71092E6028FEF8093DD021092D1
S1133CD07E0210928C01109261011092FA0180937D
S1133CE09401EDE4F1E08FEF9FEF918380831282E2
S1133CF0339621E0E935F207C1F70E94E3056093AA
S1133D007B0280910001909101010196AA27BB27B3
S1133D108093D6019093D701A093D801B093D90191
S1133D2080B7886080BF8BE083BF86EE81BF87B792
S1133D30826087BF0E940D0583EA92E0909343015D
S1133D40809342018E98B89A8C988FEF8093DF010C
S1133D5010924D0210924E0210924F021092500295
S1133D60B89AD69AD59A8FB7F894992720910601D4
S1133D70309107018FBF3093E5012093E4010E9445
S1133D804E0729A73AA74BA75CA76DA77EA78FA7C5
S1133D9098ABDE019196FE01B99688E001900D92F0
S1133DA08150E1F7DE015196FE01B19688E0019061
S1133DB00D928150E1F7DE015996FE01719688E07B
S1133DC001900D928150E1F7A0E7B2E0FE017996EF
S1133DD088E001900D928150E1F7809108019927C4
S1133DE09093CE018093CD018FE1809348028AE1C4
S1133DF0809379020E944E0729A73AA74BA75CA794
S1133E006DA77EA78FA798ABDE019196FE01B996A8
S1133E1088E001900D928150E1F7DE011196FE01D8
S1133E20B19688E001900D928150E1F7DE01199678
S1133E30FE01319688E001900D928150E1F7A0E7F0
S1133E40B2E0FE01399688E001900D928150E1F7CD
S1133E50A0E7B2E0FD0137969C9180818D93908319
S1133E60319782E0E337F807B9F781E080938F0157
S1133E701092E2028093D00110926F020E94D41D2E
S1133E808823E1F7812F99278FBF789410925502E8
S1133E9081E080935402809100019091010180930C
S1133EA05702892F99278093560261E081E00E948E
S1133EB0DF008823E9F48FB7F894282F3327809103
S1133EC0200190912101892B11F02FBF1FC081E0A7
S1133ED090E090932101809320012FBFDD9A0E94EE
S1133EE0630624E130E040E050E00E9420070EC069
S1133EF062E081E00E94F900882309F072C061E069
S1133F0081E00E94F900882309F46BC08FB7F8940C
S1133F10482F55274BC087B7992783709070892BFA
S1133F2019F4E5E0F0E013C080B79927877090702A
S1133F30892BD1F781B792B7891B8C3030F082B7C7
S1133F40853F18F4E3E0F0E002C0E2E0F0E087B778
S1133F50887BC1F480917D008B7FA1F46E9912C09F
S1133F608AB190919A00892B887161F480917400D0
S1133F7082FD08C0379B03C081E090E005C085E066
S1133F8090E002C080E090E025B78E1708F4E82F97
S1133F90FF27E053FF4FE491237E2062E22BE5BF2D
S1133FA078948895F89485B78F7D85BF8091D802E1
S1133FB08F3F09F4B0CF282F3327F901ED59FE4F75
S1133FC080818093D8028F3F11F48093EA028FEFAF
S1133FD080832F3F09F49FCF4FBF822F0E94E515A6
S1133FE095CF0E94920092CF78941F920F920FB6B1
S1133FF00F9211242F923F924F925F926F927F9271
S11340008F929F92AF92BF92CF92DF92EF92FF92E4
S11340100F931F932F933F934F935F936F937F93CC
S11340208F939F93AF93BF93CF93DF93EF93FF93BC
S1134030C6B5D7B58FB7F894282E0E9463069B01A6
S11340402C1B3D0B442755272B013C01421A530AD4
S1134050640A750A809125019091260185309105A5
S113406021F0069709F0E0C0BFC086E090E090938D
S113407026018093250131E0332E30929501109270
S1134080270180E00E943B07E091D101F091D20129
S113409041AABB27A72D962D852D80ABC301AA2746
S11340A0BB2787A7872D9927AA27BB2786A7E09137
S11340B0D101F091D20185A5882309F484C06081DF
S11340C0655077274F01860E971EF4012081E18009
S11340D08281A3809927AA27BB27BA2FA92F982FBB
S11340E08827332744275527522F4427332722274D
S11340F0FF24002711278701FF24EE242E293F29BE
S1134100402B512BBB24CC24DD242A293B294C29C8
S11341105D29822B932BA42BB52B84199509A60911
S1134120B7098383292F3A2F4B2F552722839D01CB
S11341304427552721838B2F9927AA27BB278083C0
S1134140C09824E0A40180E090E00E94710AC09A23
S1134150F4012081E1808281A3809927AA27BB27CB
S1134160BA2FA92F982F8827332744275527522F52
S1134170442733272227FF24002711278701FF2400
S1134180EE242E293F29402B512BBB24CC24DD24A3
S11341902A293B294C295D29822B932BA42BB52B4F
S11341A0840D951DA61DB71D8383292F3A2F4B2FF0
S11341B0552722839D014427552721838B2F992737
S11341C0AA27BB278083E091D101F091D20181819C
S11341D085FF02C03092620183E00E94FA0B87B728
S11341E08F7E87BF84997AC01092950181E00E94E6
S11341F03B07E091D101F091D201818185FF0FC08D
S113420087E090E090932601809325010E94630645
S113421020E031E040E050E00E94200703C080E04D
S11342200E947611849B5AC080912701882391F5BE
S113423080919501882371F511E0109395010E94F6
S11342403B0780B32091D702283098F4E091DC0238
S1134250E20FFF27E770F070EE0FFF1FEE0FFF1F56
S1134260ED57FD4F40825182628273822F5F20930B
S1134270D70210932701D093EB01C093EA018499EC
S11342802DC0992774E0969587957A95E1F7182FB4
S1134290117001C010E0809195018130F9F4109201
S11342A095010E943B07109227011123B9F48091D4
S11342B0EA019091EB01C81BD90B2A9778F48091FD
S11342C0D702882319F081508093D7028091D101BD
S11342D09091D201009711F00E94D4052FBEFF9156
S11342E0EF91DF91CF91BF91AF919F918F917F918A
S11342F06F915F914F913F912F911F910F91FF907B
S1134300EF90DF90CF90BF90AF909F908F907F9071
S11343106F905F904F903F902F900F900FBE0F9033
S11343201F90189578941F920F920FB60F92112434
S11343301F932F933F934F935F936F937F938F9329
S11343409F93AF93BF93EF93FF9387B78F7E87BFFE
S113435078941FB7F8948091DB019091DC01A091CF
S1134360DD01B091DE010097A105B10509F051C04E
S113437080912501909126018530910561F1863067
S1134380910530F48330910549F0049781F51AC002
S113439087309105F1F0089751F514C0869B0FC042
S11343A084E090E090932601809325010E946306A7
S11343B027E030E040E050E00E94200718C00E944F
S11343C0541315C00E94620A882389F40E947E1344
S11343D00EC080E00AC089E00E94EA0A81E00E94DF
S11343E03B0783E00E94FA0B87E00E9476118091DC
S11343F0200190912101019771F482E090E0909363
S1134400210180932001DE98DE9A80E00E940A0A4E
S113441002C00E948006812F99278FBFFF91EF91E0
S1134420BF91AF919F918F917F916F915F914F91C8
S11344303F912F911F910F900FBE0F901F901895D1
S1134440ACE2B0E0E6E2F2E20C94F323222E332E47
S1134450442E552E662E772E882E992EFE013196E7
S1134460A8E01192AA95E9F729823A824B825C82EC
S11344706D827E828F829886FE013996B8E0119211
S1134480BA95E9F7A986BA86CB86DC86ED86FE86E0
S11344900F87188B89819A81AB81BC8189A79AA7E0
S11344A0ABA7BCA77C018D018FEF9FEFA0E0B0E02C
S11344B0E822F9220A231B2389A59AA5ABA5BCA54A
S11344C01D014424552489859A85AB85BC858DA31B
S11344D09EA3AFA3B8A75C016D018FEF9FEFA0E08F
S11344E0B0E0A822B922CA22DB228DA19EA1AFA1ED
S11344F0B8A53D0188249924C801B701A6019501F6
S11345000E94D42369A37AA38BA39CA3C801B701F7
S1134510A40193010E94D4237B018C01C201B10147
S1134520A60195010E94D4235B016C01C201B10173
S1134530A40193010E94D4233B014C01EA0CFB1C0F
S11345400C1D1D1D89A19AA1ABA1BCA19D014427ED
S113455055272E0D3F1D401F511F2A153B054C05A5
S11345605D0540F480E090E0A1E0B0E0680E791EC3
S11345708A1E9B1ECA01AA27BB27860D971DA81D4C
S1134580B91D8D8F9E8FAF8FB8A3A9013327222722
S113459089A19AA1ABA1BCA1A070B070280F391F4A
S11345A04A1F5B1F298F3A8F4B8F5C8FA98CBA8C63
S11345B0CB8CDC8CED8CFE8C0F8D18A1FE017196DA
S11345C098E011929A95E9F7ED8AFE8A0F8B188F7D
S11345D02D813E814F8158856DA17EA18FA198A523
S11345E00E94D4233B014C012D853E854F8558897B
S11345F069A57AA58BA59CA50E94D4232D893E8903
S11346004F89588D260F371F481F591F260D371DF8
S1134610481D591D2D8B3E8B4F8B588F6D887E887E
S11346208F88988C2A2D3B2D4C2D5D2D662D772D52
S1134630882D992DE2E1AC960C940F24A0E1B0E012
S1134640E4E2F3E20C94F323222E332E442E552E6F
S1134650662E772E882E992E002309F466C088E0F2
S1134660FE01319611928A95E9F729833A834B83A7
S11346705C836D837E838F829887E0E2E01B1E1645
S1134680CCF52D813E814F815885602F772767FDBA
S11346907095DA01C901062E04C0B695A7959795C1
S11346A087950A94D2F78D879E87AF87B88B04C00D
S11346B0220F331F441F551FEA95D2F789819A812F
S11346C0AB81BC8104C0B695A795979587956A95EB
S11346D0D2F7282B392B4A2B5B2B29873A874B8718
S11346E05C8729843A844B845C846D847E848F84C3
S11346F098881BC01D861E861F86188A2E2F332776
S113470027FD3095309521953F4F8D819E81AF8156
S1134710B88504C0B695A795979587952A95D2F73D
S113472089879A87AB87BC87DCCF222D332D442D14
S1134730552D662D772D882D992DE2E160960C94E8
S11347400F24991B79E004C0991F961708F0961B53
S1134750881F7A95C9F780950895AA1BBB1B51E160
S113476007C0AA1FBB1FA617B70710F0A61BB70BDD
S1134770881F991F5A95A9F780959095BC01CD0182
S1134780089597FB092E07260AD077FD04D0E5DFAC
S113479006D000201AF4709561957F4F0895F6F7BE
S11347A0909581959F4F0895629FD001739FF0016A
S11347B0829FE00DF11D649FE00DF11D929FF00DAD
S11347C0839FF00D749FF00D659FF00D9927729FE4
S11347D0B00DE11DF91F639FB00DE11DF91FBD016F
S11347E0CF01112408952F923F924F925F926F92BE
S11347F07F928F929F92AF92BF92CF92DF92EF926D
S1134800FF920F931F93CF93DF93CDB7DEB7CA1BED
S1134810DB0B0FB6F894DEBF0FBECDBF09942A8818
S1134820398848885F846E847D848C849B84AA84C0
S1134830B984C884DF80EE80FD800C811B81AA814D
S1134840B981CE0FD11D0FB6F894DEBF0FBECDBF18
S1134850ED010895FB01DC0104C08D9101908019E4
S113486021F441505040C8F7881B990B0895DC018E
S111487001C06D9341505040E0F70895FFCF12
S113487E0100FFFFFFFF010022FFFFFF0103020102
S10B488E40FFFF01FF010100DE
S9030000FC
